{
  "_format": "hh-sol-artifact-1",
  "contractName": "StakingHelper",
  "sourceName": "contracts/StakingHelper.sol",
  "abi": [
    {
      "inputs": [
        {
          "internalType": "address",
          "name": "_staking",
          "type": "address"
        },
        {
          "internalType": "address",
          "name": "_Sab",
          "type": "address"
        }
      ],
      "stateMutability": "nonpayable",
      "type": "constructor"
    },
    {
      "anonymous": false,
      "inputs": [
        {
          "indexed": true,
          "internalType": "address",
          "name": "recipient",
          "type": "address"
        },
        {
          "indexed": false,
          "internalType": "uint256",
          "name": "amount",
          "type": "uint256"
        }
      ],
      "name": "LogStake",
      "type": "event"
    },
    {
      "inputs": [],
      "name": "Sab",
      "outputs": [
        {
          "internalType": "contract IERC20",
          "name": "",
          "type": "address"
        }
      ],
      "stateMutability": "view",
      "type": "function"
    },
    {
      "inputs": [
        {
          "internalType": "uint256",
          "name": "_amount",
          "type": "uint256"
        },
        {
          "internalType": "address",
          "name": "recipient",
          "type": "address"
        }
      ],
      "name": "stake",
      "outputs": [],
      "stateMutability": "nonpayable",
      "type": "function"
    },
    {
      "inputs": [],
      "name": "staking",
      "outputs": [
        {
          "internalType": "contract IStaking",
          "name": "",
          "type": "address"
        }
      ],
      "stateMutability": "view",
      "type": "function"
    }
  ],
  "bytecode": "0x60c060405234801561001057600080fd5b506040516104b03803806104b08339818101604052604081101561003357600080fd5b5080516020909101516001600160a01b03821661004f57600080fd5b6001600160601b0319606083901b166080526001600160a01b03811661007457600080fd5b606081811b6001600160601b03191660a052608051901c91506001600160a01b03166103e66100ca6000398060f152806101ae528061038e52508060a2528061017d528061024e52806102e752506103e66000f3fe608060405234801561001057600080fd5b50600436106100415760003560e01c80634cf088d9146100465780637acb77571461006a578063d4e2946814610098575b600080fd5b61004e6100a0565b604080516001600160a01b039092168252519081900360200190f35b6100966004803603604081101561008057600080fd5b50803590602001356001600160a01b03166100c4565b005b61004e61038c565b7f000000000000000000000000000000000000000000000000000000000000000081565b604080516323b872dd60e01b81523360048201523060248201526044810184905290516001600160a01b037f000000000000000000000000000000000000000000000000000000000000000016916323b872dd9160648083019260209291908290030181600087803b15801561013957600080fd5b505af115801561014d573d6000803e3d6000fd5b505050506040513d602081101561016357600080fd5b50506040805163095ea7b360e01b81526001600160a01b037f0000000000000000000000000000000000000000000000000000000000000000811660048301526024820185905291517f00000000000000000000000000000000000000000000000000000000000000009092169163095ea7b3916044808201926020929091908290030181600087803b1580156101f957600080fd5b505af115801561020d573d6000803e3d6000fd5b505050506040513d602081101561022357600080fd5b505060408051637acb775760e01b8152600481018490526001600160a01b03838116602483015291517f000000000000000000000000000000000000000000000000000000000000000090921691637acb7757916044808201926020929091908290030181600087803b15801561029957600080fd5b505af11580156102ad573d6000803e3d6000fd5b505050506040513d60208110156102c357600080fd5b505060408051630f41a04d60e11b81526001600160a01b03838116600483015291517f000000000000000000000000000000000000000000000000000000000000000090921691631e83409a9160248082019260009290919082900301818387803b15801561033157600080fd5b505af1158015610345573d6000803e3d6000fd5b50506040805185815290516001600160a01b03851693507f3dbdcfd4c1f2e08931aae3d544e149a1e643143f5234d166fe3debb78338849592509081900360200190a25050565b7f00000000000000000000000000000000000000000000000000000000000000008156fea2646970667358221220c8d93aac0622c7ebe2c35baa77db904794361c74a7591bf57a3d942fbf5b1b2964736f6c63430007050033",
  "linkReferences": {},
  "deployedLinkReferences": {}
}