{
  "_format": "hh-sol-artifact-1",
  "contractName": "SabTreasury",
  "sourceName": "contracts/Treasury.sol",
  "abi": [
    {
      "inputs": [
        {
          "internalType": "address",
          "name": "_Sab",
          "type": "address"
        },
        {
          "internalType": "address",
          "name": "_MIM",
          "type": "address"
        },
        {
          "internalType": "uint32",
          "name": "_secondsNeededForQueue",
          "type": "uint32"
        }
      ],
      "stateMutability": "nonpayable",
      "type": "constructor"
    },
    {
      "anonymous": false,
      "inputs": [
        {
          "indexed": true,
          "internalType": "enum SabTreasury.MANAGING",
          "name": "managing",
          "type": "uint8"
        },
        {
          "indexed": false,
          "internalType": "address",
          "name": "activated",
          "type": "address"
        },
        {
          "indexed": false,
          "internalType": "bool",
          "name": "result",
          "type": "bool"
        }
      ],
      "name": "ChangeActivated",
      "type": "event"
    },
    {
      "anonymous": false,
      "inputs": [
        {
          "indexed": true,
          "internalType": "enum SabTreasury.MANAGING",
          "name": "managing",
          "type": "uint8"
        },
        {
          "indexed": false,
          "internalType": "address",
          "name": "queued",
          "type": "address"
        }
      ],
      "name": "ChangeQueued",
      "type": "event"
    },
    {
      "anonymous": false,
      "inputs": [
        {
          "indexed": true,
          "internalType": "address",
          "name": "debtor",
          "type": "address"
        },
        {
          "indexed": true,
          "internalType": "address",
          "name": "token",
          "type": "address"
        },
        {
          "indexed": false,
          "internalType": "uint256",
          "name": "amount",
          "type": "uint256"
        },
        {
          "indexed": false,
          "internalType": "uint256",
          "name": "value",
          "type": "uint256"
        }
      ],
      "name": "CreateDebt",
      "type": "event"
    },
    {
      "anonymous": false,
      "inputs": [
        {
          "indexed": true,
          "internalType": "address",
          "name": "token",
          "type": "address"
        },
        {
          "indexed": false,
          "internalType": "uint256",
          "name": "amount",
          "type": "uint256"
        },
        {
          "indexed": false,
          "internalType": "uint256",
          "name": "value",
          "type": "uint256"
        }
      ],
      "name": "Deposit",
      "type": "event"
    },
    {
      "anonymous": false,
      "inputs": [
        {
          "indexed": true,
          "internalType": "address",
          "name": "previousOwner",
          "type": "address"
        },
        {
          "indexed": true,
          "internalType": "address",
          "name": "newOwner",
          "type": "address"
        }
      ],
      "name": "OwnershipTransferred",
      "type": "event"
    },
    {
      "anonymous": false,
      "inputs": [
        {
          "indexed": true,
          "internalType": "address",
          "name": "debtor",
          "type": "address"
        },
        {
          "indexed": true,
          "internalType": "address",
          "name": "token",
          "type": "address"
        },
        {
          "indexed": false,
          "internalType": "uint256",
          "name": "amount",
          "type": "uint256"
        },
        {
          "indexed": false,
          "internalType": "uint256",
          "name": "value",
          "type": "uint256"
        }
      ],
      "name": "RepayDebt",
      "type": "event"
    },
    {
      "anonymous": false,
      "inputs": [
        {
          "indexed": true,
          "internalType": "uint256",
          "name": "totalReserves",
          "type": "uint256"
        }
      ],
      "name": "ReservesAudited",
      "type": "event"
    },
    {
      "anonymous": false,
      "inputs": [
        {
          "indexed": true,
          "internalType": "address",
          "name": "token",
          "type": "address"
        },
        {
          "indexed": false,
          "internalType": "uint256",
          "name": "amount",
          "type": "uint256"
        }
      ],
      "name": "ReservesManaged",
      "type": "event"
    },
    {
      "anonymous": false,
      "inputs": [
        {
          "indexed": true,
          "internalType": "uint256",
          "name": "totalReserves",
          "type": "uint256"
        }
      ],
      "name": "ReservesUpdated",
      "type": "event"
    },
    {
      "anonymous": false,
      "inputs": [
        {
          "indexed": true,
          "internalType": "address",
          "name": "caller",
          "type": "address"
        },
        {
          "indexed": true,
          "internalType": "address",
          "name": "recipient",
          "type": "address"
        },
        {
          "indexed": false,
          "internalType": "uint256",
          "name": "amount",
          "type": "uint256"
        }
      ],
      "name": "RewardsMinted",
      "type": "event"
    },
    {
      "anonymous": false,
      "inputs": [
        {
          "indexed": true,
          "internalType": "address",
          "name": "token",
          "type": "address"
        },
        {
          "indexed": false,
          "internalType": "uint256",
          "name": "amount",
          "type": "uint256"
        },
        {
          "indexed": false,
          "internalType": "uint256",
          "name": "value",
          "type": "uint256"
        }
      ],
      "name": "Withdrawal",
      "type": "event"
    },
    {
      "inputs": [
        {
          "internalType": "address",
          "name": "",
          "type": "address"
        }
      ],
      "name": "LiquidityDepositorQueue",
      "outputs": [
        {
          "internalType": "uint32",
          "name": "",
          "type": "uint32"
        }
      ],
      "stateMutability": "view",
      "type": "function"
    },
    {
      "inputs": [
        {
          "internalType": "address",
          "name": "",
          "type": "address"
        }
      ],
      "name": "LiquidityManagerQueue",
      "outputs": [
        {
          "internalType": "uint32",
          "name": "",
          "type": "uint32"
        }
      ],
      "stateMutability": "view",
      "type": "function"
    },
    {
      "inputs": [
        {
          "internalType": "address",
          "name": "",
          "type": "address"
        }
      ],
      "name": "LiquidityTokenQueue",
      "outputs": [
        {
          "internalType": "uint32",
          "name": "",
          "type": "uint32"
        }
      ],
      "stateMutability": "view",
      "type": "function"
    },
    {
      "inputs": [],
      "name": "MEMOries",
      "outputs": [
        {
          "internalType": "contract IERC20",
          "name": "",
          "type": "address"
        }
      ],
      "stateMutability": "view",
      "type": "function"
    },
    {
      "inputs": [
        {
          "internalType": "address",
          "name": "",
          "type": "address"
        }
      ],
      "name": "ReserveManagerQueue",
      "outputs": [
        {
          "internalType": "uint32",
          "name": "",
          "type": "uint32"
        }
      ],
      "stateMutability": "view",
      "type": "function"
    },
    {
      "inputs": [],
      "name": "Sab",
      "outputs": [
        {
          "internalType": "contract ISabERC20",
          "name": "",
          "type": "address"
        }
      ],
      "stateMutability": "view",
      "type": "function"
    },
    {
      "inputs": [],
      "name": "auditReserves",
      "outputs": [],
      "stateMutability": "nonpayable",
      "type": "function"
    },
    {
      "inputs": [
        {
          "internalType": "address",
          "name": "",
          "type": "address"
        }
      ],
      "name": "bondCalculator",
      "outputs": [
        {
          "internalType": "address",
          "name": "",
          "type": "address"
        }
      ],
      "stateMutability": "view",
      "type": "function"
    },
    {
      "inputs": [],
      "name": "claimOwnership",
      "outputs": [],
      "stateMutability": "nonpayable",
      "type": "function"
    },
    {
      "inputs": [
        {
          "internalType": "address",
          "name": "",
          "type": "address"
        }
      ],
      "name": "debtorBalance",
      "outputs": [
        {
          "internalType": "uint256",
          "name": "",
          "type": "uint256"
        }
      ],
      "stateMutability": "view",
      "type": "function"
    },
    {
      "inputs": [
        {
          "internalType": "address",
          "name": "",
          "type": "address"
        }
      ],
      "name": "debtorQueue",
      "outputs": [
        {
          "internalType": "uint32",
          "name": "",
          "type": "uint32"
        }
      ],
      "stateMutability": "view",
      "type": "function"
    },
    {
      "inputs": [
        {
          "internalType": "uint256",
          "name": "",
          "type": "uint256"
        }
      ],
      "name": "debtors",
      "outputs": [
        {
          "internalType": "address",
          "name": "",
          "type": "address"
        }
      ],
      "stateMutability": "view",
      "type": "function"
    },
    {
      "inputs": [
        {
          "internalType": "uint256",
          "name": "_amount",
          "type": "uint256"
        },
        {
          "internalType": "address",
          "name": "_token",
          "type": "address"
        },
        {
          "internalType": "uint256",
          "name": "_value",
          "type": "uint256"
        },
        {
          "internalType": "uint256",
          "name": "_payout",
          "type": "uint256"
        }
      ],
      "name": "deposit",
      "outputs": [],
      "stateMutability": "nonpayable",
      "type": "function"
    },
    {
      "inputs": [],
      "name": "excessReserves",
      "outputs": [
        {
          "internalType": "uint256",
          "name": "",
          "type": "uint256"
        }
      ],
      "stateMutability": "view",
      "type": "function"
    },
    {
      "inputs": [
        {
          "internalType": "uint256",
          "name": "_amount",
          "type": "uint256"
        },
        {
          "internalType": "address",
          "name": "_token",
          "type": "address"
        }
      ],
      "name": "incurDebt",
      "outputs": [],
      "stateMutability": "nonpayable",
      "type": "function"
    },
    {
      "inputs": [
        {
          "internalType": "address",
          "name": "",
          "type": "address"
        }
      ],
      "name": "isDebtor",
      "outputs": [
        {
          "internalType": "bool",
          "name": "",
          "type": "bool"
        }
      ],
      "stateMutability": "view",
      "type": "function"
    },
    {
      "inputs": [
        {
          "internalType": "address",
          "name": "",
          "type": "address"
        }
      ],
      "name": "isLiquidityDepositor",
      "outputs": [
        {
          "internalType": "bool",
          "name": "",
          "type": "bool"
        }
      ],
      "stateMutability": "view",
      "type": "function"
    },
    {
      "inputs": [
        {
          "internalType": "address",
          "name": "",
          "type": "address"
        }
      ],
      "name": "isLiquidityManager",
      "outputs": [
        {
          "internalType": "bool",
          "name": "",
          "type": "bool"
        }
      ],
      "stateMutability": "view",
      "type": "function"
    },
    {
      "inputs": [
        {
          "internalType": "address",
          "name": "",
          "type": "address"
        }
      ],
      "name": "isLiquidityToken",
      "outputs": [
        {
          "internalType": "bool",
          "name": "",
          "type": "bool"
        }
      ],
      "stateMutability": "view",
      "type": "function"
    },
    {
      "inputs": [
        {
          "internalType": "address",
          "name": "",
          "type": "address"
        }
      ],
      "name": "isReserveDepositor",
      "outputs": [
        {
          "internalType": "bool",
          "name": "",
          "type": "bool"
        }
      ],
      "stateMutability": "view",
      "type": "function"
    },
    {
      "inputs": [
        {
          "internalType": "address",
          "name": "",
          "type": "address"
        }
      ],
      "name": "isReserveManager",
      "outputs": [
        {
          "internalType": "bool",
          "name": "",
          "type": "bool"
        }
      ],
      "stateMutability": "view",
      "type": "function"
    },
    {
      "inputs": [
        {
          "internalType": "address",
          "name": "",
          "type": "address"
        }
      ],
      "name": "isReserveSpender",
      "outputs": [
        {
          "internalType": "bool",
          "name": "",
          "type": "bool"
        }
      ],
      "stateMutability": "view",
      "type": "function"
    },
    {
      "inputs": [
        {
          "internalType": "address",
          "name": "",
          "type": "address"
        }
      ],
      "name": "isReserveToken",
      "outputs": [
        {
          "internalType": "bool",
          "name": "",
          "type": "bool"
        }
      ],
      "stateMutability": "view",
      "type": "function"
    },
    {
      "inputs": [
        {
          "internalType": "address",
          "name": "",
          "type": "address"
        }
      ],
      "name": "isRewardManager",
      "outputs": [
        {
          "internalType": "bool",
          "name": "",
          "type": "bool"
        }
      ],
      "stateMutability": "view",
      "type": "function"
    },
    {
      "inputs": [
        {
          "internalType": "uint256",
          "name": "",
          "type": "uint256"
        }
      ],
      "name": "liquidityDepositors",
      "outputs": [
        {
          "internalType": "address",
          "name": "",
          "type": "address"
        }
      ],
      "stateMutability": "view",
      "type": "function"
    },
    {
      "inputs": [
        {
          "internalType": "uint256",
          "name": "",
          "type": "uint256"
        }
      ],
      "name": "liquidityManagers",
      "outputs": [
        {
          "internalType": "address",
          "name": "",
          "type": "address"
        }
      ],
      "stateMutability": "view",
      "type": "function"
    },
    {
      "inputs": [
        {
          "internalType": "uint256",
          "name": "",
          "type": "uint256"
        }
      ],
      "name": "liquidityTokens",
      "outputs": [
        {
          "internalType": "address",
          "name": "",
          "type": "address"
        }
      ],
      "stateMutability": "view",
      "type": "function"
    },
    {
      "inputs": [
        {
          "internalType": "address",
          "name": "_token",
          "type": "address"
        },
        {
          "internalType": "uint256",
          "name": "_amount",
          "type": "uint256"
        }
      ],
      "name": "manage",
      "outputs": [],
      "stateMutability": "nonpayable",
      "type": "function"
    },
    {
      "inputs": [
        {
          "internalType": "address",
          "name": "_recipient",
          "type": "address"
        },
        {
          "internalType": "uint256",
          "name": "_amount",
          "type": "uint256"
        }
      ],
      "name": "mintRewards",
      "outputs": [],
      "stateMutability": "nonpayable",
      "type": "function"
    },
    {
      "inputs": [],
      "name": "owner",
      "outputs": [
        {
          "internalType": "address",
          "name": "",
          "type": "address"
        }
      ],
      "stateMutability": "view",
      "type": "function"
    },
    {
      "inputs": [],
      "name": "pendingOwner",
      "outputs": [
        {
          "internalType": "address",
          "name": "",
          "type": "address"
        }
      ],
      "stateMutability": "view",
      "type": "function"
    },
    {
      "inputs": [
        {
          "internalType": "enum SabTreasury.MANAGING",
          "name": "_managing",
          "type": "uint8"
        },
        {
          "internalType": "address",
          "name": "_address",
          "type": "address"
        }
      ],
      "name": "queue",
      "outputs": [
        {
          "internalType": "bool",
          "name": "",
          "type": "bool"
        }
      ],
      "stateMutability": "nonpayable",
      "type": "function"
    },
    {
      "inputs": [
        {
          "internalType": "uint256",
          "name": "_amount",
          "type": "uint256"
        },
        {
          "internalType": "address",
          "name": "_token",
          "type": "address"
        }
      ],
      "name": "repayDebtWithReserve",
      "outputs": [],
      "stateMutability": "nonpayable",
      "type": "function"
    },
    {
      "inputs": [
        {
          "internalType": "uint256",
          "name": "_amount",
          "type": "uint256"
        }
      ],
      "name": "repayDebtWithSab",
      "outputs": [],
      "stateMutability": "nonpayable",
      "type": "function"
    },
    {
      "inputs": [
        {
          "internalType": "address",
          "name": "",
          "type": "address"
        }
      ],
      "name": "reserveDepositorQueue",
      "outputs": [
        {
          "internalType": "uint32",
          "name": "",
          "type": "uint32"
        }
      ],
      "stateMutability": "view",
      "type": "function"
    },
    {
      "inputs": [
        {
          "internalType": "uint256",
          "name": "",
          "type": "uint256"
        }
      ],
      "name": "reserveDepositors",
      "outputs": [
        {
          "internalType": "address",
          "name": "",
          "type": "address"
        }
      ],
      "stateMutability": "view",
      "type": "function"
    },
    {
      "inputs": [
        {
          "internalType": "uint256",
          "name": "",
          "type": "uint256"
        }
      ],
      "name": "reserveManagers",
      "outputs": [
        {
          "internalType": "address",
          "name": "",
          "type": "address"
        }
      ],
      "stateMutability": "view",
      "type": "function"
    },
    {
      "inputs": [
        {
          "internalType": "address",
          "name": "",
          "type": "address"
        }
      ],
      "name": "reserveSpenderQueue",
      "outputs": [
        {
          "internalType": "uint32",
          "name": "",
          "type": "uint32"
        }
      ],
      "stateMutability": "view",
      "type": "function"
    },
    {
      "inputs": [
        {
          "internalType": "uint256",
          "name": "",
          "type": "uint256"
        }
      ],
      "name": "reserveSpenders",
      "outputs": [
        {
          "internalType": "address",
          "name": "",
          "type": "address"
        }
      ],
      "stateMutability": "view",
      "type": "function"
    },
    {
      "inputs": [
        {
          "internalType": "address",
          "name": "",
          "type": "address"
        }
      ],
      "name": "reserveTokenQueue",
      "outputs": [
        {
          "internalType": "uint32",
          "name": "",
          "type": "uint32"
        }
      ],
      "stateMutability": "view",
      "type": "function"
    },
    {
      "inputs": [
        {
          "internalType": "uint256",
          "name": "",
          "type": "uint256"
        }
      ],
      "name": "reserveTokens",
      "outputs": [
        {
          "internalType": "address",
          "name": "",
          "type": "address"
        }
      ],
      "stateMutability": "view",
      "type": "function"
    },
    {
      "inputs": [
        {
          "internalType": "address",
          "name": "",
          "type": "address"
        }
      ],
      "name": "rewardManagerQueue",
      "outputs": [
        {
          "internalType": "uint32",
          "name": "",
          "type": "uint32"
        }
      ],
      "stateMutability": "view",
      "type": "function"
    },
    {
      "inputs": [
        {
          "internalType": "uint256",
          "name": "",
          "type": "uint256"
        }
      ],
      "name": "rewardManagers",
      "outputs": [
        {
          "internalType": "address",
          "name": "",
          "type": "address"
        }
      ],
      "stateMutability": "view",
      "type": "function"
    },
    {
      "inputs": [],
      "name": "sOHMQueue",
      "outputs": [
        {
          "internalType": "uint256",
          "name": "",
          "type": "uint256"
        }
      ],
      "stateMutability": "view",
      "type": "function"
    },
    {
      "inputs": [],
      "name": "secondsNeededForQueue",
      "outputs": [
        {
          "internalType": "uint32",
          "name": "",
          "type": "uint32"
        }
      ],
      "stateMutability": "view",
      "type": "function"
    },
    {
      "inputs": [
        {
          "internalType": "enum SabTreasury.MANAGING",
          "name": "_managing",
          "type": "uint8"
        },
        {
          "internalType": "address",
          "name": "_address",
          "type": "address"
        },
        {
          "internalType": "address",
          "name": "_calculator",
          "type": "address"
        }
      ],
      "name": "toggle",
      "outputs": [
        {
          "internalType": "bool",
          "name": "",
          "type": "bool"
        }
      ],
      "stateMutability": "nonpayable",
      "type": "function"
    },
    {
      "inputs": [],
      "name": "totalDebt",
      "outputs": [
        {
          "internalType": "uint256",
          "name": "",
          "type": "uint256"
        }
      ],
      "stateMutability": "view",
      "type": "function"
    },
    {
      "inputs": [],
      "name": "totalReserves",
      "outputs": [
        {
          "internalType": "uint256",
          "name": "",
          "type": "uint256"
        }
      ],
      "stateMutability": "view",
      "type": "function"
    },
    {
      "inputs": [
        {
          "internalType": "address",
          "name": "newOwner",
          "type": "address"
        },
        {
          "internalType": "bool",
          "name": "direct",
          "type": "bool"
        },
        {
          "internalType": "bool",
          "name": "renounce",
          "type": "bool"
        }
      ],
      "name": "transferOwnership",
      "outputs": [],
      "stateMutability": "nonpayable",
      "type": "function"
    },
    {
      "inputs": [
        {
          "internalType": "address",
          "name": "_token",
          "type": "address"
        },
        {
          "internalType": "uint256",
          "name": "_amount",
          "type": "uint256"
        }
      ],
      "name": "valueOf",
      "outputs": [
        {
          "internalType": "uint256",
          "name": "value_",
          "type": "uint256"
        }
      ],
      "stateMutability": "view",
      "type": "function"
    },
    {
      "inputs": [
        {
          "internalType": "uint256",
          "name": "_amount",
          "type": "uint256"
        },
        {
          "internalType": "address",
          "name": "_token",
          "type": "address"
        }
      ],
      "name": "withdraw",
      "outputs": [],
      "stateMutability": "nonpayable",
      "type": "function"
    }
  ],
  "bytecode": "0x60c060405234801561001057600080fd5b50604051620037be380380620037be8339818101604052606081101561003557600080fd5b508051602080830151604093840151600080546001600160a01b0319163390811782558082526002909452858120805460ff19166001179055945193949193909291907f8be0079c531659141344cd1fd0a4f28419497f9722a3daafe3b4186f6b6457e0908290a36001600160a01b0383166100b057600080fd5b6001600160601b0319606084901b166080526001600160a01b039182166000818152600460205260408120805460ff1916600190811790915560038054918201815582527fc2575a0e9e593c00f959f8c92f12db2869c3395a3b0502d05e2516446f71f85b0180546001600160a01b0319169092179091556001600160e01b031960e083901b1660a052919092169163ffffffff169061360590620001b9903980611a6152806120135280612090528061210d5280612189528061221b52806122985280612314528061239652806124135280612490525080610a5f5280610e6a528061123452806116be52806119655280611bfa5280611cae5280611d9652506136056000f3fe608060405234801561001057600080fd5b50600436106102f05760003560e01c80638da5cb5b1161019d578063d031370b116100e9578063ebd83cd8116100a2578063fbfd393b1161007c578063fbfd393b1461091e578063fc7b9c1814610955578063fd1ec0101461095d578063fff9ee871461097a576102f0565b8063ebd83cd8146108ac578063ee4e19a1146108d2578063fb939588146108f8576102f0565b8063d031370b146107fe578063d4e294681461081b578063d796ffb814610823578063df89b3441461084f578063e30c397814610875578063e83afee31461087d576102f0565b8063a43db85911610156578063b1bd38b011610130578063b1bd38b01461076f578063b5b1d56014610795578063c24ad43e146107b2578063cd85641a146107d8576102f0565b8063a43db85914610706578063a569e57114610723578063ab319c9a14610749576102f0565b80638da5cb5b146106675780638f59c7271461066f5780638f6a7b57146106955780638f840ddd146106b2578063932cc8c3146106ba578063a1210a2d146106e0576102f0565b8063437f79121161025c5780636b5e40a711610215578063788c6c01116101ef578063788c6c01146105dd5780637a8960d81461061c578063869871bf1461062457806387d67dff14610641576102f0565b80636b5e40a71461056b5780636f0372af1461058857806370a0502a146105c0576102f0565b8063437f7912146104c657806349880e52146104e35780634e71e0c8146104eb5780634e83423c146104f357806368c31dd5146105195780636a20de921461053f576102f0565b8063124154ca116102ae578063124154ca146103fe57806312422d23146104385780631af4da70146104645780631eec5a9a1461048a5780632789de37146104b65780632b7ce500146104be576102f0565b8062f714ce146102f55780630619aff114610323578063078dfbe71461035c578063094a8651146103925780630b0eee30146103ca5780630c3513a8146103f6575b600080fd5b6103216004803603604081101561030b57600080fd5b50803590602001356001600160a01b03166109a0565b005b6103406004803603602081101561033957600080fd5b5035610b72565b604080516001600160a01b039092168252519081900360200190f35b6103216004803603606081101561037257600080fd5b506001600160a01b03813516906020810135151590604001351515610b9c565b6103b8600480360360208110156103a857600080fd5b50356001600160a01b0316610cef565b60408051918252519081900360200190f35b610321600480360360408110156103e057600080fd5b506001600160a01b038135169060200135610d01565b6103b8610e5d565b6104246004803603602081101561041457600080fd5b50356001600160a01b0316610f01565b604080519115158252519081900360200190f35b6103216004803603604081101561044e57600080fd5b50803590602001356001600160a01b0316610f16565b6103406004803603602081101561047a57600080fd5b50356001600160a01b0316611169565b6103b8600480360360408110156104a057600080fd5b506001600160a01b038135169060200135611184565b6103b8611378565b61032161137e565b610340600480360360208110156104dc57600080fd5b5035611546565b610340611556565b610321611565565b6104246004803603602081101561050957600080fd5b50356001600160a01b031661163f565b6104246004803603602081101561052f57600080fd5b50356001600160a01b0316611654565b6103216004803603604081101561055557600080fd5b506001600160a01b038135169060200135611669565b6103406004803603602081101561058157600080fd5b503561178f565b6103216004803603608081101561059e57600080fd5b508035906001600160a01b03602082013516906040810135906060013561179f565b610340600480360360208110156105d657600080fd5b5035611a37565b610603600480360360208110156105f357600080fd5b50356001600160a01b0316611a47565b6040805163ffffffff9092168252519081900360200190f35b610603611a5f565b6103406004803603602081101561063a57600080fd5b5035611a83565b6104246004803603602081101561065757600080fd5b50356001600160a01b0316611a93565b610340611aa8565b6106036004803603602081101561068557600080fd5b50356001600160a01b0316611ab7565b610340600480360360208110156106ab57600080fd5b5035611acf565b6103b8611adf565b610603600480360360208110156106d057600080fd5b50356001600160a01b0316611ae5565b610424600480360360208110156106f657600080fd5b50356001600160a01b0316611afd565b6103216004803603602081101561071c57600080fd5b5035611b12565b6104246004803603602081101561073957600080fd5b50356001600160a01b0316611cff565b6106036004803603602081101561075f57600080fd5b50356001600160a01b0316611d14565b6106036004803603602081101561078557600080fd5b50356001600160a01b0316611d2c565b610340600480360360208110156107ab57600080fd5b5035611d44565b610603600480360360208110156107c857600080fd5b50356001600160a01b0316611d54565b610603600480360360208110156107ee57600080fd5b50356001600160a01b0316611d6c565b6103406004803603602081101561081457600080fd5b5035611d84565b610340611d94565b6103216004803603604081101561083957600080fd5b50803590602001356001600160a01b0316611db8565b6104246004803603602081101561086557600080fd5b50356001600160a01b0316611f3b565b610340611f50565b6104246004803603604081101561089357600080fd5b50803560ff1690602001356001600160a01b0316611f5f565b610424600480360360208110156108c257600080fd5b50356001600160a01b031661251d565b610424600480360360208110156108e857600080fd5b50356001600160a01b0316612532565b6106036004803603602081101561090e57600080fd5b50356001600160a01b0316612547565b6104246004803603606081101561093457600080fd5b5060ff813516906001600160a01b036020820135811691604001351661255f565b6103b8612fc0565b6103406004803603602081101561097357600080fd5b5035612fc6565b6106036004803603602081101561099057600080fd5b50356001600160a01b0316612fd6565b6001600160a01b03811660009081526004602052604090205460ff166109fc576040805162461bcd60e51b815260206004820152600c60248201526b139bdd081858d8d95c1d195960a21b604482015290519081900360640190fd5b336000908152600a602052604090205460ff16610a4f576040805162461bcd60e51b815260206004820152600c60248201526b139bdd08185c1c1c9bdd995960a21b604482015290519081900360640190fd5b6000610a5b8284611184565b90507f00000000000000000000000000000000000000000000000000000000000000006001600160a01b03166379cc679033836040518363ffffffff1660e01b815260040180836001600160a01b0316815260200182815260200192505050600060405180830381600087803b158015610ad457600080fd5b505af1158015610ae8573d6000803e3d6000fd5b5050602254610afa9250905082612fee565b602281905560405160008051602061356283398151915290600090a2610b2a6001600160a01b0383163385612ffe565b604080518481526020810183905281516001600160a01b038516927fdf273cb619d95419a9cd0ec88123a0538c85064229baa6363788f743fff90deb928290030190a2505050565b60138181548110610b8257600080fd5b6000918252602090912001546001600160a01b0316905081565b3360009081526002602052604090205460ff16610bee576040805162461bcd60e51b81526020600482018190526024820152600080516020613521833981519152604482015290519081900360640190fd5b8115610cce576001600160a01b038316151580610c085750805b610c51576040805162461bcd60e51b81526020600482015260156024820152744f776e61626c653a207a65726f206164647265737360581b604482015290519081900360640190fd5b600080546040516001600160a01b03808716939216917f8be0079c531659141344cd1fd0a4f28419497f9722a3daafe3b4186f6b6457e091a3600080546001600160a01b0385166001600160a01b031991821681178355825260026020526040909120805460ff1916600190811790915580549091169055610cea565b600180546001600160a01b0319166001600160a01b0385161790555b505050565b601c6020526000908152604090205481565b6000610d0d8383611184565b6001600160a01b0384166000908152600d602052604090205490915060ff1615610d89573360009081526017602052604090205460ff16610d84576040805162461bcd60e51b815260206004820152600c60248201526b139bdd08185c1c1c9bdd995960a21b604482015290519081900360640190fd5b610ddc565b3360009081526014602052604090205460ff16610ddc576040805162461bcd60e51b815260206004820152600c60248201526b139bdd08185c1c1c9bdd995960a21b604482015290519081900360640190fd5b602254610de99082612fee565b602281905560405160008051602061356283398151915290600090a2610e196001600160a01b0384163384612ffe565b6040805183815290516001600160a01b038516917f2bb2640731848fe9820ba48dbc978c1fc9bbd5f11b948bfab05b7dee3378fd80919081900360200190a2505050565b6000610efc610ef36023547f00000000000000000000000000000000000000000000000000000000000000006001600160a01b03166318160ddd6040518163ffffffff1660e01b815260040160206040518083038186803b158015610ec157600080fd5b505afa158015610ed5573d6000803e3d6000fd5b505050506040513d6020811015610eeb57600080fd5b505190612fee565b60225490612fee565b905090565b60076020526000908152604090205460ff1681565b336000908152601a602052604090205460ff16610f69576040805162461bcd60e51b815260206004820152600c60248201526b139bdd08185c1c1c9bdd995960a21b604482015290519081900360640190fd5b6001600160a01b03811660009081526004602052604090205460ff16610fc5576040805162461bcd60e51b815260206004820152600c60248201526b139bdd081858d8d95c1d195960a21b604482015290519081900360640190fd5b6000610fd18284611184565b60208054604080516370a0823160e01b815233600482015290519394506000936001600160a01b03909216926370a0823192602480840193829003018186803b15801561101d57600080fd5b505afa158015611031573d6000803e3d6000fd5b505050506040513d602081101561104757600080fd5b5051336000908152601c60205260408120549192506110668383612fee565b9050808411156110b2576040805162461bcd60e51b8152602060048201526012602482015271115e18d959591cc81919589d081b1a5b5a5d60721b604482015290519081900360640190fd5b6110bc8285613050565b336000908152601c60205260409020556023546110d99085613050565b6023556022546110e99085612fee565b602281905560405160008051602061356283398151915290600090a26111196001600160a01b0386163388612ffe565b604080518781526020810186905281516001600160a01b0388169233927f7e1a939bed137a819b5d2979822c67f877689f7a863d5e4cb57cdca97b2977d6929081900390910190a3505050505050565b6012602052600090815260409020546001600160a01b031681565b6001600160a01b03821660009081526004602052604081205460ff16156112c1576112ba836001600160a01b031663313ce5676040518163ffffffff1660e01b815260040160206040518083038186803b1580156111e157600080fd5b505afa1580156111f5573d6000803e3d6000fd5b505050506040513d602081101561120b57600080fd5b50516040805163313ce56760e01b8152905160ff909216600a0a916112b4916001600160a01b037f0000000000000000000000000000000000000000000000000000000000000000169163313ce56791600480820192602092909190829003018186803b15801561127b57600080fd5b505afa15801561128f573d6000803e3d6000fd5b505050506040513d60208110156112a557600080fd5b5051859060ff16600a0a613060565b90613084565b9050611372565b6001600160a01b0383166000908152600d602052604090205460ff1615611372576001600160a01b03808416600081815260126020908152604091829020548251634249719f60e01b815260048101949094526024840187905291519190931692634249719f9260448082019391829003018186803b15801561134357600080fd5b505afa158015611357573d6000803e3d6000fd5b505050506040513d602081101561136d57600080fd5b505190505b92915050565b60215481565b3360009081526002602052604090205460ff166113d0576040805162461bcd60e51b81526020600482018190526024820152600080516020613521833981519152604482015290519081900360640190fd5b6000805b6003548110156114a85761149e611497600383815481106113f157fe5b600091825260209091200154600380546001600160a01b03909216918590811061141757fe5b60009182526020918290200154604080516370a0823160e01b815230600482015290516001600160a01b03909216926370a0823192602480840193829003018186803b15801561146657600080fd5b505afa15801561147a573d6000803e3d6000fd5b505050506040513d602081101561149057600080fd5b5051611184565b8390613050565b91506001016113d4565b5060005b600c548110156114f9576114ef611497600c83815481106114c957fe5b600091825260209091200154600c80546001600160a01b03909216918590811061141757fe5b91506001016114ac565b506022819055604051819060008051602061356283398151915290600090a260405181907fec691f09f6924b27932253f85caf99bacc30360cc0e50a1cc4d2acc24601446690600090a250565b60098181548110610b8257600080fd5b6020546001600160a01b031681565b6001546001600160a01b03163381146115c5576040805162461bcd60e51b815260206004820181905260248201527f4f776e61626c653a2063616c6c657220213d2070656e64696e67206f776e6572604482015290519081900360640190fd5b600080546040516001600160a01b03808516939216917f8be0079c531659141344cd1fd0a4f28419497f9722a3daafe3b4186f6b6457e091a3600080546001600160a01b039092166001600160a01b0319928316811782558152600260205260409020805460ff1916600190811790915580549091169055565b601e6020526000908152604090205460ff1681565b60046020526000908152604090205460ff1681565b336000908152601e602052604090205460ff166116bc576040805162461bcd60e51b815260206004820152600c60248201526b139bdd08185c1c1c9bdd995960a21b604482015290519081900360640190fd5b7f00000000000000000000000000000000000000000000000000000000000000006001600160a01b03166340c10f1983836040518363ffffffff1660e01b815260040180836001600160a01b0316815260200182815260200192505050600060405180830381600087803b15801561173357600080fd5b505af1158015611747573d6000803e3d6000fd5b50506040805184815290516001600160a01b03861693503392507ffa8ccab40e7da8146c2304cd0950334fd30a6ba093abe86261aa13911fed849c9181900360200190a35050565b60068181548110610b8257600080fd5b6001600160a01b03831660009081526004602052604090205460ff16806117de57506001600160a01b0383166000908152600d602052604090205460ff165b61181e576040805162461bcd60e51b815260206004820152600c60248201526b139bdd081858d8d95c1d195960a21b604482015290519081900360640190fd5b6118336001600160a01b0384163330876130a3565b6001600160a01b03831660009081526004602052604090205460ff16156118ac573360009081526007602052604090205460ff166118a7576040805162461bcd60e51b815260206004820152600c60248201526b139bdd08185c1c1c9bdd995960a21b604482015290519081900360640190fd5b6118ff565b3360009081526010602052604090205460ff166118ff576040805162461bcd60e51b815260206004820152600c60248201526b139bdd08185c1c1c9bdd995960a21b604482015290519081900360640190fd5b8082111561193e5760405162461bcd60e51b81526004018080602001828103825260248152602001806135826024913960400191505060405180910390fd5b604080516340c10f1960e01b81523360048201526024810183905290516001600160a01b037f000000000000000000000000000000000000000000000000000000000000000016916340c10f1991604480830192600092919082900301818387803b1580156119ac57600080fd5b505af11580156119c0573d6000803e3d6000fd5b50506022546119d29250905083613050565b602281905560405160008051602061356283398151915290600090a2604080518581526020810184905281516001600160a01b038616927f90890809c654f11d6e72a28fa60149770a0d11ec6c92319d6ceb2bb0a4ea1a15928290030190a250505050565b60168181548110610b8257600080fd5b60056020526000908152604090205463ffffffff1681565b7f000000000000000000000000000000000000000000000000000000000000000081565b60198181548110610b8257600080fd5b600a6020526000908152604090205460ff1681565b6000546001600160a01b031681565b600e6020526000908152604090205463ffffffff1681565b600f8181548110610b8257600080fd5b60225481565b60086020526000908152604090205463ffffffff1681565b60106020526000908152604090205460ff1681565b336000908152601a602052604090205460ff16611b6f576040805162461bcd60e51b81526020600482015260166024820152752737ba1030b8383937bb32b21030b9903232b13a37b960511b604482015290519081900360640190fd5b336000908152600a602052604090205460ff16611bd3576040805162461bcd60e51b815260206004820152601760248201527f4e6f7420617070726f766564206173207370656e646572000000000000000000604482015290519081900360640190fd5b6040805163079cc67960e41b81523360048201526024810183905290516001600160a01b037f000000000000000000000000000000000000000000000000000000000000000016916379cc679091604480830192600092919082900301818387803b158015611c4157600080fd5b505af1158015611c55573d6000803e3d6000fd5b5050336000908152601c6020526040902054611c749250905082612fee565b336000908152601c6020526040902055602354611c919082612fee565b602355604080518281526020810183905281516001600160a01b037f0000000000000000000000000000000000000000000000000000000000000000169233927fc6d98eecfc9c78ab62c89a82950079b54874749f1f6f24090f7acc758bc2f309929081900390910190a350565b600d6020526000908152604090205460ff1681565b60186020526000908152604090205463ffffffff1681565b60156020526000908152604090205463ffffffff1681565b601d8181548110610b8257600080fd5b600b6020526000908152604090205463ffffffff1681565b601b6020526000908152604090205463ffffffff1681565b60038181548110610b8257600080fd5b7f000000000000000000000000000000000000000000000000000000000000000081565b336000908152601a602052604090205460ff16611e0b576040805162461bcd60e51b815260206004820152600c60248201526b139bdd08185c1c1c9bdd995960a21b604482015290519081900360640190fd5b6001600160a01b03811660009081526004602052604090205460ff16611e67576040805162461bcd60e51b815260206004820152600c60248201526b139bdd081858d8d95c1d195960a21b604482015290519081900360640190fd5b611e7c6001600160a01b0382163330856130a3565b6000611e888284611184565b336000908152601c6020526040902054909150611ea59082612fee565b336000908152601c6020526040902055602354611ec29082612fee565b602355602254611ed29082613050565b602281905560405160008051602061356283398151915290600090a2604080518481526020810183905281516001600160a01b0385169233927fc6d98eecfc9c78ab62c89a82950079b54874749f1f6f24090f7acc758bc2f309929081900390910190a3505050565b60176020526000908152604090205460ff1681565b6001546001600160a01b031681565b3360009081526002602052604081205460ff16611fb1576040805162461bcd60e51b81526020600482018190526024820152600080516020613521833981519152604482015290519081900360640190fd5b6001600160a01b038216611ff1576040805162461bcd60e51b8152602060048201526002602482015261494160f01b604482015290519081900360640190fd5b6000836009811115611fff57fe5b141561206e5761203963ffffffff428116907f00000000000000000000000000000000000000000000000000000000000000009061310316565b6001600160a01b0383166000908152600860205260409020805463ffffffff191663ffffffff929092169190911790556124cc565b600183600981111561207c57fe5b14156120eb576120b663ffffffff428116907f00000000000000000000000000000000000000000000000000000000000000009061310316565b6001600160a01b0383166000908152600b60205260409020805463ffffffff191663ffffffff929092169190911790556124cc565b60028360098111156120f957fe5b14156121685761213363ffffffff428116907f00000000000000000000000000000000000000000000000000000000000000009061310316565b6001600160a01b0383166000908152600560205260409020805463ffffffff191663ffffffff929092169190911790556124cc565b600383600981111561217657fe5b14156121f9576121c46121b463ffffffff7f000000000000000000000000000000000000000000000000000000000000000081169060029061311c16565b63ffffffff428116919061310316565b6001600160a01b0383166000908152601560205260409020805463ffffffff191663ffffffff929092169190911790556124cc565b600483600981111561220757fe5b14156122765761224163ffffffff428116907f00000000000000000000000000000000000000000000000000000000000000009061310316565b6001600160a01b0383166000908152601160205260409020805463ffffffff191663ffffffff929092169190911790556124cc565b600583600981111561228457fe5b14156122f3576122be63ffffffff428116907f00000000000000000000000000000000000000000000000000000000000000009061310316565b6001600160a01b0383166000908152600e60205260409020805463ffffffff191663ffffffff929092169190911790556124cc565b600683600981111561230157fe5b14156123745761233f6121b463ffffffff7f000000000000000000000000000000000000000000000000000000000000000081169060029061311c16565b6001600160a01b0383166000908152601860205260409020805463ffffffff191663ffffffff929092169190911790556124cc565b600783600981111561238257fe5b14156123f1576123bc63ffffffff428116907f00000000000000000000000000000000000000000000000000000000000000009061310316565b6001600160a01b0383166000908152601b60205260409020805463ffffffff191663ffffffff929092169190911790556124cc565b60088360098111156123ff57fe5b141561246e5761243963ffffffff428116907f00000000000000000000000000000000000000000000000000000000000000009061310316565b6001600160a01b0383166000908152601f60205260409020805463ffffffff191663ffffffff929092169190911790556124cc565b600983600981111561247c57fe5b14156124c4576124b663ffffffff428116907f00000000000000000000000000000000000000000000000000000000000000009061310316565b63ffffffff166021556124cc565b506000611372565b8260098111156124d857fe5b604080516001600160a01b038516815290517f0e4f2c4b5bc209d509bc3d49348c787fefadc66a79351b470599ac0f5be52eaf9181900360200190a250600192915050565b60146020526000908152604090205460ff1681565b601a6020526000908152604090205460ff1681565b601f6020526000908152604090205463ffffffff1681565b3360009081526002602052604081205460ff166125b1576040805162461bcd60e51b81526020600482018190526024820152600080516020613521833981519152604482015290519081900360640190fd5b6001600160a01b0383166125f1576040805162461bcd60e51b8152602060048201526002602482015261494160f01b604482015290519081900360640190fd5b60008085600981111561260057fe5b14156126c657612613600860078661315e565b15612696576001600160a01b0384166000908152600860205260409020805463ffffffff19169055612646600685613257565b61269657600680546001810182556000919091527ff652222313e28459528d920b65115c16c04f3efc82aaedc97be59f3f377c0d3f0180546001600160a01b0319166001600160a01b0386161790555b506001600160a01b0383166000908152600760205260409020805460ff81161560ff199091168117909155612f62565b60018560098111156126d457fe5b141561279a576126e7600b600a8661315e565b1561276a576001600160a01b0384166000908152600b60205260409020805463ffffffff1916905561271a600985613257565b61276a57600980546001810182556000919091527f6e1540171b6c0c960b71a7020d9f60077f6af931a8bbf590da0223dacf75c7af0180546001600160a01b0319166001600160a01b0386161790555b506001600160a01b0383166000908152600a60205260409020805460ff81161560ff199091168117909155612f62565b60028560098111156127a857fe5b14156128fc576127bb600560048661315e565b15612854576001600160a01b0384166000908152600560205260409020805463ffffffff191690556127ee600385613257565b1580156128035750612801600c85613257565b155b1561285457600380546001810182556000919091527fc2575a0e9e593c00f959f8c92f12db2869c3395a3b0502d05e2516446f71f85b0180546001600160a01b0319166001600160a01b0386161790555b506001600160a01b03831660009081526004602052604090205460ff161580158061289857506001600160a01b0384166000908152600d602052604090205460ff16155b6128d35760405162461bcd60e51b81526004018080602001828103825260218152602001806135416021913960400191505060405180910390fd5b6001600160a01b0384166000908152600460205260409020805460ff1916821515179055612f62565b600385600981111561290a57fe5b1415612a0d5761291d601560148661315e565b156129dd57601380546001810182557f66de8ffda797e3de9c05e8fc57b3bf0ec28a930d40b0d285d93c06501cf6a0900180546001600160a01b0319166001600160a01b0387169081179091556000908152601560205260409020805463ffffffff1916905561298d9085613257565b6129dd57601380546001810182556000919091527f66de8ffda797e3de9c05e8fc57b3bf0ec28a930d40b0d285d93c06501cf6a0900180546001600160a01b0319166001600160a01b0386161790555b506001600160a01b0383166000908152601460205260409020805460ff81161560ff199091168117909155612f62565b6004856009811115612a1b57fe5b1415612b1e57612a2e601160108661315e565b15612aee57600f80546001810182557f8d1108e10bcb7c27dddfc02ed9d693a074039d026cf4ea4240b40f7d581ac8020180546001600160a01b0319166001600160a01b0387169081179091556000908152601160205260409020805463ffffffff19169055612a9e9085613257565b612aee57600f80546001810182556000919091527f8d1108e10bcb7c27dddfc02ed9d693a074039d026cf4ea4240b40f7d581ac8020180546001600160a01b0319166001600160a01b0386161790555b506001600160a01b0383166000908152601060205260409020805460ff81161560ff199091168117909155612f62565b6005856009811115612b2c57fe5b1415612ca057612b3f600e600d8661315e565b15612bd8576001600160a01b0384166000908152600e60205260409020805463ffffffff19169055612b72600c85613257565b158015612b875750612b85600385613257565b155b15612bd857600c80546001810182556000919091527fdf6966c971051c3d54ec59162606531493a51404a002842f56009d7e5cf4a8c70180546001600160a01b0319166001600160a01b0386161790555b506001600160a01b0383166000908152600d602052604090205460ff1615801580612c1c57506001600160a01b03841660009081526004602052604090205460ff16155b612c575760405162461bcd60e51b81526004018080602001828103825260218152602001806135416021913960400191505060405180910390fd5b6001600160a01b038481166000908152600d60209081526040808320805460ff19168615151790556012909152902080546001600160a01b031916918516919091179055612f62565b6006856009811115612cae57fe5b1415612d7457612cc1601860178661315e565b15612d44576001600160a01b0384166000908152601860205260409020805463ffffffff19169055612cf4601685613257565b612d4457601680546001810182556000919091527fd833147d7dc355ba459fc788f669e58cfaf9dc25ddcd0702e87d69c7b51242890180546001600160a01b0319166001600160a01b0386161790555b506001600160a01b0383166000908152601760205260409020805460ff81161560ff199091168117909155612f62565b6007856009811115612d8257fe5b1415612e4857612d95601b601a8661315e565b15612e18576001600160a01b0384166000908152601b60205260409020805463ffffffff19169055612dc8601985613257565b612e1857601980546001810182556000919091527f944998273e477b495144fb8794c914197f3ccb46be2900f4698fd0ef743c96950180546001600160a01b0319166001600160a01b0386161790555b506001600160a01b0383166000908152601a60205260409020805460ff81161560ff199091168117909155612f62565b6008856009811115612e5657fe5b1415612f1c57612e69601f601e8661315e565b15612eec576001600160a01b0384166000908152601f60205260409020805463ffffffff19169055612e9c601d85613257565b612eec57601d80546001810182556000919091527f6d4407e7be21f808e6509aa9fa9143369579dd7d760fe20a2c09680fc146134f0180546001600160a01b0319166001600160a01b0386161790555b506001600160a01b0383166000908152601e60205260409020805460ff81161560ff199091168117909155612f62565b6009856009811115612f2a57fe5b1415612f5857506000602155602080546001600160a01b0319166001600160a01b0385161790556001612f62565b6000915050612fb9565b846009811115612f6e57fe5b604080516001600160a01b0387168152831515602082015281517f0dcacb7e392f3d6a216ed2660e3dcfd40b7793d33591db2ba185a6b8e44fc477929181900390910190a260019150505b9392505050565b60235481565b600c8181548110610b8257600080fd5b60116020526000908152604090205463ffffffff1681565b8082038281111561137257600080fd5b604080516001600160a01b038416602482015260448082018490528251808303909101815260649091019091526020810180516001600160e01b031663a9059cbb60e01b179052610cea9084906132a7565b8082018281101561137257600080fd5b600082158061307b5750508181028183828161307857fe5b04145b61137257600080fd5b600080821161309257600080fd5b81838161309b57fe5b049392505050565b604080516001600160a01b0380861660248301528416604482015260648082018490528251808303909101815260849091019091526020810180516001600160e01b03166323b872dd60e01b1790526130fd9085906132a7565b50505050565b80820163ffffffff808416908216101561137257600080fd5b600063ffffffff8316158061307b57508163ffffffff168363ffffffff1683850292508263ffffffff168161314d57fe5b0463ffffffff161461137257600080fd5b6001600160a01b03811660009081526020839052604081205460ff1661324d576001600160a01b03821660009081526020859052604090205463ffffffff166131db576040805162461bcd60e51b815260206004820152600a6024820152694d75737420717565756560b01b604482015290519081900360640190fd5b6001600160a01b03821660009081526020859052604090205463ffffffff42811691161115613245576040805162461bcd60e51b8152602060048201526011602482015270145d595d59481b9bdd08195e1c1a5c9959607a1b604482015290519081900360640190fd5b506001612fb9565b5060009392505050565b6000805b835481101561324d57826001600160a01b031684828154811061327a57fe5b6000918252602090912001546001600160a01b0316141561329f576001915050611372565b60010161325b565b60606132fc826040518060400160405280602081526020017f5361666545524332303a206c6f772d6c6576656c2063616c6c206661696c6564815250856001600160a01b03166133589092919063ffffffff16565b805190915015610cea5780806020019051602081101561331b57600080fd5b5051610cea5760405162461bcd60e51b815260040180806020018281038252602a8152602001806135a6602a913960400191505060405180910390fd5b6060613367848460008561336f565b949350505050565b606061337a8561351a565b6133cb576040805162461bcd60e51b815260206004820152601d60248201527f416464726573733a2063616c6c20746f206e6f6e2d636f6e7472616374000000604482015290519081900360640190fd5b60006060866001600160a01b031685876040518082805190602001908083835b6020831061340a5780518252601f1990920191602091820191016133eb565b6001836020036101000a03801982511681845116808217855250505050505090500191505060006040518083038185875af1925050503d806000811461346c576040519150601f19603f3d011682016040523d82523d6000602084013e613471565b606091505b509150915081156134855791506133679050565b8051156134955780518082602001fd5b8360405162461bcd60e51b81526004018080602001828103825283818151815260200191508051906020019080838360005b838110156134df5781810151838201526020016134c7565b50505050905090810190601f16801561350c5780820380516001836020036101000a031916815260200191505b509250505060405180910390fd5b3b15159056fe4f776e61626c653a2063616c6c6572206973206e6f7420746865206f776e6572446f206e6f742061646420746f20626f7468207479706573206f6620746f6b656e93bb8edd35984706eee1b92541281f7f62d33c01c5b2ec0929a113603bd21d665061796f7574206d6f7265207468616e207265736572766520746f6b656e2076616c75655361666545524332303a204552433230206f7065726174696f6e20646964206e6f742073756363656564a26469706673582212208cab7b24a5740eca932051429edd9f4e433ff5f0f5328c07f2906ad2e6dd7a5964736f6c63430007050033",
  "linkReferences": {},
  "deployedLinkReferences": {}
}