{
  "_format": "hh-sol-artifact-1",
  "contractName": "SSabERC20Token",
  "sourceName": "contracts/SSabERC20.sol",
  "abi": [
    {
      "inputs": [],
      "stateMutability": "nonpayable",
      "type": "constructor"
    },
    {
      "anonymous": false,
      "inputs": [
        {
          "indexed": true,
          "internalType": "address",
          "name": "owner",
          "type": "address"
        },
        {
          "indexed": true,
          "internalType": "address",
          "name": "spender",
          "type": "address"
        },
        {
          "indexed": false,
          "internalType": "uint256",
          "name": "value",
          "type": "uint256"
        }
      ],
      "name": "Approval",
      "type": "event"
    },
    {
      "anonymous": false,
      "inputs": [
        {
          "indexed": true,
          "internalType": "uint256",
          "name": "epoch",
          "type": "uint256"
        },
        {
          "indexed": false,
          "internalType": "uint256",
          "name": "rebase",
          "type": "uint256"
        },
        {
          "indexed": false,
          "internalType": "uint256",
          "name": "index",
          "type": "uint256"
        }
      ],
      "name": "LogRebase",
      "type": "event"
    },
    {
      "anonymous": false,
      "inputs": [
        {
          "indexed": true,
          "internalType": "uint256",
          "name": "index",
          "type": "uint256"
        }
      ],
      "name": "LogSetIndex",
      "type": "event"
    },
    {
      "anonymous": false,
      "inputs": [
        {
          "indexed": false,
          "internalType": "address",
          "name": "stakingContract",
          "type": "address"
        }
      ],
      "name": "LogStakingContractUpdated",
      "type": "event"
    },
    {
      "anonymous": false,
      "inputs": [
        {
          "indexed": true,
          "internalType": "uint256",
          "name": "epoch",
          "type": "uint256"
        },
        {
          "indexed": false,
          "internalType": "uint256",
          "name": "timestamp",
          "type": "uint256"
        },
        {
          "indexed": false,
          "internalType": "uint256",
          "name": "totalSupply",
          "type": "uint256"
        }
      ],
      "name": "LogSupply",
      "type": "event"
    },
    {
      "anonymous": false,
      "inputs": [
        {
          "indexed": true,
          "internalType": "address",
          "name": "previousOwner",
          "type": "address"
        },
        {
          "indexed": true,
          "internalType": "address",
          "name": "newOwner",
          "type": "address"
        }
      ],
      "name": "OwnershipTransferred",
      "type": "event"
    },
    {
      "anonymous": false,
      "inputs": [
        {
          "indexed": true,
          "internalType": "address",
          "name": "from",
          "type": "address"
        },
        {
          "indexed": true,
          "internalType": "address",
          "name": "to",
          "type": "address"
        },
        {
          "indexed": false,
          "internalType": "uint256",
          "name": "value",
          "type": "uint256"
        }
      ],
      "name": "Transfer",
      "type": "event"
    },
    {
      "inputs": [],
      "name": "DOMAIN_SEPARATOR",
      "outputs": [
        {
          "internalType": "bytes32",
          "name": "",
          "type": "bytes32"
        }
      ],
      "stateMutability": "view",
      "type": "function"
    },
    {
      "inputs": [],
      "name": "INDEX",
      "outputs": [
        {
          "internalType": "uint256",
          "name": "",
          "type": "uint256"
        }
      ],
      "stateMutability": "view",
      "type": "function"
    },
    {
      "inputs": [],
      "name": "PERMIT_TYPEHASH",
      "outputs": [
        {
          "internalType": "bytes32",
          "name": "",
          "type": "bytes32"
        }
      ],
      "stateMutability": "view",
      "type": "function"
    },
    {
      "inputs": [
        {
          "internalType": "address",
          "name": "owner_",
          "type": "address"
        },
        {
          "internalType": "address",
          "name": "spender",
          "type": "address"
        }
      ],
      "name": "allowance",
      "outputs": [
        {
          "internalType": "uint256",
          "name": "",
          "type": "uint256"
        }
      ],
      "stateMutability": "view",
      "type": "function"
    },
    {
      "inputs": [
        {
          "internalType": "address",
          "name": "spender",
          "type": "address"
        },
        {
          "internalType": "uint256",
          "name": "value",
          "type": "uint256"
        }
      ],
      "name": "approve",
      "outputs": [
        {
          "internalType": "bool",
          "name": "",
          "type": "bool"
        }
      ],
      "stateMutability": "nonpayable",
      "type": "function"
    },
    {
      "inputs": [
        {
          "internalType": "uint256",
          "name": "gons",
          "type": "uint256"
        }
      ],
      "name": "balanceForGons",
      "outputs": [
        {
          "internalType": "uint256",
          "name": "",
          "type": "uint256"
        }
      ],
      "stateMutability": "view",
      "type": "function"
    },
    {
      "inputs": [
        {
          "internalType": "address",
          "name": "who",
          "type": "address"
        }
      ],
      "name": "balanceOf",
      "outputs": [
        {
          "internalType": "uint256",
          "name": "",
          "type": "uint256"
        }
      ],
      "stateMutability": "view",
      "type": "function"
    },
    {
      "inputs": [],
      "name": "circulatingSupply",
      "outputs": [
        {
          "internalType": "uint256",
          "name": "",
          "type": "uint256"
        }
      ],
      "stateMutability": "view",
      "type": "function"
    },
    {
      "inputs": [],
      "name": "claimOwnership",
      "outputs": [],
      "stateMutability": "nonpayable",
      "type": "function"
    },
    {
      "inputs": [],
      "name": "decimals",
      "outputs": [
        {
          "internalType": "uint8",
          "name": "",
          "type": "uint8"
        }
      ],
      "stateMutability": "view",
      "type": "function"
    },
    {
      "inputs": [
        {
          "internalType": "address",
          "name": "spender",
          "type": "address"
        },
        {
          "internalType": "uint256",
          "name": "subtractedValue",
          "type": "uint256"
        }
      ],
      "name": "decreaseAllowance",
      "outputs": [
        {
          "internalType": "bool",
          "name": "",
          "type": "bool"
        }
      ],
      "stateMutability": "nonpayable",
      "type": "function"
    },
    {
      "inputs": [
        {
          "internalType": "uint256",
          "name": "amount",
          "type": "uint256"
        }
      ],
      "name": "gonsForBalance",
      "outputs": [
        {
          "internalType": "uint256",
          "name": "",
          "type": "uint256"
        }
      ],
      "stateMutability": "view",
      "type": "function"
    },
    {
      "inputs": [
        {
          "internalType": "address",
          "name": "spender",
          "type": "address"
        },
        {
          "internalType": "uint256",
          "name": "addedValue",
          "type": "uint256"
        }
      ],
      "name": "increaseAllowance",
      "outputs": [
        {
          "internalType": "bool",
          "name": "",
          "type": "bool"
        }
      ],
      "stateMutability": "nonpayable",
      "type": "function"
    },
    {
      "inputs": [],
      "name": "index",
      "outputs": [
        {
          "internalType": "uint256",
          "name": "",
          "type": "uint256"
        }
      ],
      "stateMutability": "view",
      "type": "function"
    },
    {
      "inputs": [
        {
          "internalType": "address",
          "name": "stakingContract_",
          "type": "address"
        }
      ],
      "name": "initialize",
      "outputs": [
        {
          "internalType": "bool",
          "name": "",
          "type": "bool"
        }
      ],
      "stateMutability": "nonpayable",
      "type": "function"
    },
    {
      "inputs": [],
      "name": "initializer",
      "outputs": [
        {
          "internalType": "address",
          "name": "",
          "type": "address"
        }
      ],
      "stateMutability": "view",
      "type": "function"
    },
    {
      "inputs": [],
      "name": "name",
      "outputs": [
        {
          "internalType": "string",
          "name": "",
          "type": "string"
        }
      ],
      "stateMutability": "view",
      "type": "function"
    },
    {
      "inputs": [
        {
          "internalType": "address",
          "name": "owner",
          "type": "address"
        }
      ],
      "name": "nonces",
      "outputs": [
        {
          "internalType": "uint256",
          "name": "",
          "type": "uint256"
        }
      ],
      "stateMutability": "view",
      "type": "function"
    },
    {
      "inputs": [],
      "name": "owner",
      "outputs": [
        {
          "internalType": "address",
          "name": "",
          "type": "address"
        }
      ],
      "stateMutability": "view",
      "type": "function"
    },
    {
      "inputs": [],
      "name": "pendingOwner",
      "outputs": [
        {
          "internalType": "address",
          "name": "",
          "type": "address"
        }
      ],
      "stateMutability": "view",
      "type": "function"
    },
    {
      "inputs": [
        {
          "internalType": "address",
          "name": "owner",
          "type": "address"
        },
        {
          "internalType": "address",
          "name": "spender",
          "type": "address"
        },
        {
          "internalType": "uint256",
          "name": "amount",
          "type": "uint256"
        },
        {
          "internalType": "uint256",
          "name": "deadline",
          "type": "uint256"
        },
        {
          "internalType": "uint8",
          "name": "v",
          "type": "uint8"
        },
        {
          "internalType": "bytes32",
          "name": "r",
          "type": "bytes32"
        },
        {
          "internalType": "bytes32",
          "name": "s",
          "type": "bytes32"
        }
      ],
      "name": "permit",
      "outputs": [],
      "stateMutability": "nonpayable",
      "type": "function"
    },
    {
      "inputs": [
        {
          "internalType": "uint256",
          "name": "profit_",
          "type": "uint256"
        },
        {
          "internalType": "uint256",
          "name": "epoch_",
          "type": "uint256"
        }
      ],
      "name": "rebase",
      "outputs": [
        {
          "internalType": "uint256",
          "name": "",
          "type": "uint256"
        }
      ],
      "stateMutability": "nonpayable",
      "type": "function"
    },
    {
      "inputs": [
        {
          "internalType": "uint256",
          "name": "",
          "type": "uint256"
        }
      ],
      "name": "rebases",
      "outputs": [
        {
          "internalType": "uint256",
          "name": "epoch",
          "type": "uint256"
        },
        {
          "internalType": "uint256",
          "name": "rebase",
          "type": "uint256"
        },
        {
          "internalType": "uint256",
          "name": "totalStakedBefore",
          "type": "uint256"
        },
        {
          "internalType": "uint256",
          "name": "totalStakedAfter",
          "type": "uint256"
        },
        {
          "internalType": "uint256",
          "name": "amountRebased",
          "type": "uint256"
        },
        {
          "internalType": "uint256",
          "name": "index",
          "type": "uint256"
        },
        {
          "internalType": "uint32",
          "name": "timeOccured",
          "type": "uint32"
        }
      ],
      "stateMutability": "view",
      "type": "function"
    },
    {
      "inputs": [
        {
          "internalType": "uint256",
          "name": "_INDEX",
          "type": "uint256"
        }
      ],
      "name": "setIndex",
      "outputs": [],
      "stateMutability": "nonpayable",
      "type": "function"
    },
    {
      "inputs": [],
      "name": "stakingContract",
      "outputs": [
        {
          "internalType": "address",
          "name": "",
          "type": "address"
        }
      ],
      "stateMutability": "view",
      "type": "function"
    },
    {
      "inputs": [],
      "name": "symbol",
      "outputs": [
        {
          "internalType": "string",
          "name": "",
          "type": "string"
        }
      ],
      "stateMutability": "view",
      "type": "function"
    },
    {
      "inputs": [],
      "name": "totalSupply",
      "outputs": [
        {
          "internalType": "uint256",
          "name": "",
          "type": "uint256"
        }
      ],
      "stateMutability": "view",
      "type": "function"
    },
    {
      "inputs": [
        {
          "internalType": "address",
          "name": "to",
          "type": "address"
        },
        {
          "internalType": "uint256",
          "name": "value",
          "type": "uint256"
        }
      ],
      "name": "transfer",
      "outputs": [
        {
          "internalType": "bool",
          "name": "",
          "type": "bool"
        }
      ],
      "stateMutability": "nonpayable",
      "type": "function"
    },
    {
      "inputs": [
        {
          "internalType": "address",
          "name": "from",
          "type": "address"
        },
        {
          "internalType": "address",
          "name": "to",
          "type": "address"
        },
        {
          "internalType": "uint256",
          "name": "value",
          "type": "uint256"
        }
      ],
      "name": "transferFrom",
      "outputs": [
        {
          "internalType": "bool",
          "name": "",
          "type": "bool"
        }
      ],
      "stateMutability": "nonpayable",
      "type": "function"
    },
    {
      "inputs": [
        {
          "internalType": "address",
          "name": "newOwner",
          "type": "address"
        },
        {
          "internalType": "bool",
          "name": "direct",
          "type": "bool"
        },
        {
          "internalType": "bool",
          "name": "renounce",
          "type": "bool"
        }
      ],
      "name": "transferOwnership",
      "outputs": [],
      "stateMutability": "nonpayable",
      "type": "function"
    }
  ],
  "bytecode": "0x60a06040523480156200001157600080fd5b5060408051808201825260098082526839ba30b5b2b229a0a160b91b60208084019182528451808601909552600485526329a9a0a160e11b908501528251929392620000609160039162000284565b5081516200007690600490602085019062000284565b506005805460ff191660ff92909216919091179055504690507f8b73c3c69bb8fe3d512ecc4cf759cc79239f7b179b0ffacaa9a75d522b39400f620000ba620001c9565b805160209182012060408051808201825260018152603160f81b90840152805180840194909452838101919091527fc89efdaa54c0f20c7adf612882df0950f5a951637e0307cdcb4c672f298b8bc660608401526080808401949094523060a0808501919091528151808503909101815260c09093019081905282519290910191909120909152600780546001600160a01b03191633908117909155906000907f8be0079c531659141344cd1fd0a4f28419497f9722a3daafe3b4186f6b6457e0908290a3600a80546001600160a01b031916331790556611c37937e080006002819055620001c0908060001906600019036200026360201b620014701790919060201c565b600d5562000330565b60038054604080516020601f6002600019610100600188161502019095169490940493840181900481028201810190925282815260609390929091830182828015620002595780601f106200022d5761010080835404028352916020019162000259565b820191906000526020600020905b8154815290600101906020018083116200023b57829003601f168201915b5050505050905090565b60008082116200027257600080fd5b8183816200027c57fe5b049392505050565b828054600181600116156101000203166002900490600052602060002090601f016020900481019282620002bc576000855562000307565b82601f10620002d757805160ff191683800117855562000307565b8280016001018555821562000307579182015b8281111562000307578251825591602001919060010190620002ea565b506200031592915062000319565b5090565b5b808211156200031557600081556001016200031a565b6080516116e46200035060003980610b4952806112c252506116e46000f3fe608060405234801561001057600080fd5b50600436106101da5760003560e01c806370a08231116101045780639ce110d7116100a2578063d505accf11610071578063d505accf14610571578063dd62ed3e146105c2578063e30c3978146105f0578063ee99205c146105f8576101da565b80639ce110d7146104eb578063a457c2d7146104f3578063a9059cbb1461051f578063c4d66de81461054b576101da565b80637ecebe00116100de5780637ecebe00146104915780638da5cb5b146104b75780639358928b146104db57806395d89b41146104e3576101da565b806370a08231146103f357806373c69eb7146104195780637965d56d14610474576101da565b80632986c0e51161017c5780633644e5151161014b5780633644e5151461039a57806339509351146103a257806340a5737f146103ce5780634e71e0c8146103eb576101da565b80632986c0e5146103645780632df75cb11461036c57806330adf81f14610374578063313ce5671461037c576101da565b8063095ea7b3116101b8578063095ea7b3146102c957806318160ddd146103095780631bd396741461031157806323b872dd1461032e576101da565b8063058ecdb4146101df57806306fdde0314610214578063078dfbe714610291575b600080fd5b610202600480360360408110156101f557600080fd5b5080359060200135610600565b60408051918252519081900360200190f35b61021c610778565b6040805160208082528351818301528351919283929083019185019080838360005b8381101561025657818101518382015260200161023e565b50505050905090810190601f1680156102835780820380516001836020036101000a031916815260200191505b509250505060405180910390f35b6102c7600480360360608110156102a757600080fd5b506001600160a01b0381351690602081013515159060400135151561080e565b005b6102f5600480360360408110156102df57600080fd5b506001600160a01b038135169060200135610957565b604080519115158252519081900360200190f35b6102026109ab565b6102026004803603602081101561032757600080fd5b50356109b1565b6102f56004803603606081101561034457600080fd5b506001600160a01b038135811691602081013590911690604001356109c8565b610202610b02565b610202610b14565b610202610b1a565b610384610b3e565b6040805160ff9092168252519081900360200190f35b610202610b47565b6102f5600480360360408110156103b857600080fd5b506001600160a01b038135169060200135610b6b565b6102c7600480360360208110156103e457600080fd5b5035610bec565b6102c7610cc0565b6102026004803603602081101561040957600080fd5b50356001600160a01b0316610d83565b6104366004803603602081101561042f57600080fd5b5035610dab565b604080519788526020880196909652868601949094526060860192909252608085015260a084015263ffffffff1660c0830152519081900360e00190f35b6102026004803603602081101561048a57600080fd5b5035610e00565b610202600480360360208110156104a757600080fd5b50356001600160a01b0316610e17565b6104bf610e38565b604080516001600160a01b039092168252519081900360200190f35b610202610e47565b61021c610e6c565b6104bf610ecd565b6102f56004803603604081101561050957600080fd5b506001600160a01b038135169060200135610edc565b6102f56004803603604081101561053557600080fd5b506001600160a01b038135169060200135610fb3565b6102f56004803603602081101561056157600080fd5b50356001600160a01b0316611073565b6102c7600480360360e081101561058757600080fd5b506001600160a01b03813581169160208101359091169060408101359060608101359060ff6080820135169060a08101359060c001356111c6565b610202600480360360408110156105d857600080fd5b506001600160a01b0381358116916020013516611427565b6104bf611452565b6104bf611461565b6009546000906001600160a01b03163314610648576040805162461bcd60e51b81526020600482015260036024820152624f534360e81b604482015290519081900360640190fd5b600080610653610e47565b9050846106e957600254604080514281526020810192909252805186927f917acfbe39be6509ccf7fecb66a7e42ce2be1083c2d7dd3b9b7491dabddb8da492908290030190a2837f6012dbce857565c4a40974aa5de8373a761fc429077ef0c8c8611d1e20d63fb260006106c5610b02565b6040805192835260208301919091528051918290030190a260025492505050610772565b80156107155761070e816107086002548861148f90919063ffffffff16565b90611470565b9150610719565b8491505b60025461072690836114b3565b60028190556001600160801b031015610745576001600160801b036002555b60025461075b90660e3d2cfe61ffff1990611470565b600d556107698186866114c3565b50600254925050505b92915050565b60038054604080516020601f60026000196101006001881615020190951694909404938401819004810282018101909252828152606093909290918301828280156108045780601f106107d957610100808354040283529160200191610804565b820191906000526020600020905b8154815290600101906020018083116107e757829003601f168201915b5050505050905090565b6007546001600160a01b0316331461086d576040805162461bcd60e51b815260206004820181905260248201527f4f776e61626c653a2063616c6c6572206973206e6f7420746865206f776e6572604482015290519081900360640190fd5b8115610936576001600160a01b0383161515806108875750805b6108d0576040805162461bcd60e51b81526020600482015260156024820152744f776e61626c653a207a65726f206164647265737360581b604482015290519081900360640190fd5b6007546040516001600160a01b038086169216907f8be0079c531659141344cd1fd0a4f28419497f9722a3daafe3b4186f6b6457e090600090a3600780546001600160a01b0385166001600160a01b031991821617909155600880549091169055610952565b600880546001600160a01b0319166001600160a01b0385161790555b505050565b336000818152600f602090815260408083206001600160a01b0387168085529083528184208690558151868152915193949093909260008051602061168f833981519152928290030190a350600192915050565b60025490565b6000610772600d548361148f90919063ffffffff16565b6001600160a01b0383166000908152600f602090815260408083203384529091528120546109f69083611621565b6001600160a01b0385166000818152600f602090815260408083203380855290835292819020859055805194855251919360008051602061168f833981519152929081900390910190a36000610a4b836109b1565b6001600160a01b0386166000908152600e6020526040902054909150610a719082611621565b6001600160a01b038087166000908152600e60205260408082209390935590861681522054610aa090826114b3565b6001600160a01b038086166000818152600e602090815260409182902094909455805187815290519193928916927fddf252ad1be2c89b69c2b068fc378daa952ba7f163c4a11628f55a4df523b3ef92918290030190a3506001949350505050565b6000610b0f600c54610e00565b905090565b600c5481565b7f6e71edae12b1b97f4d1f60370fef10105fa2faae0126114a169c64845d6126c981565b60055460ff1690565b7f000000000000000000000000000000000000000000000000000000000000000081565b336000908152600f602090815260408083206001600160a01b0386168452909152812054610b9990836114b3565b336000818152600f602090815260408083206001600160a01b03891680855290835292819020859055805194855251919360008051602061168f833981519152929081900390910190a350600192915050565b6007546001600160a01b03163314610c4b576040805162461bcd60e51b815260206004820181905260248201527f4f776e61626c653a2063616c6c6572206973206e6f7420746865206f776e6572604482015290519081900360640190fd5b600c5415610c86576040805162461bcd60e51b815260206004820152600360248201526224a72d60e91b604482015290519081900360640190fd5b610c8f816109b1565b600c8190556040517f4dd23f23e8fad98bd3817ee69155b701f911c04ba790df40c43aaed54ada487490600090a250565b6008546001600160a01b0316338114610d20576040805162461bcd60e51b815260206004820181905260248201527f4f776e61626c653a2063616c6c657220213d2070656e64696e67206f776e6572604482015290519081900360640190fd5b6007546040516001600160a01b038084169216907f8be0079c531659141344cd1fd0a4f28419497f9722a3daafe3b4186f6b6457e090600090a3600780546001600160a01b039092166001600160a01b0319928316179055600880549091169055565b600d546001600160a01b0382166000908152600e602052604081205490916107729190611470565b600b8181548110610dbb57600080fd5b60009182526020909120600790910201805460018201546002830154600384015460048501546005860154600690960154949650929491939092919063ffffffff1687565b6000610772600d548361147090919063ffffffff16565b6001600160a01b038116600090815260066020526040812061077290611631565b6007546001600160a01b031681565b600954600090610b0f90610e63906001600160a01b0316610d83565b60025490611621565b60048054604080516020601f60026000196101006001881615020190951694909404938401819004810282018101909252828152606093909290918301828280156108045780601f106107d957610100808354040283529160200191610804565b600a546001600160a01b031681565b336000908152600f602090815260408083206001600160a01b0386168452909152812054808310610f3057336000908152600f602090815260408083206001600160a01b0388168452909152812055610f5f565b610f3a8184611621565b336000908152600f602090815260408083206001600160a01b03891684529091529020555b336000818152600f602090815260408083206001600160a01b03891680855290835292819020548151908152905192939260008051602061168f833981519152929181900390910190a35060019392505050565b600080610fcb600d548461148f90919063ffffffff16565b336000908152600e6020526040902054909150610fe89082611621565b336000908152600e6020526040808220929092556001600160a01b0386168152205461101490826114b3565b6001600160a01b0385166000818152600e60209081526040918290209390935580518681529051919233927fddf252ad1be2c89b69c2b068fc378daa952ba7f163c4a11628f55a4df523b3ef9281900390910190a35060019392505050565b600a546000906001600160a01b031633146110ba576040805162461bcd60e51b81526020600482015260026024820152614e4160f01b604482015290519081900360640190fd5b6001600160a01b0382166110fa576040805162461bcd60e51b8152602060048201526002602482015261494160f01b604482015290519081900360640190fd5b600980546001600160a01b0319166001600160a01b038481169190911780835581166000908152600e60209081526040808320660e3d2cfe61ffff19905593546002548551908152945193169391927fddf252ad1be2c89b69c2b068fc378daa952ba7f163c4a11628f55a4df523b3ef9281900390910190a3604080516001600160a01b038416815290517f817c653428858ed536dc085c5d8273734c517b55de44b55f5c5877a75e3373a19181900360200190a15050600a80546001600160a01b0319169055600190565b8342111561121b576040805162461bcd60e51b815260206004820152601860248201527f5065726d69743a206578706972656420646561646c696e650000000000000000604482015290519081900360640190fd5b6001600160a01b03871660009081526006602052604081207f6e71edae12b1b97f4d1f60370fef10105fa2faae0126114a169c64845d6126c99089908990899061126490611631565b604080516020808201979097526001600160a01b0395861681830152939094166060840152608083019190915260a082015260c08082018990528251808303909101815260e08201835280519084012061190160f01b6101008301527f0000000000000000000000000000000000000000000000000000000000000000610102830152610122808301829052835180840390910181526101428301808552815191860191909120600091829052610162840180865281905260ff8a166101828501526101a284018990526101c28401889052935191955092936001926101e280820193601f1981019281900390910190855afa158015611368573d6000803e3d6000fd5b5050604051601f1901519150506001600160a01b0381161580159061139e5750896001600160a01b0316816001600160a01b0316145b6113ef576040805162461bcd60e51b815260206004820152601e60248201527f45524332305065726d69743a20496e76616c6964207369676e61747572650000604482015290519081900360640190fd5b6001600160a01b038a16600090815260066020526040902061141090611635565b61141b8a8a8a61163e565b50505050505050505050565b6001600160a01b039182166000908152600f6020908152604080832093909416825291909152205490565b6008546001600160a01b031681565b6009546001600160a01b031681565b600080821161147e57600080fd5b81838161148757fe5b049392505050565b60008215806114aa575050818102818382816114a757fe5b04145b61077257600080fd5b8082018281101561077257600080fd5b6000806114dc8561070886670de0b6b3a764000061148f565b9050600b6040518060e00160405280858152602001838152602001878152602001611505610e47565b8152602001868152602001611518610b02565b81524263ffffffff81811660209384015284546001808201875560009687529584902085516007909202019081558484015195810195909555604080850151600280880191909155606086015160038801556080860151600488015560a0860151600588015560c0909501516006909601805463ffffffff1916969092169590951790559154835192835290820152815185927f917acfbe39be6509ccf7fecb66a7e42ce2be1083c2d7dd3b9b7491dabddb8da4928290030190a2827f6012dbce857565c4a40974aa5de8373a761fc429077ef0c8c8611d1e20d63fb2826115fe610b02565b6040805192835260208301919091528051918290030190a2506001949350505050565b8082038281111561077257600080fd5b5490565b80546001019055565b6001600160a01b038084166000818152600f60209081526040808320948716808452948252918290208590558151858152915160008051602061168f8339815191529281900390910190a350505056fe8c5be1e5ebec7d5bd14f71427d1e84f3dd0314c0f7b2291e5b200ac8c7c3b925a2646970667358221220271d501ef8731de533a0d6211c3e15e98d011e60bc492b0e0a987f73e7b02ef364736f6c63430007050033",
  "linkReferences": {},
  "deployedLinkReferences": {}
}