{
  "_format": "hh-sol-artifact-1",
  "contractName": "SabBondDepository",
  "sourceName": "contracts/BondDepository_ETH.sol",
  "abi": [
    {
      "inputs": [
        {
          "internalType": "address",
          "name": "_Sab",
          "type": "address"
        },
        {
          "internalType": "address",
          "name": "_principle",
          "type": "address"
        },
        {
          "internalType": "address",
          "name": "_treasury",
          "type": "address"
        },
        {
          "internalType": "address",
          "name": "_DAO",
          "type": "address"
        },
        {
          "internalType": "address",
          "name": "_feed",
          "type": "address"
        }
      ],
      "stateMutability": "nonpayable",
      "type": "constructor"
    },
    {
      "anonymous": false,
      "inputs": [
        {
          "indexed": false,
          "internalType": "uint256",
          "name": "deposit",
          "type": "uint256"
        },
        {
          "indexed": true,
          "internalType": "uint256",
          "name": "payout",
          "type": "uint256"
        },
        {
          "indexed": true,
          "internalType": "uint256",
          "name": "expires",
          "type": "uint256"
        },
        {
          "indexed": true,
          "internalType": "uint256",
          "name": "priceInUSD",
          "type": "uint256"
        }
      ],
      "name": "BondCreated",
      "type": "event"
    },
    {
      "anonymous": false,
      "inputs": [
        {
          "indexed": true,
          "internalType": "uint256",
          "name": "priceInUSD",
          "type": "uint256"
        },
        {
          "indexed": true,
          "internalType": "uint256",
          "name": "internalPrice",
          "type": "uint256"
        },
        {
          "indexed": true,
          "internalType": "uint256",
          "name": "debtRatio",
          "type": "uint256"
        }
      ],
      "name": "BondPriceChanged",
      "type": "event"
    },
    {
      "anonymous": false,
      "inputs": [
        {
          "indexed": true,
          "internalType": "address",
          "name": "recipient",
          "type": "address"
        },
        {
          "indexed": false,
          "internalType": "uint256",
          "name": "payout",
          "type": "uint256"
        },
        {
          "indexed": false,
          "internalType": "uint256",
          "name": "remaining",
          "type": "uint256"
        }
      ],
      "name": "BondRedeemed",
      "type": "event"
    },
    {
      "anonymous": false,
      "inputs": [
        {
          "indexed": false,
          "internalType": "uint256",
          "name": "initialBCV",
          "type": "uint256"
        },
        {
          "indexed": false,
          "internalType": "uint256",
          "name": "newBCV",
          "type": "uint256"
        },
        {
          "indexed": false,
          "internalType": "uint256",
          "name": "adjustment",
          "type": "uint256"
        },
        {
          "indexed": false,
          "internalType": "bool",
          "name": "addition",
          "type": "bool"
        }
      ],
      "name": "ControlVariableAdjustment",
      "type": "event"
    },
    {
      "anonymous": false,
      "inputs": [
        {
          "components": [
            {
              "internalType": "uint256",
              "name": "controlVariable",
              "type": "uint256"
            },
            {
              "internalType": "uint256",
              "name": "minimumPrice",
              "type": "uint256"
            },
            {
              "internalType": "uint256",
              "name": "maxPayout",
              "type": "uint256"
            },
            {
              "internalType": "uint256",
              "name": "maxDebt",
              "type": "uint256"
            },
            {
              "internalType": "uint32",
              "name": "vestingTerm",
              "type": "uint32"
            }
          ],
          "indexed": false,
          "internalType": "struct SabBondDepository.Terms",
          "name": "terms",
          "type": "tuple"
        }
      ],
      "name": "InitTerms",
      "type": "event"
    },
    {
      "anonymous": false,
      "inputs": [
        {
          "indexed": true,
          "internalType": "address",
          "name": "tokenToRecover",
          "type": "address"
        },
        {
          "indexed": false,
          "internalType": "uint256",
          "name": "amount",
          "type": "uint256"
        }
      ],
      "name": "LogRecoverLostToken",
      "type": "event"
    },
    {
      "anonymous": false,
      "inputs": [
        {
          "components": [
            {
              "internalType": "bool",
              "name": "add",
              "type": "bool"
            },
            {
              "internalType": "uint256",
              "name": "rate",
              "type": "uint256"
            },
            {
              "internalType": "uint256",
              "name": "target",
              "type": "uint256"
            },
            {
              "internalType": "uint32",
              "name": "buffer",
              "type": "uint32"
            },
            {
              "internalType": "uint32",
              "name": "lastTime",
              "type": "uint32"
            }
          ],
          "indexed": false,
          "internalType": "struct SabBondDepository.Adjust",
          "name": "adjust",
          "type": "tuple"
        }
      ],
      "name": "LogSetAdjustment",
      "type": "event"
    },
    {
      "anonymous": false,
      "inputs": [
        {
          "indexed": true,
          "internalType": "address",
          "name": "stakingContract",
          "type": "address"
        },
        {
          "indexed": false,
          "internalType": "bool",
          "name": "isHelper",
          "type": "bool"
        }
      ],
      "name": "LogSetStaking",
      "type": "event"
    },
    {
      "anonymous": false,
      "inputs": [
        {
          "indexed": false,
          "internalType": "enum SabBondDepository.PARAMETER",
          "name": "param",
          "type": "uint8"
        },
        {
          "indexed": false,
          "internalType": "uint256",
          "name": "value",
          "type": "uint256"
        }
      ],
      "name": "LogSetTerms",
      "type": "event"
    },
    {
      "anonymous": false,
      "inputs": [
        {
          "indexed": true,
          "internalType": "address",
          "name": "previousOwner",
          "type": "address"
        },
        {
          "indexed": true,
          "internalType": "address",
          "name": "newOwner",
          "type": "address"
        }
      ],
      "name": "OwnershipPulled",
      "type": "event"
    },
    {
      "anonymous": false,
      "inputs": [
        {
          "indexed": true,
          "internalType": "address",
          "name": "previousOwner",
          "type": "address"
        },
        {
          "indexed": true,
          "internalType": "address",
          "name": "newOwner",
          "type": "address"
        }
      ],
      "name": "OwnershipPushed",
      "type": "event"
    },
    {
      "anonymous": false,
      "inputs": [
        {
          "indexed": true,
          "internalType": "address",
          "name": "recipient",
          "type": "address"
        },
        {
          "indexed": false,
          "internalType": "uint256",
          "name": "returnAmount",
          "type": "uint256"
        }
      ],
      "name": "ReserveWithdrawl",
      "type": "event"
    },
    {
      "inputs": [],
      "name": "DAO",
      "outputs": [
        {
          "internalType": "address",
          "name": "",
          "type": "address"
        }
      ],
      "stateMutability": "view",
      "type": "function"
    },
    {
      "inputs": [],
      "name": "Sab",
      "outputs": [
        {
          "internalType": "contract IERC20",
          "name": "",
          "type": "address"
        }
      ],
      "stateMutability": "view",
      "type": "function"
    },
    {
      "inputs": [],
      "name": "adjustment",
      "outputs": [
        {
          "internalType": "bool",
          "name": "add",
          "type": "bool"
        },
        {
          "internalType": "uint256",
          "name": "rate",
          "type": "uint256"
        },
        {
          "internalType": "uint256",
          "name": "target",
          "type": "uint256"
        },
        {
          "internalType": "uint32",
          "name": "buffer",
          "type": "uint32"
        },
        {
          "internalType": "uint32",
          "name": "lastTime",
          "type": "uint32"
        }
      ],
      "stateMutability": "view",
      "type": "function"
    },
    {
      "inputs": [
        {
          "internalType": "address",
          "name": "zapper",
          "type": "address"
        }
      ],
      "name": "allowZapper",
      "outputs": [],
      "stateMutability": "nonpayable",
      "type": "function"
    },
    {
      "inputs": [
        {
          "internalType": "address",
          "name": "",
          "type": "address"
        }
      ],
      "name": "allowedZappers",
      "outputs": [
        {
          "internalType": "bool",
          "name": "",
          "type": "bool"
        }
      ],
      "stateMutability": "view",
      "type": "function"
    },
    {
      "inputs": [],
      "name": "assetPrice",
      "outputs": [
        {
          "internalType": "uint256",
          "name": "",
          "type": "uint256"
        }
      ],
      "stateMutability": "view",
      "type": "function"
    },
    {
      "inputs": [
        {
          "internalType": "address",
          "name": "",
          "type": "address"
        }
      ],
      "name": "bondInfo",
      "outputs": [
        {
          "internalType": "uint256",
          "name": "payout",
          "type": "uint256"
        },
        {
          "internalType": "uint256",
          "name": "pricePaid",
          "type": "uint256"
        },
        {
          "internalType": "uint32",
          "name": "vesting",
          "type": "uint32"
        },
        {
          "internalType": "uint32",
          "name": "lastTime",
          "type": "uint32"
        }
      ],
      "stateMutability": "view",
      "type": "function"
    },
    {
      "inputs": [],
      "name": "bondPrice",
      "outputs": [
        {
          "internalType": "uint256",
          "name": "price_",
          "type": "uint256"
        }
      ],
      "stateMutability": "view",
      "type": "function"
    },
    {
      "inputs": [],
      "name": "bondPriceInUSD",
      "outputs": [
        {
          "internalType": "uint256",
          "name": "price_",
          "type": "uint256"
        }
      ],
      "stateMutability": "view",
      "type": "function"
    },
    {
      "inputs": [],
      "name": "currentDebt",
      "outputs": [
        {
          "internalType": "uint256",
          "name": "",
          "type": "uint256"
        }
      ],
      "stateMutability": "view",
      "type": "function"
    },
    {
      "inputs": [],
      "name": "debtDecay",
      "outputs": [
        {
          "internalType": "uint256",
          "name": "decay_",
          "type": "uint256"
        }
      ],
      "stateMutability": "view",
      "type": "function"
    },
    {
      "inputs": [],
      "name": "debtRatio",
      "outputs": [
        {
          "internalType": "uint256",
          "name": "debtRatio_",
          "type": "uint256"
        }
      ],
      "stateMutability": "view",
      "type": "function"
    },
    {
      "inputs": [
        {
          "internalType": "uint256",
          "name": "_amount",
          "type": "uint256"
        },
        {
          "internalType": "uint256",
          "name": "_maxPrice",
          "type": "uint256"
        },
        {
          "internalType": "address",
          "name": "_depositor",
          "type": "address"
        }
      ],
      "name": "deposit",
      "outputs": [
        {
          "internalType": "uint256",
          "name": "",
          "type": "uint256"
        }
      ],
      "stateMutability": "nonpayable",
      "type": "function"
    },
    {
      "inputs": [],
      "name": "discountRate",
      "outputs": [
        {
          "internalType": "uint32",
          "name": "",
          "type": "uint32"
        }
      ],
      "stateMutability": "view",
      "type": "function"
    },
    {
      "inputs": [
        {
          "internalType": "uint256",
          "name": "_controlVariable",
          "type": "uint256"
        },
        {
          "internalType": "uint256",
          "name": "_minimumPrice",
          "type": "uint256"
        },
        {
          "internalType": "uint256",
          "name": "_maxPayout",
          "type": "uint256"
        },
        {
          "internalType": "uint256",
          "name": "_maxDebt",
          "type": "uint256"
        },
        {
          "internalType": "uint32",
          "name": "_vestingTerm",
          "type": "uint32"
        }
      ],
      "name": "initializeBondTerms",
      "outputs": [],
      "stateMutability": "nonpayable",
      "type": "function"
    },
    {
      "inputs": [],
      "name": "lastDecay",
      "outputs": [
        {
          "internalType": "uint32",
          "name": "",
          "type": "uint32"
        }
      ],
      "stateMutability": "view",
      "type": "function"
    },
    {
      "inputs": [],
      "name": "maxPayout",
      "outputs": [
        {
          "internalType": "uint256",
          "name": "",
          "type": "uint256"
        }
      ],
      "stateMutability": "view",
      "type": "function"
    },
    {
      "inputs": [
        {
          "internalType": "uint256",
          "name": "_value",
          "type": "uint256"
        }
      ],
      "name": "payoutFor",
      "outputs": [
        {
          "internalType": "uint256",
          "name": "",
          "type": "uint256"
        }
      ],
      "stateMutability": "view",
      "type": "function"
    },
    {
      "inputs": [
        {
          "internalType": "address",
          "name": "_depositor",
          "type": "address"
        }
      ],
      "name": "pendingPayoutFor",
      "outputs": [
        {
          "internalType": "uint256",
          "name": "pendingPayout_",
          "type": "uint256"
        }
      ],
      "stateMutability": "view",
      "type": "function"
    },
    {
      "inputs": [
        {
          "internalType": "address",
          "name": "_depositor",
          "type": "address"
        }
      ],
      "name": "percentVestedFor",
      "outputs": [
        {
          "internalType": "uint256",
          "name": "percentVested_",
          "type": "uint256"
        }
      ],
      "stateMutability": "view",
      "type": "function"
    },
    {
      "inputs": [],
      "name": "policy",
      "outputs": [
        {
          "internalType": "address",
          "name": "",
          "type": "address"
        }
      ],
      "stateMutability": "view",
      "type": "function"
    },
    {
      "inputs": [],
      "name": "priceFeed",
      "outputs": [
        {
          "internalType": "contract AggregatorV3Interface",
          "name": "",
          "type": "address"
        }
      ],
      "stateMutability": "view",
      "type": "function"
    },
    {
      "inputs": [],
      "name": "principle",
      "outputs": [
        {
          "internalType": "contract IWETH9",
          "name": "",
          "type": "address"
        }
      ],
      "stateMutability": "view",
      "type": "function"
    },
    {
      "inputs": [],
      "name": "pullManagement",
      "outputs": [],
      "stateMutability": "nonpayable",
      "type": "function"
    },
    {
      "inputs": [
        {
          "internalType": "address",
          "name": "newOwner_",
          "type": "address"
        }
      ],
      "name": "pushManagement",
      "outputs": [],
      "stateMutability": "nonpayable",
      "type": "function"
    },
    {
      "inputs": [
        {
          "internalType": "contract IERC20",
          "name": "_token",
          "type": "address"
        }
      ],
      "name": "recoverLostToken",
      "outputs": [
        {
          "internalType": "bool",
          "name": "",
          "type": "bool"
        }
      ],
      "stateMutability": "nonpayable",
      "type": "function"
    },
    {
      "inputs": [
        {
          "internalType": "address",
          "name": "_recipient",
          "type": "address"
        },
        {
          "internalType": "bool",
          "name": "_stake",
          "type": "bool"
        }
      ],
      "name": "redeem",
      "outputs": [
        {
          "internalType": "uint256",
          "name": "",
          "type": "uint256"
        }
      ],
      "stateMutability": "nonpayable",
      "type": "function"
    },
    {
      "inputs": [
        {
          "internalType": "address",
          "name": "zapper",
          "type": "address"
        }
      ],
      "name": "removeZapper",
      "outputs": [],
      "stateMutability": "nonpayable",
      "type": "function"
    },
    {
      "inputs": [],
      "name": "renounceManagement",
      "outputs": [],
      "stateMutability": "nonpayable",
      "type": "function"
    },
    {
      "inputs": [
        {
          "internalType": "bool",
          "name": "_addition",
          "type": "bool"
        },
        {
          "internalType": "uint256",
          "name": "_increment",
          "type": "uint256"
        },
        {
          "internalType": "uint256",
          "name": "_target",
          "type": "uint256"
        },
        {
          "internalType": "uint32",
          "name": "_buffer",
          "type": "uint32"
        }
      ],
      "name": "setAdjustment",
      "outputs": [],
      "stateMutability": "nonpayable",
      "type": "function"
    },
    {
      "inputs": [
        {
          "internalType": "enum SabBondDepository.PARAMETER",
          "name": "_parameter",
          "type": "uint8"
        },
        {
          "internalType": "uint256",
          "name": "_input",
          "type": "uint256"
        }
      ],
      "name": "setBondTerms",
      "outputs": [],
      "stateMutability": "nonpayable",
      "type": "function"
    },
    {
      "inputs": [
        {
          "internalType": "uint32",
          "name": "_discountrate",
          "type": "uint32"
        }
      ],
      "name": "setDiscountRate",
      "outputs": [],
      "stateMutability": "nonpayable",
      "type": "function"
    },
    {
      "inputs": [
        {
          "internalType": "address",
          "name": "_staking",
          "type": "address"
        },
        {
          "internalType": "bool",
          "name": "_helper",
          "type": "bool"
        }
      ],
      "name": "setStaking",
      "outputs": [],
      "stateMutability": "nonpayable",
      "type": "function"
    },
    {
      "inputs": [
        {
          "internalType": "uint32",
          "name": "_withdrawfee",
          "type": "uint32"
        }
      ],
      "name": "setWithdrawFee",
      "outputs": [],
      "stateMutability": "nonpayable",
      "type": "function"
    },
    {
      "inputs": [],
      "name": "staking",
      "outputs": [
        {
          "internalType": "contract IStaking",
          "name": "",
          "type": "address"
        }
      ],
      "stateMutability": "view",
      "type": "function"
    },
    {
      "inputs": [],
      "name": "stakingHelper",
      "outputs": [
        {
          "internalType": "contract IStakingHelper",
          "name": "",
          "type": "address"
        }
      ],
      "stateMutability": "view",
      "type": "function"
    },
    {
      "inputs": [],
      "name": "standardizedDebtRatio",
      "outputs": [
        {
          "internalType": "uint256",
          "name": "",
          "type": "uint256"
        }
      ],
      "stateMutability": "view",
      "type": "function"
    },
    {
      "inputs": [],
      "name": "terms",
      "outputs": [
        {
          "internalType": "uint256",
          "name": "controlVariable",
          "type": "uint256"
        },
        {
          "internalType": "uint256",
          "name": "minimumPrice",
          "type": "uint256"
        },
        {
          "internalType": "uint256",
          "name": "maxPayout",
          "type": "uint256"
        },
        {
          "internalType": "uint256",
          "name": "maxDebt",
          "type": "uint256"
        },
        {
          "internalType": "uint32",
          "name": "vestingTerm",
          "type": "uint32"
        }
      ],
      "stateMutability": "view",
      "type": "function"
    },
    {
      "inputs": [],
      "name": "totalDebt",
      "outputs": [
        {
          "internalType": "uint256",
          "name": "",
          "type": "uint256"
        }
      ],
      "stateMutability": "view",
      "type": "function"
    },
    {
      "inputs": [],
      "name": "treasury",
      "outputs": [
        {
          "internalType": "contract ITreasury",
          "name": "",
          "type": "address"
        }
      ],
      "stateMutability": "view",
      "type": "function"
    },
    {
      "inputs": [],
      "name": "useHelper",
      "outputs": [
        {
          "internalType": "bool",
          "name": "",
          "type": "bool"
        }
      ],
      "stateMutability": "view",
      "type": "function"
    },
    {
      "inputs": [
        {
          "internalType": "address",
          "name": "_recipient",
          "type": "address"
        },
        {
          "internalType": "uint256",
          "name": "_amount",
          "type": "uint256"
        }
      ],
      "name": "withdraw",
      "outputs": [
        {
          "internalType": "uint256",
          "name": "",
          "type": "uint256"
        }
      ],
      "stateMutability": "nonpayable",
      "type": "function"
    },
    {
      "inputs": [],
      "name": "withdrawFee",
      "outputs": [
        {
          "internalType": "uint32",
          "name": "",
          "type": "uint32"
        }
      ],
      "stateMutability": "view",
      "type": "function"
    },
    {
      "inputs": [],
      "name": "withdrawRate",
      "outputs": [
        {
          "internalType": "uint32",
          "name": "",
          "type": "uint32"
        }
      ],
      "stateMutability": "view",
      "type": "function"
    },
    {
      "inputs": [
        {
          "internalType": "uint256",
          "name": "",
          "type": "uint256"
        }
      ],
      "name": "withdrawTerm",
      "outputs": [
        {
          "internalType": "uint32",
          "name": "",
          "type": "uint32"
        }
      ],
      "stateMutability": "view",
      "type": "function"
    }
  ],
  "bytecode": "0x6012805463ffffffff1916600a1790556101606040526301e133806101009081526276a7006101205262ed4e006101405262000040906013906003620001b5565b50601480546103e863ffffffff199091161763ffffffff60201b19166455000000001790553480156200007257600080fd5b5060405162003c8938038062003c8983398101604081905262000095916200029f565b600080546001600160a01b03191633178082556040516001600160a01b039190911691907fea8258f2d9ddb679928cf34b78cf645b7feda9acc828e4dd82d014eaae270eba908290a36001600160a01b038516620000f257600080fd5b6001600160601b0319606086901b166080526001600160a01b0384166200011857600080fd5b6001600160601b0319606085901b1660a0526001600160a01b0383166200013e57600080fd5b6001600160601b0319606084901b1660c0526001600160a01b0382166200016457600080fd5b6001600160601b0319606083901b1660e0526001600160a01b0381166200018a57600080fd5b600280546001600160a01b0319166001600160a01b0392909216919091179055506200030e92505050565b82805482825590600052602060002090600701600890048101928215620002595791602002820160005b838211156200022557835183826101000a81548163ffffffff021916908363ffffffff1602179055509260200192600401602081600301049283019260010302620001df565b8015620002575782816101000a81549063ffffffff021916905560040160208160030104928301926001030262000225565b505b50620002679291506200026b565b5090565b5b808211156200026757600081556001016200026c565b80516001600160a01b03811681146200029a57600080fd5b919050565b600080600080600060a08688031215620002b7578081fd5b620002c28662000282565b9450620002d26020870162000282565b9350620002e26040870162000282565b9250620002f26060870162000282565b9150620003026080870162000282565b90509295509295909350565b60805160601c60a05160601c60c05160601c60e05160601c6138c6620003c36000398061167b528061187e525080610e7b5280611169528061136352806113f752806123455250806105305280610fb3528061119652806112f7528061133652806114265280611829528061224b528061237352806123e25250806117d75280611a105280611c5d5280611d035280611e5152806121065280612198528061250e52806125ca52806126d652506138c66000f3fe608060405234801561001057600080fd5b506004361061027f5760003560e01c8063844b5c7c1161015c578063d4d863ce116100ce578063e392a26211610087578063e392a262146104f3578063e6c0e6d5146104fb578063e941fa7814610503578063f3fef3a31461050b578063f5c2ab5b1461051e578063fc7b9c18146105265761027f565b8063d4d863ce1461049c578063d4e29468146104af578063d5025625146104b7578063d7ccfb0b146104d0578063dc6549fb146104d8578063e0176de8146104eb5761027f565b8063b4abccba11610120578063b4abccba14610430578063c637f04214610443578063ca237ea514610456578063cd1234b314610469578063cea55f571461048c578063d24378eb146104945761027f565b8063844b5c7c146103f25780638dbdbe6d146103fa578063904b3ece1461040d57806398fabd3a14610415578063ae9832cf1461041d5761027f565b8063466a944e116101f557806361d027b3116101b957806361d027b3146103ac57806363b3256b146103b4578063741bef1a146103c7578063759076e5146103cf57806377b81895146103d75780637927ebf8146103df5761027f565b8063466a944e1461036357806346f68ee9146103765780634cf088d914610389578063507930ec146103915780635a96ac0a146103a45761027f565b80630dcf1417116102475780630dcf1417146102e75780631e321a0f146102fc5780631ed2d71a1461030f5780631feed31f146103225780632f3f470a14610335578063451ee4a11461034a5761027f565b8063016a42841461028457806301b88ee8146102a25780630505c8c9146102c2578063089208d8146102ca5780630ab69367146102d4575b600080fd5b61028c61052e565b6040516102999190613070565b60405180910390f35b6102b56102b0366004612e1d565b610552565b6040516102999190613774565b61028c6105aa565b6102d26105ba565b005b6102d26102e2366004612f8e565b610637565b6102ef610792565b6040516102999190613830565b6102d261030a366004612f06565b61079e565b6102d261031d366004612e1d565b6108ce565b6102b5610330366004612e40565b610919565b61033d610bd4565b60405161029991906130c1565b610352610be4565b6040516102999594939291906130cc565b6102d2610371366004612fd6565b610c0a565b6102d2610384366004612e1d565b610c82565b61028c610d2d565b6102b561039f366004612e1d565b610d3c565b6102d2610dee565b61028c610e79565b6102d26103c2366004612e1d565b610e9d565b61028c610f11565b6102b5610f20565b61028c610f3b565b6102b56103ed366004612f26565b610f4a565b6102b5610fa9565b6102b5610408366004612f56565b611081565b6102b56115dc565b61028c611679565b6102d261042b366004612ebf565b61169d565b61033d61043e366004612e1d565b6117d3565b6102d2610451366004612fd6565b611932565b6102ef610464366004612f26565b61199f565b61047c610477366004612e1d565b6119d9565b604051610299949392919061380c565b6102b5611a0b565b6102b5611ad4565b6102d26104aa366004612e40565b611b68565b61028c611c5b565b6104bf611c7f565b6040516102999594939291906137e3565b6102b5611c97565b61033d6104e6366004612e1d565b611cdd565b6102b5611cf2565b6102b5611d92565b6102ef611dee565b6102ef611e01565b6102b5610519366004612e78565b611e0d565b6102ef6124ba565b6102b56124c6565b7f000000000000000000000000000000000000000000000000000000000000000081565b60008061055e83610d3c565b6001600160a01b0384166000908152600e6020526040902054909150612710821061058b578092506105a3565b61271061059882846124cc565b8161059f57fe5b0492505b5050919050565b6000546001600160a01b03165b90565b6000546001600160a01b031633146105ed5760405162461bcd60e51b81526004016105e4906134ad565b60405180910390fd5b600080546040516001600160a01b03909116907fea8258f2d9ddb679928cf34b78cf645b7feda9acc828e4dd82d014eaae270eba908390a3600080546001600160a01b0319169055565b6000546001600160a01b031633146106615760405162461bcd60e51b81526004016105e4906134ad565b600554156106815760405162461bcd60e51b81526004016105e4906135ea565b60288510156106a25760405162461bcd60e51b81526004016105e4906135bd565b6103e88311156106c45760405162461bcd60e51b81526004016105e490613222565b6201fa408163ffffffff1610156106ed5760405162461bcd60e51b81526004016105e490613525565b6040805160a081018252868152602081018690528082018590526060810184905263ffffffff838116608090920182905260058881556006889055600787905560088690556009805463ffffffff19908116909417905560108054909316429092169190911790915590517f4fb499597f8acc79e010fe84ba77cd012e00c7c82c71934d1413a499da5bd364916107839161373b565b60405180910390a15050505050565b60145463ffffffff1681565b6000546001600160a01b031633146107c85760405162461bcd60e51b81526004016105e4906134ad565b60008260038111156107d657fe5b1415610819576201fa408110156107ff5760405162461bcd60e51b81526004016105e490613525565b6009805463ffffffff191663ffffffff8316179055610891565b600182600381111561082757fe5b1415610859576103e881111561084f5760405162461bcd60e51b81526004016105e490613222565b6007819055610891565b600282600381111561086757fe5b1415610877576008819055610891565b600382600381111561088557fe5b14156108915760068190555b7f4e3705d256225a38255bfb7114e7fa4b6b2939ab1f71639f57e06928858646c582826040516108c29291906130fa565b60405180910390a15050565b6000546001600160a01b031633146108f85760405162461bcd60e51b81526004016105e4906134ad565b6001600160a01b03166000908152601160205260409020805460ff19169055565b6000336001600160a01b038416146109435760405162461bcd60e51b81526004016105e49061363c565b61094b612da9565b506001600160a01b0383166000908152600e602090815260408083208151608081018352815481526001820154938101939093526002015463ffffffff80821692840192909252600160201b9004166060820152906109a985610d3c565b90506127108110610a8957604080516080810182526000808252602080830182815283850183815263ffffffff428116606087019081526001600160a01b038d16808752600e9095528786209651875592516001870155905160029095018054925163ffffffff199093169582169590951767ffffffff000000001916600160201b9290911691909102179092558451925191927f51c99f515c87b0d95ba97f616edd182e8f161c4932eac17c6fefe9dab58b77b192610a6992906137b8565b60405180910390a2610a80858584600001516124f0565b92505050610bce565b815160009061271090610a9c90846124cc565b81610aa357fe5b0490506040518060800160405280610ac88386600001516127f190919063ffffffff16565b815260200184602001518152602001610b10610af786606001514263ffffffff1661280190919063ffffffff16565b866040015163ffffffff1661280190919063ffffffff16565b63ffffffff90811682524281166020928301526001600160a01b0389166000818152600e8452604090819020855180825594860151600182015585820151600290910180546060909701518516600160201b0267ffffffff00000000199290951663ffffffff19909716969096171692909217909355517f51c99f515c87b0d95ba97f616edd182e8f161c4932eac17c6fefe9dab58b77b191610bb5918591906137b8565b60405180910390a2610bc88686836124f0565b93505050505b92915050565b600454600160a01b900460ff1681565b600a54600b54600c54600d5460ff9093169263ffffffff80821691600160201b90041685565b6000546001600160a01b03163314610c345760405162461bcd60e51b81526004016105e4906134ad565b60648163ffffffff161115610c5b5760405162461bcd60e51b81526004016105e490613257565b6014805463ffffffff909216600160201b0267ffffffff0000000019909216919091179055565b6000546001600160a01b03163314610cac5760405162461bcd60e51b81526004016105e4906134ad565b6001600160a01b038116610cd25760405162461bcd60e51b81526004016105e4906131dc565b600080546040516001600160a01b03808516939216917fea8258f2d9ddb679928cf34b78cf645b7feda9acc828e4dd82d014eaae270eba91a3600180546001600160a01b0319166001600160a01b0392909216919091179055565b6003546001600160a01b031681565b6000610d46612da9565b506001600160a01b0382166000908152600e602090815260408083208151608081018352815481526001820154938101939093526002015463ffffffff80821692840192909252600160201b9004811660608301819052919291610daf91428116919061280116565b604083015163ffffffff9182169250168015610de15780610dd2836127106124cc565b81610dd957fe5b049350610de6565b600093505b505050919050565b6001546001600160a01b03163314610e185760405162461bcd60e51b81526004016105e4906132fd565b600154600080546040516001600160a01b0393841693909116917faa151555690c956fc3ea32f106bb9f119b5237a061eaa8557cff3e51e3792c8d91a3600154600080546001600160a01b0319166001600160a01b03909216919091179055565b7f000000000000000000000000000000000000000000000000000000000000000081565b6000546001600160a01b03163314610ec75760405162461bcd60e51b81526004016105e4906134ad565b6001600160a01b038116610eed5760405162461bcd60e51b81526004016105e4906135a0565b6001600160a01b03166000908152601160205260409020805460ff19166001179055565b6002546001600160a01b031681565b6000610f36610f2d611d92565b600f54906127f1565b905090565b6004546001600160a01b031681565b6000662386f26fc10000610f99610f94846064610f87601460049054906101000a900463ffffffff1663ffffffff16610f81611c97565b906124cc565b81610f8e57fe5b0461281a565b612908565b81610fa057fe5b0490505b919050565b600060648061106c7f00000000000000000000000000000000000000000000000000000000000000006001600160a01b031663313ce5676040518163ffffffff1660e01b815260040160206040518083038186803b15801561100a57600080fd5b505afa15801561101e573d6000803e3d6000fd5b505050506040513d601f19601f820116820180604052508101906110429190613033565b60ff16600a0a610f81601460049054906101000a900463ffffffff1663ffffffff16610f81611c97565b8161107357fe5b048161107b57fe5b04905090565b60006001600160a01b0382166110a95760405162461bcd60e51b81526004016105e49061317c565b336001600160a01b03831614806110cf57503360009081526011602052604090205460ff165b6110eb5760405162461bcd60e51b81526004016105e49061368f565b6110f3612924565b600854600f5411156111175760405162461bcd60e51b81526004016105e490613404565b6000611121610fa9565b9050600061112d612949565b90508085101561114f5760405162461bcd60e51b81526004016105e4906134e2565b604051630f762d4d60e11b81526000906001600160a01b037f00000000000000000000000000000000000000000000000000000000000000001690631eec5a9a906111c0907f0000000000000000000000000000000000000000000000000000000000000000908b906004016130a8565b60206040518083038186803b1580156111d857600080fd5b505afa1580156111ec573d6000803e3d6000fd5b505050506040513d601f19601f820116820180604052508101906112109190612f3e565b9050600260009054906101000a90046001600160a01b03166001600160a01b031663313ce5676040518163ffffffff1660e01b815260040160206040518083038186803b15801561126057600080fd5b505afa158015611274573d6000803e3d6000fd5b505050506040513d601f19601f820116820180604052508101906112989190613033565b60ff16600a0a6112b06112a9611ad4565b83906124cc565b816112b757fe5b04905060006112c582610f4a565b9050629896808110156112ea5760405162461bcd60e51b81526004016105e490613469565b61131f6001600160a01b037f00000000000000000000000000000000000000000000000000000000000000001633308b612992565b60405163095ea7b360e01b81526001600160a01b037f0000000000000000000000000000000000000000000000000000000000000000169063095ea7b39061138d907f0000000000000000000000000000000000000000000000000000000000000000908c906004016130a8565b602060405180830381600087803b1580156113a757600080fd5b505af11580156113bb573d6000803e3d6000fd5b505050506040513d601f19601f820116820180604052508101906113df9190612ea3565b50604051636f0372af60e01b81526001600160a01b037f00000000000000000000000000000000000000000000000000000000000000001690636f0372af90611452908b907f00000000000000000000000000000000000000000000000000000000000000009087908790600401613794565b600060405180830381600087803b15801561146c57600080fd5b505af1158015611480573d6000803e3d6000fd5b5050604080516080810182526001600160a01b038a166000908152600e60205291909120549092508291506114b590846129f0565b815260208082018790526009805463ffffffff908116604080860191909152428083166060968701526001600160a01b038d166000908152600e865282902087518155948701516001860155908601516002909401805496909501518216600160201b0267ffffffff000000001994831663ffffffff199097169690961793909316949094179092559054869261155092918116906129f016565b827f1fec6dc81f140574bf43f6b1e420ae1dd47928b9d57db8cbd7b8611063b85ae58b6040516115809190613774565b60405180910390a4611590611a0b565b611598612949565b6115a0610fa9565b6040517f375b221f40939bfd8f49723a17cf7bc6d576ebf72efe2cc3e991826f5b3f390a90600090a46115d1612a00565b979650505050505050565b6002546040805163313ce56760e01b815290516000926001600160a01b03169163313ce567916004808301926020929190829003018186803b15801561162157600080fd5b505afa158015611635573d6000803e3d6000fd5b505050506040513d601f19601f820116820180604052508101906116599190613033565b60ff16600a0a61167261166a611ad4565b610f81611a0b565b8161107b57fe5b7f000000000000000000000000000000000000000000000000000000000000000081565b6000546001600160a01b031633146116c75760405162461bcd60e51b81526004016105e4906134ad565b6005546103e8906116d99060196124cc565b816116e057fe5b048311156117005760405162461bcd60e51b81526004016105e4906133ba565b60288210156117215760405162461bcd60e51b81526004016105e490613145565b6040805160a0810182528515158082526020820186905281830185905263ffffffff84811660608401819052429091166080909301839052600a805460ff19169092178255600b879055600c869055600d805463ffffffff191690911767ffffffff000000001916600160201b9093029290921790915590517f12e0d895835c5636a844b2d6d6e82e6b0e5e7df951b7beb2dcb89eb46ddb875e916117c5916136f7565b60405180910390a150505050565b60007f00000000000000000000000000000000000000000000000000000000000000006001600160a01b0316826001600160a01b031614156118275760405162461bcd60e51b81526004016105e49061361f565b7f00000000000000000000000000000000000000000000000000000000000000006001600160a01b0316826001600160a01b031614156118795760405162461bcd60e51b81526004016105e4906133e7565b61192a7f0000000000000000000000000000000000000000000000000000000000000000836001600160a01b03166370a08231306040518263ffffffff1660e01b81526004016118c99190613070565b60206040518083038186803b1580156118e157600080fd5b505afa1580156118f5573d6000803e3d6000fd5b505050506040513d601f19601f820116820180604052508101906119199190612f3e565b6001600160a01b0385169190612aff565b506001919050565b6000546001600160a01b0316331461195c5760405162461bcd60e51b81526004016105e4906134ad565b60648163ffffffff1611156119835760405162461bcd60e51b81526004016105e4906131a5565b6012805463ffffffff191663ffffffff92909216919091179055565b601381815481106119af57600080fd5b9060005260206000209060089182820401919006600402915054906101000a900463ffffffff1681565b600e6020526000908152604090208054600182015460029092015490919063ffffffff80821691600160201b90041684565b6000807f00000000000000000000000000000000000000000000000000000000000000006001600160a01b03166318160ddd6040518163ffffffff1660e01b815260040160206040518083038186803b158015611a6757600080fd5b505afa158015611a7b573d6000803e3d6000fd5b505050506040513d601f19601f82011682018060405250810190611a9f9190612f3e565b9050670de0b6b3a7640000611ac6610f94611ac0633b9aca00610f81610f20565b8461281a565b81611acd57fe5b0491505090565b600080600260009054906101000a90046001600160a01b03166001600160a01b031663feaf968c6040518163ffffffff1660e01b815260040160a06040518083038186803b158015611b2557600080fd5b505afa158015611b39573d6000803e3d6000fd5b505050506040513d601f19601f82011682018060405250810190611b5d9190612ff0565b509194505050505090565b6000546001600160a01b03163314611b925760405162461bcd60e51b81526004016105e4906134ad565b6001600160a01b038216611bb85760405162461bcd60e51b81526004016105e490613491565b8015611bed5760048054600160a01b60ff60a01b19909116176001600160a01b0319166001600160a01b038416179055611c16565b6004805460ff60a01b19169055600380546001600160a01b0319166001600160a01b0384161790555b816001600160a01b03167f9618307401872b2d1dc9c414b9568d81ab7cdf31913dbbcbcc296036b4a6a35782604051611c4f91906130c1565b60405180910390a25050565b7f000000000000000000000000000000000000000000000000000000000000000081565b60055460065460075460085460095463ffffffff1685565b600062989680611cbf633b9aca00611cb9611cb0611a0b565b600554906124cc565b906129f0565b81611cc657fe5b0490506005600101548110156105b7575060065490565b60116020526000908152604090205460ff1681565b6000620186a06116726005600201547f00000000000000000000000000000000000000000000000000000000000000006001600160a01b03166318160ddd6040518163ffffffff1660e01b815260040160206040518083038186803b158015611d5a57600080fd5b505afa158015611d6e573d6000803e3d6000fd5b505050506040513d601f19601f82011682018060405250810190610f819190612f3e565b6010546000908190611db09063ffffffff4281169181169061280116565b600954600f5491925063ffffffff90811691611dd091808516906124cc16565b81611dd757fe5b049150600f54821115611dea57600f5491505b5090565b601454600160201b900463ffffffff1681565b60125463ffffffff1681565b6000336001600160a01b03841614611e375760405162461bcd60e51b81526004016105e49061363c565b6040516370a0823160e01b81526000906001600160a01b037f000000000000000000000000000000000000000000000000000000000000000016906370a0823190611e86908790600401613070565b60206040518083038186803b158015611e9e57600080fd5b505afa158015611eb2573d6000803e3d6000fd5b505050506040513d601f19601f82011682018060405250810190611ed69190612f3e565b60145490915061271090611ef590839063ffffffff908116906124cc16565b81611efc57fe5b04831115611f1c5760405162461bcd60e51b81526004016105e4906132cf565b611f24612da9565b506001600160a01b0384166000908152600e602090815260408083208151608081018352815481526001820154938101939093526002015463ffffffff80821692840192909252600160201b9004166060820152601380549192611fbc92611f8857fe5b60009182526020909120600882040154606084015163ffffffff908116926007166004026101000a909104811690612b2316565b63ffffffff164263ffffffff161115611fe75760405162461bcd60e51b81526004016105e49061333f565b611ff86013600181548110611f8857fe5b63ffffffff164263ffffffff161015801561207e575061206e6201518061205a601360018154811061202657fe5b60009182526020909120600882040154606086015163ffffffff908116926007166004026101000a909104811690612b2316565b63ffffffff16612b2390919063ffffffff16565b63ffffffff164263ffffffff1611155b806120d357506120956013600281548110611f8857fe5b63ffffffff164263ffffffff16101580156120d357506120c36201518061205a601360028154811061202657fe5b63ffffffff164263ffffffff1611155b6120ef5760405162461bcd60e51b81526004016105e490613298565b6040516323b872dd60e01b81526001600160a01b037f000000000000000000000000000000000000000000000000000000000000000016906323b872dd9061213f90339030908990600401613084565b602060405180830381600087803b15801561215957600080fd5b505af115801561216d573d6000803e3d6000fd5b505050506040513d601f19601f820116820180604052508101906121919190612ea3565b50600060647f00000000000000000000000000000000000000000000000000000000000000006001600160a01b031663313ce5676040518163ffffffff1660e01b815260040160206040518083038186803b1580156121ef57600080fd5b505afa158015612203573d6000803e3d6000fd5b505050506040513d601f19601f820116820180604052508101906122279190613033565b60ff166122e4601460049054906101000a900463ffffffff1663ffffffff16610f817f00000000000000000000000000000000000000000000000000000000000000006001600160a01b031663313ce5676040518163ffffffff1660e01b815260040160206040518083038186803b1580156122a257600080fd5b505afa1580156122b6573d6000803e3d6000fd5b505050506040513d601f19601f820116820180604052508101906122da9190613033565b8a9060ff166124cc565b816122eb57fe5b04816122f357fe5b601454919004915060009060649061231690849063ffffffff908116906124cc16565b8161231d57fe5b049050600061232c83836127f1565b604051627b8a6760e11b81529091506001600160a01b037f0000000000000000000000000000000000000000000000000000000000000000169062f714ce9061239b9084907f00000000000000000000000000000000000000000000000000000000000000009060040161377d565b600060405180830381600087803b1580156123b557600080fd5b505af11580156123c9573d6000803e3d6000fd5b505060405163a9059cbb60e01b81526001600160a01b037f000000000000000000000000000000000000000000000000000000000000000016925063a9059cbb915061241b90339085906004016130a8565b602060405180830381600087803b15801561243557600080fd5b505af1158015612449573d6000803e3d6000fd5b505050506040513d601f19601f8201168201806040525081019061246d9190612ea3565b50876001600160a01b03167f29da31bbe163a1f92dbb529f8257139939e95923d11bb6f0eadf9c90d4a10c21826040516124a79190613774565b60405180910390a2979650505050505050565b60105463ffffffff1681565b600f5481565b60008215806124e7575050818102818382816124e457fe5b04145b610bce57600080fd5b60008261259d5760405163a9059cbb60e01b81526001600160a01b037f0000000000000000000000000000000000000000000000000000000000000000169063a9059cbb9061254590879086906004016130a8565b602060405180830381600087803b15801561255f57600080fd5b505af1158015612573573d6000803e3d6000fd5b505050506040513d601f19601f820116820180604052508101906125979190612ea3565b506127ea565b600454600160a01b900460ff16156126bc576004805460405163095ea7b360e01b81526001600160a01b037f000000000000000000000000000000000000000000000000000000000000000081169363095ea7b393612601939216918791016130a8565b602060405180830381600087803b15801561261b57600080fd5b505af115801561262f573d6000803e3d6000fd5b505050506040513d601f19601f820116820180604052508101906126539190612ea3565b5060048054604051637acb775760e01b81526001600160a01b0390911691637acb77579161268591869189910161377d565b600060405180830381600087803b15801561269f57600080fd5b505af11580156126b3573d6000803e3d6000fd5b505050506127ea565b60035460405163095ea7b360e01b81526001600160a01b037f000000000000000000000000000000000000000000000000000000000000000081169263095ea7b39261271192919091169086906004016130a8565b602060405180830381600087803b15801561272b57600080fd5b505af115801561273f573d6000803e3d6000fd5b505050506040513d601f19601f820116820180604052508101906127639190612ea3565b50600354604051637acb775760e01b81526001600160a01b0390911690637acb775790612796908590889060040161377d565b602060405180830381600087803b1580156127b057600080fd5b505af11580156127c4573d6000803e3d6000fd5b505050506040513d601f19601f820116820180604052508101906127e89190612ea3565b505b5092915050565b80820382811115610bce57600080fd5b80820363ffffffff8084169082161115610bce57600080fd5b612822612ddd565b600082116128425760405162461bcd60e51b81526004016105e490613374565b8261285c5750604080516020810190915260008152610bce565b71ffffffffffffffffffffffffffffffffffff83116128ce57600082607085901b8161288457fe5b0490506001600160e01b038111156128ae5760405162461bcd60e51b81526004016105e490613569565b6040518060200160405280826001600160e01b0316815250915050610bce565b60006128df84600160701b85612b3c565b90506001600160e01b038111156128ae5760405162461bcd60e51b81526004016105e490613569565b80516000906612725dd1d243ab906001600160e01b0316610fa0565b61292f610f2d611d92565b600f556010805463ffffffff19164263ffffffff16179055565b600062989680612962633b9aca00611cb9611cb0611a0b565b8161296957fe5b04905060056001015481101561298257506006546105b7565b600654156105b757600060065590565b6129ea846323b872dd60e01b8585856040516024016129b393929190613084565b60408051601f198184030181529190526020810180516001600160e01b03166001600160e01b031990931692909217909152612b9c565b50505050565b80820182811015610bce57600080fd5b600d54600090612a229063ffffffff600160201b8204811691811690612b2316565b63ffffffff169050600a60010154600014158015612a405750804210155b15612afc57600554600a5460ff1615612a7a57600b54600554612a62916129f0565b6005819055600c5411612a75576000600b555b612a9c565b600b54600554612a89916127f1565b6005819055600c5410612a9c576000600b555b600d805467ffffffff000000001916600160201b4263ffffffff1602179055600554600b54600a546040517fb923e581a0f83128e9e1d8297aa52b18d6744310476e0b54509c054cd7a93b2a936108c29386939192909160ff16906137c6565b50565b612b1e8363a9059cbb60e01b84846040516024016129b39291906130a8565b505050565b80820163ffffffff8084169082161015610bce57600080fd5b6000806000612b4b8686612c2b565b9150915060008480612b5957fe5b868809905082811115612b6d576001820391505b8083039250848210612b915760405162461bcd60e51b81526004016105e490613432565b6115d1838387612c58565b6060612bf1826040518060400160405280602081526020017f5361666545524332303a206c6f772d6c6576656c2063616c6c206661696c6564815250856001600160a01b0316612cc89092919063ffffffff16565b805190915015612b1e5780806020019051810190612c0f9190612ea3565b612b1e5760405162461bcd60e51b81526004016105e4906136ad565b6000808060001984860990508385029250828103915082811015612c50576001820391505b509250929050565b60008181038216808381612c6857fe5b049250808581612c7457fe5b049450808160000381612c8357fe5b60028581038087028203028087028203028087028203028087028203028087028203028087028203029586029003909402930460010193909302939093010292915050565b6060612cd78484600085612cdf565b949350505050565b6060612cea85612da3565b612d065760405162461bcd60e51b81526004016105e490613658565b60006060866001600160a01b03168587604051612d239190613054565b60006040518083038185875af1925050503d8060008114612d60576040519150601f19603f3d011682016040523d82523d6000602084013e612d65565b606091505b50915091508115612d79579150612cd79050565b805115612d895780518082602001fd5b8360405162461bcd60e51b81526004016105e49190613112565b3b151590565b60405180608001604052806000815260200160008152602001600063ffffffff168152602001600063ffffffff1681525090565b60408051602081019091526000815290565b803563ffffffff81168114610fa457600080fd5b805169ffffffffffffffffffff81168114610fa457600080fd5b600060208284031215612e2e578081fd5b8135612e398161386d565b9392505050565b60008060408385031215612e52578081fd5b8235612e5d8161386d565b91506020830135612e6d81613882565b809150509250929050565b60008060408385031215612e8a578182fd5b8235612e958161386d565b946020939093013593505050565b600060208284031215612eb4578081fd5b8151612e3981613882565b60008060008060808587031215612ed4578182fd5b8435612edf81613882565b93506020850135925060408501359150612efb60608601612def565b905092959194509250565b60008060408385031215612f18578182fd5b823560048110612e95578283fd5b600060208284031215612f37578081fd5b5035919050565b600060208284031215612f4f578081fd5b5051919050565b600080600060608486031215612f6a578283fd5b83359250602084013591506040840135612f838161386d565b809150509250925092565b600080600080600060a08688031215612fa5578081fd5b85359450602086013593506040860135925060608601359150612fca60808701612def565b90509295509295909350565b600060208284031215612fe7578081fd5b612e3982612def565b600080600080600060a08688031215613007578081fd5b61301086612e03565b9450602086015193506040860151925060608601519150612fca60808701612e03565b600060208284031215613044578081fd5b815160ff81168114612e39578182fd5b60008251613066818460208701613841565b9190910192915050565b6001600160a01b0391909116815260200190565b6001600160a01b039384168152919092166020820152604081019190915260600190565b6001600160a01b03929092168252602082015260400190565b901515815260200190565b94151585526020850193909352604084019190915263ffffffff908116606084015216608082015260a00190565b604081016004841061310857fe5b9281526020015290565b6000602082528251806020840152613131816040850160208701613841565b601f01601f19169190910160400192915050565b6020808252601f908201527f4e6578742041646a7573746d656e7420636f756c64206265206c6f636b656400604082015260600190565b6020808252600f908201526e496e76616c6964206164647265737360881b604082015260600190565b6020808252601f908201527f5769746864726177466565206d757374206c657373207468616e203130302500604082015260600190565b60208082526026908201527f4f776e61626c653a206e6577206f776e657220697320746865207a65726f206160408201526564647265737360d01b606082015260800190565b6020808252818101527f5061796f75742063616e6e6f742062652061626f766520312070657263656e74604082015260600190565b60208082526021908201527f446973636f756e742052617465206d757374206c657373207468616e203130306040820152602560f81b606082015260800190565b60208082526019908201527f556e617661696c61626c65207769746864726177207465726d00000000000000604082015260600190565b602080825260149082015273496e73756666696369656e742062616c616e636560601b604082015260600190565b60208082526022908201527f4f776e61626c653a206d757374206265206e6577206f776e657220746f2070756040820152611b1b60f21b606082015260800190565b6020808252818101527f44697361626c6520746f20776974686472617720616674657220312079656172604082015260600190565b60208082526026908201527f4669786564506f696e743a3a6672616374696f6e3a206469766973696f6e206260408201526579207a65726f60d01b606082015260800190565b602080825260139082015272496e6372656d656e7420746f6f206c6172676560681b604082015260600190565b60208082526003908201526204e41560ec1b604082015260600190565b60208082526014908201527313585e0818d85c1858da5d1e481c995858da195960621b604082015260600190565b6020808252601a908201527f46756c6c4d6174683a3a6d756c4469763a206f766572666c6f77000000000000604082015260600190565b6020808252600e908201526d109bdb99081d1bdbc81cdb585b1b60921b604082015260600190565b602080825260029082015261494160f01b604082015260600190565b6020808252818101527f4f776e61626c653a2063616c6c6572206973206e6f7420746865206f776e6572604082015260600190565b60208082526023908201527f536c697070616765206c696d69743a206d6f7265207468616e206d617820707260408201526269636560e81b606082015260800190565b60208082526024908201527f56657374696e67206d757374206265206c6f6e676572207468616e20333620686040820152636f75727360e01b606082015260800190565b6020808252601e908201527f4669786564506f696e743a3a6672616374696f6e3a206f766572666c6f770000604082015260600190565b6020808252600390820152625a4e4160e81b604082015260600190565b60208082526013908201527210d85b881b1bd8dac818591a9d5cdd1b595b9d606a1b604082015260600190565b6020808252818101527f426f6e6473206d75737420626520696e697469616c697a65642066726f6d2030604082015260600190565b60208082526003908201526213905560ea1b604082015260600190565b6020808252600290820152614e4160f01b604082015260600190565b6020808252601d908201527f416464726573733a2063616c6c20746f206e6f6e2d636f6e7472616374000000604082015260600190565b6020808252600490820152634c464e4160e01b604082015260600190565b6020808252602a908201527f5361666545524332303a204552433230206f7065726174696f6e20646964206e6040820152691bdd081cdd58d8d9595960b21b606082015260800190565b815460ff161515815260018201546020808301919091526002830154604083015260039092015463ffffffff8082166060840152921c909116608082015260a00190565b8154815260018201546020820152600282015460408201526003820154606082015260049091015463ffffffff16608082015260a00190565b90815260200190565b9182526001600160a01b0316602082015260400190565b9384526001600160a01b039290921660208401526040830152606082015260800190565b918252602082015260400190565b938452602084019290925260408301521515606082015260800190565b94855260208501939093526040840191909152606083015263ffffffff16608082015260a00190565b938452602084019290925263ffffffff908116604084015216606082015260800190565b63ffffffff91909116815260200190565b60005b8381101561385c578181015183820152602001613844565b838111156129ea5750506000910152565b6001600160a01b0381168114612afc57600080fd5b8015158114612afc57600080fdfea264697066735822122065db72fe55f5973050d66d9ea38faca628d4e473451e246a323ae38a42d4c25364736f6c63430007050033",
  "linkReferences": {},
  "deployedLinkReferences": {}
}