{
  "_format": "hh-sol-artifact-1",
  "contractName": "SabBondDepository",
  "sourceName": "contracts/BondDepository_USDC.sol",
  "abi": [
    {
      "inputs": [
        {
          "internalType": "address",
          "name": "_Sab",
          "type": "address"
        },
        {
          "internalType": "address",
          "name": "_principle",
          "type": "address"
        },
        {
          "internalType": "address",
          "name": "_treasury",
          "type": "address"
        },
        {
          "internalType": "address",
          "name": "_DAO",
          "type": "address"
        },
        {
          "internalType": "address",
          "name": "_bondCalculator",
          "type": "address"
        }
      ],
      "stateMutability": "nonpayable",
      "type": "constructor"
    },
    {
      "anonymous": false,
      "inputs": [
        {
          "indexed": false,
          "internalType": "uint256",
          "name": "deposit",
          "type": "uint256"
        },
        {
          "indexed": true,
          "internalType": "uint256",
          "name": "payout",
          "type": "uint256"
        },
        {
          "indexed": true,
          "internalType": "uint256",
          "name": "expires",
          "type": "uint256"
        },
        {
          "indexed": true,
          "internalType": "uint256",
          "name": "priceInUSD",
          "type": "uint256"
        }
      ],
      "name": "BondCreated",
      "type": "event"
    },
    {
      "anonymous": false,
      "inputs": [
        {
          "indexed": true,
          "internalType": "uint256",
          "name": "priceInUSD",
          "type": "uint256"
        },
        {
          "indexed": true,
          "internalType": "uint256",
          "name": "internalPrice",
          "type": "uint256"
        },
        {
          "indexed": true,
          "internalType": "uint256",
          "name": "debtRatio",
          "type": "uint256"
        }
      ],
      "name": "BondPriceChanged",
      "type": "event"
    },
    {
      "anonymous": false,
      "inputs": [
        {
          "indexed": true,
          "internalType": "address",
          "name": "recipient",
          "type": "address"
        },
        {
          "indexed": false,
          "internalType": "uint256",
          "name": "payout",
          "type": "uint256"
        },
        {
          "indexed": false,
          "internalType": "uint256",
          "name": "remaining",
          "type": "uint256"
        }
      ],
      "name": "BondRedeemed",
      "type": "event"
    },
    {
      "anonymous": false,
      "inputs": [
        {
          "indexed": false,
          "internalType": "uint256",
          "name": "initialBCV",
          "type": "uint256"
        },
        {
          "indexed": false,
          "internalType": "uint256",
          "name": "newBCV",
          "type": "uint256"
        },
        {
          "indexed": false,
          "internalType": "uint256",
          "name": "adjustment",
          "type": "uint256"
        },
        {
          "indexed": false,
          "internalType": "bool",
          "name": "addition",
          "type": "bool"
        }
      ],
      "name": "ControlVariableAdjustment",
      "type": "event"
    },
    {
      "anonymous": false,
      "inputs": [
        {
          "components": [
            {
              "internalType": "uint256",
              "name": "controlVariable",
              "type": "uint256"
            },
            {
              "internalType": "uint256",
              "name": "minimumPrice",
              "type": "uint256"
            },
            {
              "internalType": "uint256",
              "name": "maxPayout",
              "type": "uint256"
            },
            {
              "internalType": "uint256",
              "name": "fee",
              "type": "uint256"
            },
            {
              "internalType": "uint256",
              "name": "maxDebt",
              "type": "uint256"
            },
            {
              "internalType": "uint32",
              "name": "vestingTerm",
              "type": "uint32"
            }
          ],
          "indexed": false,
          "internalType": "struct SabBondDepository.Terms",
          "name": "terms",
          "type": "tuple"
        }
      ],
      "name": "InitTerms",
      "type": "event"
    },
    {
      "anonymous": false,
      "inputs": [
        {
          "indexed": true,
          "internalType": "address",
          "name": "tokenToRecover",
          "type": "address"
        },
        {
          "indexed": false,
          "internalType": "uint256",
          "name": "amount",
          "type": "uint256"
        }
      ],
      "name": "LogRecoverLostToken",
      "type": "event"
    },
    {
      "anonymous": false,
      "inputs": [
        {
          "components": [
            {
              "internalType": "bool",
              "name": "add",
              "type": "bool"
            },
            {
              "internalType": "uint256",
              "name": "rate",
              "type": "uint256"
            },
            {
              "internalType": "uint256",
              "name": "target",
              "type": "uint256"
            },
            {
              "internalType": "uint32",
              "name": "buffer",
              "type": "uint32"
            },
            {
              "internalType": "uint32",
              "name": "lastTime",
              "type": "uint32"
            }
          ],
          "indexed": false,
          "internalType": "struct SabBondDepository.Adjust",
          "name": "adjust",
          "type": "tuple"
        }
      ],
      "name": "LogSetAdjustment",
      "type": "event"
    },
    {
      "anonymous": false,
      "inputs": [
        {
          "indexed": true,
          "internalType": "address",
          "name": "stakingContract",
          "type": "address"
        },
        {
          "indexed": false,
          "internalType": "bool",
          "name": "isHelper",
          "type": "bool"
        }
      ],
      "name": "LogSetStaking",
      "type": "event"
    },
    {
      "anonymous": false,
      "inputs": [
        {
          "indexed": false,
          "internalType": "enum SabBondDepository.PARAMETER",
          "name": "param",
          "type": "uint8"
        },
        {
          "indexed": false,
          "internalType": "uint256",
          "name": "value",
          "type": "uint256"
        }
      ],
      "name": "LogSetTerms",
      "type": "event"
    },
    {
      "anonymous": false,
      "inputs": [
        {
          "indexed": true,
          "internalType": "address",
          "name": "previousOwner",
          "type": "address"
        },
        {
          "indexed": true,
          "internalType": "address",
          "name": "newOwner",
          "type": "address"
        }
      ],
      "name": "OwnershipTransferred",
      "type": "event"
    },
    {
      "anonymous": false,
      "inputs": [
        {
          "indexed": true,
          "internalType": "address",
          "name": "recipient",
          "type": "address"
        },
        {
          "indexed": false,
          "internalType": "uint256",
          "name": "returnAmount",
          "type": "uint256"
        }
      ],
      "name": "ReserveWithdrawl",
      "type": "event"
    },
    {
      "inputs": [],
      "name": "DAO",
      "outputs": [
        {
          "internalType": "address",
          "name": "",
          "type": "address"
        }
      ],
      "stateMutability": "view",
      "type": "function"
    },
    {
      "inputs": [],
      "name": "Sab",
      "outputs": [
        {
          "internalType": "contract IERC20",
          "name": "",
          "type": "address"
        }
      ],
      "stateMutability": "view",
      "type": "function"
    },
    {
      "inputs": [],
      "name": "adjustment",
      "outputs": [
        {
          "internalType": "bool",
          "name": "add",
          "type": "bool"
        },
        {
          "internalType": "uint256",
          "name": "rate",
          "type": "uint256"
        },
        {
          "internalType": "uint256",
          "name": "target",
          "type": "uint256"
        },
        {
          "internalType": "uint32",
          "name": "buffer",
          "type": "uint32"
        },
        {
          "internalType": "uint32",
          "name": "lastTime",
          "type": "uint32"
        }
      ],
      "stateMutability": "view",
      "type": "function"
    },
    {
      "inputs": [
        {
          "internalType": "address",
          "name": "zapper",
          "type": "address"
        }
      ],
      "name": "allowZapper",
      "outputs": [],
      "stateMutability": "nonpayable",
      "type": "function"
    },
    {
      "inputs": [
        {
          "internalType": "address",
          "name": "",
          "type": "address"
        }
      ],
      "name": "allowedZappers",
      "outputs": [
        {
          "internalType": "bool",
          "name": "",
          "type": "bool"
        }
      ],
      "stateMutability": "view",
      "type": "function"
    },
    {
      "inputs": [],
      "name": "bondCalculator",
      "outputs": [
        {
          "internalType": "contract IBondCalculator",
          "name": "",
          "type": "address"
        }
      ],
      "stateMutability": "view",
      "type": "function"
    },
    {
      "inputs": [
        {
          "internalType": "address",
          "name": "",
          "type": "address"
        }
      ],
      "name": "bondInfo",
      "outputs": [
        {
          "internalType": "uint256",
          "name": "payout",
          "type": "uint256"
        },
        {
          "internalType": "uint256",
          "name": "pricePaid",
          "type": "uint256"
        },
        {
          "internalType": "uint32",
          "name": "lastTime",
          "type": "uint32"
        },
        {
          "internalType": "uint32",
          "name": "vesting",
          "type": "uint32"
        }
      ],
      "stateMutability": "view",
      "type": "function"
    },
    {
      "inputs": [],
      "name": "bondPrice",
      "outputs": [
        {
          "internalType": "uint256",
          "name": "price_",
          "type": "uint256"
        }
      ],
      "stateMutability": "view",
      "type": "function"
    },
    {
      "inputs": [],
      "name": "bondPriceInUSD",
      "outputs": [
        {
          "internalType": "uint256",
          "name": "price_",
          "type": "uint256"
        }
      ],
      "stateMutability": "view",
      "type": "function"
    },
    {
      "inputs": [],
      "name": "claimOwnership",
      "outputs": [],
      "stateMutability": "nonpayable",
      "type": "function"
    },
    {
      "inputs": [],
      "name": "currentDebt",
      "outputs": [
        {
          "internalType": "uint256",
          "name": "",
          "type": "uint256"
        }
      ],
      "stateMutability": "view",
      "type": "function"
    },
    {
      "inputs": [],
      "name": "debtDecay",
      "outputs": [
        {
          "internalType": "uint256",
          "name": "decay_",
          "type": "uint256"
        }
      ],
      "stateMutability": "view",
      "type": "function"
    },
    {
      "inputs": [],
      "name": "debtRatio",
      "outputs": [
        {
          "internalType": "uint256",
          "name": "debtRatio_",
          "type": "uint256"
        }
      ],
      "stateMutability": "view",
      "type": "function"
    },
    {
      "inputs": [
        {
          "internalType": "uint256",
          "name": "_amount",
          "type": "uint256"
        },
        {
          "internalType": "uint256",
          "name": "_maxPrice",
          "type": "uint256"
        },
        {
          "internalType": "address",
          "name": "_depositor",
          "type": "address"
        }
      ],
      "name": "deposit",
      "outputs": [
        {
          "internalType": "uint256",
          "name": "",
          "type": "uint256"
        }
      ],
      "stateMutability": "nonpayable",
      "type": "function"
    },
    {
      "inputs": [],
      "name": "discountRate",
      "outputs": [
        {
          "internalType": "uint32",
          "name": "",
          "type": "uint32"
        }
      ],
      "stateMutability": "view",
      "type": "function"
    },
    {
      "inputs": [
        {
          "internalType": "uint256",
          "name": "_controlVariable",
          "type": "uint256"
        },
        {
          "internalType": "uint256",
          "name": "_minimumPrice",
          "type": "uint256"
        },
        {
          "internalType": "uint256",
          "name": "_maxPayout",
          "type": "uint256"
        },
        {
          "internalType": "uint256",
          "name": "_fee",
          "type": "uint256"
        },
        {
          "internalType": "uint256",
          "name": "_maxDebt",
          "type": "uint256"
        },
        {
          "internalType": "uint32",
          "name": "_vestingTerm",
          "type": "uint32"
        }
      ],
      "name": "initializeBondTerms",
      "outputs": [],
      "stateMutability": "nonpayable",
      "type": "function"
    },
    {
      "inputs": [],
      "name": "isLiquidityBond",
      "outputs": [
        {
          "internalType": "bool",
          "name": "",
          "type": "bool"
        }
      ],
      "stateMutability": "view",
      "type": "function"
    },
    {
      "inputs": [],
      "name": "lastDecay",
      "outputs": [
        {
          "internalType": "uint32",
          "name": "",
          "type": "uint32"
        }
      ],
      "stateMutability": "view",
      "type": "function"
    },
    {
      "inputs": [],
      "name": "maxPayout",
      "outputs": [
        {
          "internalType": "uint256",
          "name": "",
          "type": "uint256"
        }
      ],
      "stateMutability": "view",
      "type": "function"
    },
    {
      "inputs": [],
      "name": "owner",
      "outputs": [
        {
          "internalType": "address",
          "name": "",
          "type": "address"
        }
      ],
      "stateMutability": "view",
      "type": "function"
    },
    {
      "inputs": [
        {
          "internalType": "uint256",
          "name": "_value",
          "type": "uint256"
        }
      ],
      "name": "payoutFor",
      "outputs": [
        {
          "internalType": "uint256",
          "name": "",
          "type": "uint256"
        }
      ],
      "stateMutability": "view",
      "type": "function"
    },
    {
      "inputs": [],
      "name": "pendingOwner",
      "outputs": [
        {
          "internalType": "address",
          "name": "",
          "type": "address"
        }
      ],
      "stateMutability": "view",
      "type": "function"
    },
    {
      "inputs": [
        {
          "internalType": "address",
          "name": "_depositor",
          "type": "address"
        }
      ],
      "name": "pendingPayoutFor",
      "outputs": [
        {
          "internalType": "uint256",
          "name": "pendingPayout_",
          "type": "uint256"
        }
      ],
      "stateMutability": "view",
      "type": "function"
    },
    {
      "inputs": [
        {
          "internalType": "address",
          "name": "_depositor",
          "type": "address"
        }
      ],
      "name": "percentVestedFor",
      "outputs": [
        {
          "internalType": "uint256",
          "name": "percentVested_",
          "type": "uint256"
        }
      ],
      "stateMutability": "view",
      "type": "function"
    },
    {
      "inputs": [],
      "name": "principle",
      "outputs": [
        {
          "internalType": "contract IERC20",
          "name": "",
          "type": "address"
        }
      ],
      "stateMutability": "view",
      "type": "function"
    },
    {
      "inputs": [
        {
          "internalType": "contract IERC20",
          "name": "_token",
          "type": "address"
        }
      ],
      "name": "recoverLostToken",
      "outputs": [
        {
          "internalType": "bool",
          "name": "",
          "type": "bool"
        }
      ],
      "stateMutability": "nonpayable",
      "type": "function"
    },
    {
      "inputs": [
        {
          "internalType": "address",
          "name": "_recipient",
          "type": "address"
        },
        {
          "internalType": "bool",
          "name": "_stake",
          "type": "bool"
        }
      ],
      "name": "redeem",
      "outputs": [
        {
          "internalType": "uint256",
          "name": "",
          "type": "uint256"
        }
      ],
      "stateMutability": "nonpayable",
      "type": "function"
    },
    {
      "inputs": [
        {
          "internalType": "address",
          "name": "zapper",
          "type": "address"
        }
      ],
      "name": "removeZapper",
      "outputs": [],
      "stateMutability": "nonpayable",
      "type": "function"
    },
    {
      "inputs": [
        {
          "internalType": "bool",
          "name": "_addition",
          "type": "bool"
        },
        {
          "internalType": "uint256",
          "name": "_increment",
          "type": "uint256"
        },
        {
          "internalType": "uint256",
          "name": "_target",
          "type": "uint256"
        },
        {
          "internalType": "uint32",
          "name": "_buffer",
          "type": "uint32"
        }
      ],
      "name": "setAdjustment",
      "outputs": [],
      "stateMutability": "nonpayable",
      "type": "function"
    },
    {
      "inputs": [
        {
          "internalType": "enum SabBondDepository.PARAMETER",
          "name": "_parameter",
          "type": "uint8"
        },
        {
          "internalType": "uint256",
          "name": "_input",
          "type": "uint256"
        }
      ],
      "name": "setBondTerms",
      "outputs": [],
      "stateMutability": "nonpayable",
      "type": "function"
    },
    {
      "inputs": [
        {
          "internalType": "uint32",
          "name": "_discountrate",
          "type": "uint32"
        }
      ],
      "name": "setDiscountRate",
      "outputs": [],
      "stateMutability": "nonpayable",
      "type": "function"
    },
    {
      "inputs": [
        {
          "internalType": "address",
          "name": "_staking",
          "type": "address"
        },
        {
          "internalType": "bool",
          "name": "_helper",
          "type": "bool"
        }
      ],
      "name": "setStaking",
      "outputs": [],
      "stateMutability": "nonpayable",
      "type": "function"
    },
    {
      "inputs": [
        {
          "internalType": "uint32",
          "name": "_withdrawfee",
          "type": "uint32"
        }
      ],
      "name": "setWithdrawFee",
      "outputs": [],
      "stateMutability": "nonpayable",
      "type": "function"
    },
    {
      "inputs": [],
      "name": "staking",
      "outputs": [
        {
          "internalType": "contract IStaking",
          "name": "",
          "type": "address"
        }
      ],
      "stateMutability": "view",
      "type": "function"
    },
    {
      "inputs": [],
      "name": "stakingHelper",
      "outputs": [
        {
          "internalType": "contract IStakingHelper",
          "name": "",
          "type": "address"
        }
      ],
      "stateMutability": "view",
      "type": "function"
    },
    {
      "inputs": [],
      "name": "standardizedDebtRatio",
      "outputs": [
        {
          "internalType": "uint256",
          "name": "",
          "type": "uint256"
        }
      ],
      "stateMutability": "view",
      "type": "function"
    },
    {
      "inputs": [],
      "name": "terms",
      "outputs": [
        {
          "internalType": "uint256",
          "name": "controlVariable",
          "type": "uint256"
        },
        {
          "internalType": "uint256",
          "name": "minimumPrice",
          "type": "uint256"
        },
        {
          "internalType": "uint256",
          "name": "maxPayout",
          "type": "uint256"
        },
        {
          "internalType": "uint256",
          "name": "fee",
          "type": "uint256"
        },
        {
          "internalType": "uint256",
          "name": "maxDebt",
          "type": "uint256"
        },
        {
          "internalType": "uint32",
          "name": "vestingTerm",
          "type": "uint32"
        }
      ],
      "stateMutability": "view",
      "type": "function"
    },
    {
      "inputs": [],
      "name": "totalDebt",
      "outputs": [
        {
          "internalType": "uint256",
          "name": "",
          "type": "uint256"
        }
      ],
      "stateMutability": "view",
      "type": "function"
    },
    {
      "inputs": [
        {
          "internalType": "address",
          "name": "newOwner",
          "type": "address"
        },
        {
          "internalType": "bool",
          "name": "direct",
          "type": "bool"
        },
        {
          "internalType": "bool",
          "name": "renounce",
          "type": "bool"
        }
      ],
      "name": "transferOwnership",
      "outputs": [],
      "stateMutability": "nonpayable",
      "type": "function"
    },
    {
      "inputs": [],
      "name": "treasury",
      "outputs": [
        {
          "internalType": "contract ITreasury",
          "name": "",
          "type": "address"
        }
      ],
      "stateMutability": "view",
      "type": "function"
    },
    {
      "inputs": [],
      "name": "useHelper",
      "outputs": [
        {
          "internalType": "bool",
          "name": "",
          "type": "bool"
        }
      ],
      "stateMutability": "view",
      "type": "function"
    },
    {
      "inputs": [
        {
          "internalType": "address",
          "name": "_recipient",
          "type": "address"
        },
        {
          "internalType": "uint256",
          "name": "_amount",
          "type": "uint256"
        }
      ],
      "name": "withdraw",
      "outputs": [
        {
          "internalType": "uint256",
          "name": "",
          "type": "uint256"
        }
      ],
      "stateMutability": "nonpayable",
      "type": "function"
    },
    {
      "inputs": [],
      "name": "withdrawFee",
      "outputs": [
        {
          "internalType": "uint32",
          "name": "",
          "type": "uint32"
        }
      ],
      "stateMutability": "view",
      "type": "function"
    },
    {
      "inputs": [],
      "name": "withdrawRate",
      "outputs": [
        {
          "internalType": "uint32",
          "name": "",
          "type": "uint32"
        }
      ],
      "stateMutability": "view",
      "type": "function"
    },
    {
      "inputs": [
        {
          "internalType": "uint256",
          "name": "",
          "type": "uint256"
        }
      ],
      "name": "withdrawTerm",
      "outputs": [
        {
          "internalType": "uint32",
          "name": "",
          "type": "uint32"
        }
      ],
      "stateMutability": "view",
      "type": "function"
    }
  ],
  "bytecode": "0x6012805463ffffffff1916600a1790556101a06040526301e133806101409081526276a7006101605262ed4e00610180526200004090601390600362000194565b50601480546103e863ffffffff199091161763ffffffff60201b1916645a000000001790553480156200007257600080fd5b5060405162003e6338038062003e6383398101604081905262000095916200027e565b600080546001600160a01b0319163390811782556040519091907f8be0079c531659141344cd1fd0a4f28419497f9722a3daafe3b4186f6b6457e0908290a36001600160a01b038516620000e857600080fd5b6001600160601b0319606086901b166080526001600160a01b0384166200010e57600080fd5b6001600160601b0319606085901b1660a0526001600160a01b0383166200013457600080fd5b6001600160601b0319606084901b1660c0526001600160a01b0382166200015a57600080fd5b6001600160601b0319606092831b811660e0529181901b909116610120526001600160a01b0316151560f81b6101005250620002ed915050565b82805482825590600052602060002090600701600890048101928215620002385791602002820160005b838211156200020457835183826101000a81548163ffffffff021916908363ffffffff1602179055509260200192600401602081600301049283019260010302620001be565b8015620002365782816101000a81549063ffffffff021916905560040160208160030104928301926001030262000204565b505b50620002469291506200024a565b5090565b5b808211156200024657600081556001016200024b565b80516001600160a01b03811681146200027957600080fd5b919050565b600080600080600060a0868803121562000296578081fd5b620002a18662000261565b9450620002b16020870162000261565b9350620002c16040870162000261565b9250620002d16060870162000261565b9150620002e16080870162000261565b90509295509295909350565b60805160601c60a05160601c60c05160601c60e05160601c6101005160f81c6101205160601c613a7f620003e460003980610ff852806117265280611af8525080610fcd52806116f85280611df052508061156b52806117f95280611a87525080610ea95280611272528061141352806114a752806124d6525080610531528061102752806110d1528061129f52806113a752806113e652806114d6528061175552806119a752806123dc5280612504528061257352508061154952806119555280611bf85280611db15280611e7e5280611fe252806122975280612329528061269f528061275a528061286b5250613a7f6000f3fe608060405234801561001057600080fd5b506004361061027f5760003560e01c8063904b3ece1161015c578063d5025625116100ce578063e392a26211610087578063e392a262146104f4578063e6c0e6d5146104fc578063e941fa7814610504578063f3fef3a31461050c578063f5c2ab5b1461051f578063fc7b9c18146105275761027f565b8063d5025625146104a7578063d7969060146104c1578063d7ccfb0b146104c9578063dc6549fb146104d1578063e0176de8146104e4578063e30c3978146104ec5761027f565b8063c637f04211610120578063c637f0421461043b578063ca237ea51461044e578063cd1234b314610461578063cea55f5714610484578063d4d863ce1461048c578063d4e294681461049f5761027f565b8063904b3ece146103fd57806398fabd3a14610405578063ae9832cf1461040d578063b4abccba14610420578063c5332b7c146104335761027f565b80634cf088d9116101f5578063759076e5116101b9578063759076e5146103b757806377b81895146103bf5780637927ebf8146103c7578063844b5c7c146103da5780638da5cb5b146103e25780638dbdbe6d146103ea5761027f565b80634cf088d9146103795780634e71e0c814610381578063507930ec1461038957806361d027b31461039c57806363b3256b146103a45761027f565b80631ed2d71a116102475780631ed2d71a146102ff5780631feed31f146103125780632f3f470a14610325578063309bf24b1461033a578063451ee4a11461034d578063466a944e146103665761027f565b8063016a42841461028457806301b88ee8146102a2578063078dfbe7146102c25780630dcf1417146102d75780631e321a0f146102ec575b600080fd5b61028c61052f565b6040516102999190613207565b60405180910390f35b6102b56102b0366004612fb0565b610553565b6040516102999190613928565b6102d56102d036600461300b565b6105ab565b005b6102df61069a565b60405161029991906139e9565b6102d56102fa3660046130e3565b6106a6565b6102d561030d366004612fb0565b610816565b6102b5610320366004612fd3565b610861565b61032d610b24565b6040516102999190613258565b6102d5610348366004613160565b610b34565b610355610cbe565b604051610299959493929190613263565b6102d56103743660046131b0565b610ce4565b61028c610d5c565b6102d5610d6b565b6102b5610397366004612fb0565b610df8565b61028c610ea7565b6102d56103b2366004612fb0565b610ecb565b6102b5610f3f565b61028c610f5b565b6102b56103d5366004613103565b610f6a565b6102b5610fc9565b61028c61119f565b6102b56103f8366004613133565b6111ae565b6102b56116f4565b61028c6117f7565b6102d561041b36600461309c565b61181b565b61032d61042e366004612fb0565b611951565b61028c611af6565b6102d56104493660046131b0565b611b1a565b6102df61045c366004613103565b611b87565b61047461046f366004612fb0565b611bc1565b60405161029994939291906139c5565b6102b5611bf3565b6102d561049a366004612fd3565b611cbc565b61028c611daf565b6104af611dd3565b60405161029996959493929190613997565b61032d611dee565b6102b5611e12565b61032d6104df366004612fb0565b611e58565b6102b5611e6d565b61028c611f14565b6102b5611f23565b6102df611f7f565b6102df611f92565b6102b561051a366004613055565b611f9e565b6102df61264b565b6102b5612657565b7f000000000000000000000000000000000000000000000000000000000000000081565b60008061055f83610df8565b6001600160a01b0384166000908152600e6020526040902054909150612710821061058c578092506105a4565b612710610599828461265d565b816105a057fe5b0492505b5050919050565b6000546001600160a01b031633146105de5760405162461bcd60e51b81526004016105d590613622565b60405180910390fd5b8115610679576001600160a01b0383161515806105f85750805b6106145760405162461bcd60e51b81526004016105d590613485565b600080546040516001600160a01b03808716939216917f8be0079c531659141344cd1fd0a4f28419497f9722a3daafe3b4186f6b6457e091a3600080546001600160a01b0385166001600160a01b031991821617909155600180549091169055610695565b600180546001600160a01b0319166001600160a01b0385161790555b505050565b60145463ffffffff1681565b6000546001600160a01b031633146106d05760405162461bcd60e51b81526004016105d590613622565b60008260048111156106de57fe5b1415610721576201fa408110156107075760405162461bcd60e51b81526004016105d59061369a565b6009805463ffffffff191663ffffffff83161790556107d9565b600182600481111561072f57fe5b1415610761576103e88111156107575760405162461bcd60e51b81526004016105d5906133aa565b60068190556107d9565b600282600481111561076f57fe5b14156107a1576127108111156107975760405162461bcd60e51b81526004016105d5906132dc565b60078190556107d9565b60038260048111156107af57fe5b14156107bf5760088190556107d9565b60048260048111156107cd57fe5b14156107d95760058190555b7f4e3705d256225a38255bfb7114e7fa4b6b2939ab1f71639f57e06928858646c5828260405161080a929190613291565b60405180910390a15050565b6000546001600160a01b031633146108405760405162461bcd60e51b81526004016105d590613622565b6001600160a01b03166000908152601160205260409020805460ff19169055565b6000336001600160a01b0384161461088b5760405162461bcd60e51b81526004016105d5906137e6565b610893612f56565b506001600160a01b0383166000908152600e602090815260408083208151608081018352815481526001820154938101939093526002015463ffffffff80821692840192909252600160201b9004166060820152906108f185610df8565b905061271081106109d15760408051608081018252600080825260208083018281524263ffffffff908116858701908152606086018581526001600160a01b038d16808752600e90955287862096518755925160018701555160029095018054925163ffffffff199093169582169590951767ffffffff000000001916600160201b9290911691909102179092558451925191927f51c99f515c87b0d95ba97f616edd182e8f161c4932eac17c6fefe9dab58b77b1926109b1929061396c565b60405180910390a26109c885858460000151612681565b92505050610b1e565b8151600090612710906109e4908461265d565b816109eb57fe5b0490506040518060800160405280610a1083866000015161298690919063ffffffff16565b8152602001846020015181526020014263ffffffff168152602001610a64610a4b86604001514263ffffffff1661299690919063ffffffff16565b866060015163ffffffff1661299690919063ffffffff16565b63ffffffff9081169091526001600160a01b0388166000818152600e6020908152604091829020855180825591860151600182015585830151600290910180546060909701518616600160201b0267ffffffff00000000199290961663ffffffff1990971696909617169390931790935591517f51c99f515c87b0d95ba97f616edd182e8f161c4932eac17c6fefe9dab58b77b191610b059185919061396c565b60405180910390a2610b18868683612681565b93505050505b92915050565b600354600160a01b900460ff1681565b6000546001600160a01b03163314610b5e5760405162461bcd60e51b81526004016105d590613622565b60045415610b7e5760405162461bcd60e51b81526004016105d590613794565b6028861015610b9f5760405162461bcd60e51b81526004016105d590613767565b6103e8841115610bc15760405162461bcd60e51b81526004016105d5906133aa565b6201fa408163ffffffff161015610bea5760405162461bcd60e51b81526004016105d59061369a565b612710831115610c0c5760405162461bcd60e51b81526004016105d5906132dc565b6040805160c08101825287815260208101879052808201869052606081018590526080810184905263ffffffff83811660a0909201829052600489815560058990556006889055600787905560088690556009805463ffffffff19908116909417905560108054909316429092169190911790915590517f0df16b6e9edd2420312d801992c90082fdf3061dc551178c6f5d504e381a20fc91610cae916138e5565b60405180910390a1505050505050565b600a54600b54600c54600d5460ff9093169263ffffffff80821691600160201b90041685565b6000546001600160a01b03163314610d0e5760405162461bcd60e51b81526004016105d590613622565b60648163ffffffff161115610d355760405162461bcd60e51b81526004016105d5906133df565b6014805463ffffffff909216600160201b0267ffffffff0000000019909216919091179055565b6002546001600160a01b031681565b6001546001600160a01b0316338114610d965760405162461bcd60e51b81526004016105d590613732565b600080546040516001600160a01b03808516939216917f8be0079c531659141344cd1fd0a4f28419497f9722a3daafe3b4186f6b6457e091a3600080546001600160a01b039092166001600160a01b0319928316179055600180549091169055565b6000610e02612f56565b506001600160a01b0382166000908152600e602090815260408083208151608081018352815481526001820154938101939093526002015463ffffffff808216928401839052600160201b90910481166060840152919291610e68914282169161299616565b606083015163ffffffff9182169250168015610e9a5780610e8b8361271061265d565b81610e9257fe5b049350610e9f565b600093505b505050919050565b7f000000000000000000000000000000000000000000000000000000000000000081565b6000546001600160a01b03163314610ef55760405162461bcd60e51b81526004016105d590613622565b6001600160a01b038116610f1b5760405162461bcd60e51b81526004016105d590613715565b6001600160a01b03166000908152601160205260409020805460ff19166001179055565b6000610f55610f4c611f23565b600f5490612986565b90505b90565b6003546001600160a01b031681565b6000662386f26fc10000610fb9610fb4846064610fa7601460049054906101000a900463ffffffff1663ffffffff16610fa1611e12565b9061265d565b81610fae57fe5b046129af565b612a9d565b81610fc057fe5b0490505b919050565b60007f0000000000000000000000000000000000000000000000000000000000000000156110c95760646110ba7f00000000000000000000000000000000000000000000000000000000000000006001600160a01b03166332da80a37f00000000000000000000000000000000000000000000000000000000000000006040518263ffffffff1660e01b81526004016110629190613207565b60206040518083038186803b15801561107a57600080fd5b505afa15801561108e573d6000803e3d6000fd5b505050506040513d601f19601f820116820180604052508101906110b2919061311b565b610fa1611e12565b816110c157fe5b049050610f58565b60648061118a7f00000000000000000000000000000000000000000000000000000000000000006001600160a01b031663313ce5676040518163ffffffff1660e01b815260040160206040518083038186803b15801561112857600080fd5b505afa15801561113c573d6000803e3d6000fd5b505050506040513d601f19601f8201168201806040525081019061116091906131ca565b60ff16600a0a610fa1601460049054906101000a900463ffffffff1663ffffffff16610fa1611e12565b8161119157fe5b048161119957fe5b04905090565b6000546001600160a01b031681565b60006001600160a01b0382166111d65760405162461bcd60e51b81526004016105d59061334a565b336001600160a01b03831614806111fc57503360009081526011602052604090205460ff165b6112185760405162461bcd60e51b81526004016105d590613839565b611220612ab9565b600061122a610fc9565b90506000611236612ade565b9050808510156112585760405162461bcd60e51b81526004016105d590613657565b604051630f762d4d60e11b81526000906001600160a01b037f00000000000000000000000000000000000000000000000000000000000000001690631eec5a9a906112c9907f0000000000000000000000000000000000000000000000000000000000000000908b9060040161323f565b60206040518083038186803b1580156112e157600080fd5b505afa1580156112f5573d6000803e3d6000fd5b505050506040513d601f19601f82011682018060405250810190611319919061311b565b9050600061132682610f6a565b600854600f549192509061133a9084612b27565b11156113585760405162461bcd60e51b81526004016105d590613579565b6298968081101561137b5760405162461bcd60e51b81526004016105d5906135de565b6007546000906127109061139090849061265d565b8161139757fe5b0490506113cf6001600160a01b037f00000000000000000000000000000000000000000000000000000000000000001633308c612b37565b60405163095ea7b360e01b81526001600160a01b037f0000000000000000000000000000000000000000000000000000000000000000169063095ea7b39061143d907f0000000000000000000000000000000000000000000000000000000000000000908d9060040161323f565b602060405180830381600087803b15801561145757600080fd5b505af115801561146b573d6000803e3d6000fd5b505050506040513d601f19601f8201168201806040525081019061148f9190613080565b50604051636f0372af60e01b81526001600160a01b037f00000000000000000000000000000000000000000000000000000000000000001690636f0372af90611502908c907f00000000000000000000000000000000000000000000000000000000000000009088908890600401613948565b600060405180830381600087803b15801561151c57600080fd5b505af1158015611530573d6000803e3d6000fd5b5050505080600014611590576115906001600160a01b037f0000000000000000000000000000000000000000000000000000000000000000167f000000000000000000000000000000000000000000000000000000000000000083612b95565b61159a8282612986565b604080516080810182526001600160a01b038a166000908152600e60205291909120549193509081906115cd9085612b27565b8152602080820188905263ffffffff428181166040808601919091526009805484166060968701526001600160a01b038e166000908152600e865282902087518155948701516001860155908601516002909401805496909501518316600160201b0267ffffffff000000001994841663ffffffff19909716969096179390931694909417909255548792611667929091811690612b2716565b837f1fec6dc81f140574bf43f6b1e420ae1dd47928b9d57db8cbd7b8611063b85ae58c6040516116979190613928565b60405180910390a46116a7611bf3565b6116af612ade565b6116b7610fc9565b6040517f375b221f40939bfd8f49723a17cf7bc6d576ebf72efe2cc3e991826f5b3f390a90600090a46116e8612bb4565b50979650505050505050565b60007f0000000000000000000000000000000000000000000000000000000000000000156117e857633b9aca006110ba7f00000000000000000000000000000000000000000000000000000000000000006001600160a01b03166332da80a37f00000000000000000000000000000000000000000000000000000000000000006040518263ffffffff1660e01b81526004016117909190613207565b60206040518083038186803b1580156117a857600080fd5b505afa1580156117bc573d6000803e3d6000fd5b505050506040513d601f19601f820116820180604052508101906117e0919061311b565b610fa1611bf3565b6117f0611bf3565b9050610f58565b7f000000000000000000000000000000000000000000000000000000000000000081565b6000546001600160a01b031633146118455760405162461bcd60e51b81526004016105d590613622565b6004546103e89061185790601961265d565b8161185e57fe5b0483111561187e5760405162461bcd60e51b81526004016105d59061352f565b602882101561189f5760405162461bcd60e51b81526004016105d590613313565b6040805160a0810182528515158082526020820186905281830185905263ffffffff84811660608401819052429091166080909301839052600a805460ff19169092178255600b879055600c869055600d805463ffffffff191690911767ffffffff000000001916600160201b9093029290921790915590517f12e0d895835c5636a844b2d6d6e82e6b0e5e7df951b7beb2dcb89eb46ddb875e91611943916138a1565b60405180910390a150505050565b60007f00000000000000000000000000000000000000000000000000000000000000006001600160a01b0316826001600160a01b031614156119a55760405162461bcd60e51b81526004016105d5906137c9565b7f00000000000000000000000000000000000000000000000000000000000000006001600160a01b0316826001600160a01b031614156119f75760405162461bcd60e51b81526004016105d59061355c565b6040516370a0823160e01b81526000906001600160a01b038416906370a0823190611a26903090600401613207565b60206040518083038186803b158015611a3e57600080fd5b505afa158015611a52573d6000803e3d6000fd5b505050506040513d601f19601f82011682018060405250810190611a76919061311b565b9050611aac6001600160a01b0384167f000000000000000000000000000000000000000000000000000000000000000083612b95565b826001600160a01b03167f11f0a001971cc33b9a8651a3368b34900c22a665504b5cabc3e0e9fdf59d984682604051611ae59190613928565b60405180910390a250600192915050565b7f000000000000000000000000000000000000000000000000000000000000000081565b6000546001600160a01b03163314611b445760405162461bcd60e51b81526004016105d590613622565b60648163ffffffff161115611b6b5760405162461bcd60e51b81526004016105d590613373565b6012805463ffffffff191663ffffffff92909216919091179055565b60138181548110611b9757600080fd5b9060005260206000209060089182820401919006600402915054906101000a900463ffffffff1681565b600e6020526000908152604090208054600182015460029092015490919063ffffffff80821691600160201b90041684565b6000807f00000000000000000000000000000000000000000000000000000000000000006001600160a01b03166318160ddd6040518163ffffffff1660e01b815260040160206040518083038186803b158015611c4f57600080fd5b505afa158015611c63573d6000803e3d6000fd5b505050506040513d601f19601f82011682018060405250810190611c87919061311b565b9050670de0b6b3a7640000611cae610fb4611ca8633b9aca00610fa1610f3f565b846129af565b81611cb557fe5b0491505090565b6000546001600160a01b03163314611ce65760405162461bcd60e51b81526004016105d590613622565b6001600160a01b038216611d0c5760405162461bcd60e51b81526004016105d590613606565b8015611d415760038054600160a01b60ff60a01b19909116176001600160a01b0319166001600160a01b038416179055611d6a565b6003805460ff60a01b19169055600280546001600160a01b0319166001600160a01b0384161790555b816001600160a01b03167f9618307401872b2d1dc9c414b9568d81ab7cdf31913dbbcbcc296036b4a6a35782604051611da39190613258565b60405180910390a25050565b7f000000000000000000000000000000000000000000000000000000000000000081565b60045460055460065460075460085460095463ffffffff1686565b7f000000000000000000000000000000000000000000000000000000000000000081565b600062989680611e3a633b9aca00611e34611e2b611bf3565b6004549061265d565b90612b27565b81611e4157fe5b049050600460010154811015610f58575060055490565b60116020526000908152604090205460ff1681565b6000620186a0611f0d6004600201547f00000000000000000000000000000000000000000000000000000000000000006001600160a01b03166318160ddd6040518163ffffffff1660e01b815260040160206040518083038186803b158015611ed557600080fd5b505afa158015611ee9573d6000803e3d6000fd5b505050506040513d601f19601f82011682018060405250810190610fa1919061311b565b8161119957fe5b6001546001600160a01b031681565b6010546000908190611f419063ffffffff4281169181169061299616565b600954600f5491925063ffffffff90811691611f61918085169061265d16565b81611f6857fe5b049150600f54821115611f7b57600f5491505b5090565b601454600160201b900463ffffffff1681565b60125463ffffffff1681565b6000336001600160a01b03841614611fc85760405162461bcd60e51b81526004016105d5906137e6565b6040516370a0823160e01b81526000906001600160a01b037f000000000000000000000000000000000000000000000000000000000000000016906370a0823190612017908790600401613207565b60206040518083038186803b15801561202f57600080fd5b505afa158015612043573d6000803e3d6000fd5b505050506040513d601f19601f82011682018060405250810190612067919061311b565b6014549091506127109061208690839063ffffffff9081169061265d16565b8161208d57fe5b048311156120ad5760405162461bcd60e51b81526004016105d590613457565b6120b5612f56565b506001600160a01b0384166000908152600e602090815260408083208151608081018352815481526001820154938101939093526002015463ffffffff80821692840192909252600160201b900416606082015260138054919261214d9261211957fe5b60009182526020909120600882040154604084015163ffffffff908116926007166004026101000a909104811690612cc516565b63ffffffff164263ffffffff1611156121785760405162461bcd60e51b81526004016105d5906134b4565b612189601360018154811061211957fe5b63ffffffff164263ffffffff161015801561220f57506121ff620151806121eb60136001815481106121b757fe5b60009182526020909120600882040154604086015163ffffffff908116926007166004026101000a909104811690612cc516565b63ffffffff16612cc590919063ffffffff16565b63ffffffff164263ffffffff1611155b806122645750612226601360028154811061211957fe5b63ffffffff164263ffffffff16101580156122645750612254620151806121eb60136001815481106121b757fe5b63ffffffff164263ffffffff1611155b6122805760405162461bcd60e51b81526004016105d590613420565b6040516323b872dd60e01b81526001600160a01b037f000000000000000000000000000000000000000000000000000000000000000016906323b872dd906122d09033903090899060040161321b565b602060405180830381600087803b1580156122ea57600080fd5b505af11580156122fe573d6000803e3d6000fd5b505050506040513d601f19601f820116820180604052508101906123229190613080565b50600060647f00000000000000000000000000000000000000000000000000000000000000006001600160a01b031663313ce5676040518163ffffffff1660e01b815260040160206040518083038186803b15801561238057600080fd5b505afa158015612394573d6000803e3d6000fd5b505050506040513d601f19601f820116820180604052508101906123b891906131ca565b60ff16612475601460049054906101000a900463ffffffff1663ffffffff16610fa17f00000000000000000000000000000000000000000000000000000000000000006001600160a01b031663313ce5676040518163ffffffff1660e01b815260040160206040518083038186803b15801561243357600080fd5b505afa158015612447573d6000803e3d6000fd5b505050506040513d601f19601f8201168201806040525081019061246b91906131ca565b8a9060ff1661265d565b8161247c57fe5b048161248457fe5b60145491900491506000906064906124a790849063ffffffff9081169061265d16565b816124ae57fe5b04905060006124bd8383612986565b604051627b8a6760e11b81529091506001600160a01b037f0000000000000000000000000000000000000000000000000000000000000000169062f714ce9061252c9084907f000000000000000000000000000000000000000000000000000000000000000090600401613931565b600060405180830381600087803b15801561254657600080fd5b505af115801561255a573d6000803e3d6000fd5b505060405163a9059cbb60e01b81526001600160a01b037f000000000000000000000000000000000000000000000000000000000000000016925063a9059cbb91506125ac903390859060040161323f565b602060405180830381600087803b1580156125c657600080fd5b505af11580156125da573d6000803e3d6000fd5b505050506040513d601f19601f820116820180604052508101906125fe9190613080565b50876001600160a01b03167f29da31bbe163a1f92dbb529f8257139939e95923d11bb6f0eadf9c90d4a10c21826040516126389190613928565b60405180910390a2979650505050505050565b60105463ffffffff1681565b600f5481565b60008215806126785750508181028183828161267557fe5b04145b610b1e57600080fd5b60008261272e5760405163a9059cbb60e01b81526001600160a01b037f0000000000000000000000000000000000000000000000000000000000000000169063a9059cbb906126d6908790869060040161323f565b602060405180830381600087803b1580156126f057600080fd5b505af1158015612704573d6000803e3d6000fd5b505050506040513d601f19601f820116820180604052508101906127289190613080565b5061297f565b600354600160a01b900460ff16156128515760035460405163095ea7b360e01b81526001600160a01b037f000000000000000000000000000000000000000000000000000000000000000081169263095ea7b392612795929190911690869060040161323f565b602060405180830381600087803b1580156127af57600080fd5b505af11580156127c3573d6000803e3d6000fd5b505050506040513d601f19601f820116820180604052508101906127e79190613080565b50600354604051637acb775760e01b81526001600160a01b0390911690637acb77579061281a9085908890600401613931565b600060405180830381600087803b15801561283457600080fd5b505af1158015612848573d6000803e3d6000fd5b5050505061297f565b60025460405163095ea7b360e01b81526001600160a01b037f000000000000000000000000000000000000000000000000000000000000000081169263095ea7b3926128a6929190911690869060040161323f565b602060405180830381600087803b1580156128c057600080fd5b505af11580156128d4573d6000803e3d6000fd5b505050506040513d601f19601f820116820180604052508101906128f89190613080565b50600254604051637acb775760e01b81526001600160a01b0390911690637acb77579061292b9085908890600401613931565b602060405180830381600087803b15801561294557600080fd5b505af1158015612959573d6000803e3d6000fd5b505050506040513d601f19601f8201168201806040525081019061297d9190613080565b505b5092915050565b80820382811115610b1e57600080fd5b80820363ffffffff8084169082161115610b1e57600080fd5b6129b7612f8a565b600082116129d75760405162461bcd60e51b81526004016105d5906134e9565b826129f15750604080516020810190915260008152610b1e565b71ffffffffffffffffffffffffffffffffffff8311612a6357600082607085901b81612a1957fe5b0490506001600160e01b03811115612a435760405162461bcd60e51b81526004016105d5906136de565b6040518060200160405280826001600160e01b0316815250915050610b1e565b6000612a7484600160701b85612cde565b90506001600160e01b03811115612a435760405162461bcd60e51b81526004016105d5906136de565b80516000906612725dd1d243ab906001600160e01b0316610fc0565b612ac4610f4c611f23565b600f556010805463ffffffff19164263ffffffff16179055565b600062989680612af7633b9aca00611e34611e2b611bf3565b81612afe57fe5b049050600460010154811015612b175750600554610f58565b60055415610f5857600060055590565b80820182811015610b1e57600080fd5b612b8f846323b872dd60e01b858585604051602401612b589392919061321b565b60408051601f198184030181529190526020810180516001600160e01b03166001600160e01b031990931692909217909152612d49565b50505050565b6106958363a9059cbb60e01b8484604051602401612b5892919061323f565b600d54600090612bd69063ffffffff600160201b8204811691811690612cc516565b63ffffffff169050600a60010154600014158015612bf45750804210155b15612cc257600454600a54819060ff1615612c3257600b54612c17908290612b27565b600c549091508110612c2d57506000600b55600c545b612c56565b600b54612c40908290612986565b600c549091508111612c5657506000600b55600c545b6004819055600d805467ffffffff000000001916600160201b4263ffffffff1602179055600b54600a546040517fb923e581a0f83128e9e1d8297aa52b18d6744310476e0b54509c054cd7a93b2a92612cb792869286929160ff169061397a565b60405180910390a150505b50565b80820163ffffffff8084169082161015610b1e57600080fd5b6000806000612ced8686612dd8565b9150915060008480612cfb57fe5b868809905082811115612d0f576001820391505b8083039250848210612d335760405162461bcd60e51b81526004016105d5906135a7565b612d3e838387612e05565b979650505050505050565b6060612d9e826040518060400160405280602081526020017f5361666545524332303a206c6f772d6c6576656c2063616c6c206661696c6564815250856001600160a01b0316612e759092919063ffffffff16565b8051909150156106955780806020019051810190612dbc9190613080565b6106955760405162461bcd60e51b81526004016105d590613857565b6000808060001984860990508385029250828103915082811015612dfd576001820391505b509250929050565b60008181038216808381612e1557fe5b049250808581612e2157fe5b049450808160000381612e3057fe5b60028581038087028203028087028203028087028203028087028203028087028203028087028203029586029003909402930460010193909302939093010292915050565b6060612e848484600085612e8c565b949350505050565b6060612e9785612f50565b612eb35760405162461bcd60e51b81526004016105d590613802565b60006060866001600160a01b03168587604051612ed091906131eb565b60006040518083038185875af1925050503d8060008114612f0d576040519150601f19603f3d011682016040523d82523d6000602084013e612f12565b606091505b50915091508115612f26579150612e849050565b805115612f365780518082602001fd5b8360405162461bcd60e51b81526004016105d591906132a9565b3b151590565b60405180608001604052806000815260200160008152602001600063ffffffff168152602001600063ffffffff1681525090565b60408051602081019091526000815290565b803563ffffffff81168114610fc457600080fd5b600060208284031215612fc1578081fd5b8135612fcc81613a26565b9392505050565b60008060408385031215612fe5578081fd5b8235612ff081613a26565b9150602083013561300081613a3b565b809150509250929050565b60008060006060848603121561301f578081fd5b833561302a81613a26565b9250602084013561303a81613a3b565b9150604084013561304a81613a3b565b809150509250925092565b60008060408385031215613067578182fd5b823561307281613a26565b946020939093013593505050565b600060208284031215613091578081fd5b8151612fcc81613a3b565b600080600080608085870312156130b1578081fd5b84356130bc81613a3b565b935060208501359250604085013591506130d860608601612f9c565b905092959194509250565b600080604083850312156130f5578182fd5b823560058110613072578283fd5b600060208284031215613114578081fd5b5035919050565b60006020828403121561312c578081fd5b5051919050565b600080600060608486031215613147578283fd5b8335925060208401359150604084013561304a81613a26565b60008060008060008060c08789031215613178578182fd5b86359550602087013594506040870135935060608701359250608087013591506131a460a08801612f9c565b90509295509295509295565b6000602082840312156131c1578081fd5b612fcc82612f9c565b6000602082840312156131db578081fd5b815160ff81168114612fcc578182fd5b600082516131fd8184602087016139fa565b9190910192915050565b6001600160a01b0391909116815260200190565b6001600160a01b039384168152919092166020820152604081019190915260600190565b6001600160a01b03929092168252602082015260400190565b901515815260200190565b94151585526020850193909352604084019190915263ffffffff908116606084015216608082015260a00190565b604081016005841061329f57fe5b9281526020015290565b60006020825282518060208401526132c88160408501602087016139fa565b601f01601f19169190910160400192915050565b6020808252601c908201527f44414f206665652063616e6e6f7420657863656564207061796f757400000000604082015260600190565b6020808252601f908201527f4e6578742041646a7573746d656e7420636f756c64206265206c6f636b656400604082015260600190565b6020808252600f908201526e496e76616c6964206164647265737360881b604082015260600190565b6020808252601f908201527f5769746864726177466565206d757374206c657373207468616e203130302500604082015260600190565b6020808252818101527f5061796f75742063616e6e6f742062652061626f766520312070657263656e74604082015260600190565b60208082526021908201527f446973636f756e742052617465206d757374206c657373207468616e203130306040820152602560f81b606082015260800190565b60208082526019908201527f556e617661696c61626c65207769746864726177207465726d00000000000000604082015260600190565b602080825260149082015273496e73756666696369656e742062616c616e636560601b604082015260600190565b6020808252601590820152744f776e61626c653a207a65726f206164647265737360581b604082015260600190565b6020808252818101527f44697361626c6520746f20776974686472617720616674657220312079656172604082015260600190565b60208082526026908201527f4669786564506f696e743a3a6672616374696f6e3a206469766973696f6e206260408201526579207a65726f60d01b606082015260800190565b602080825260139082015272496e6372656d656e7420746f6f206c6172676560681b604082015260600190565b60208082526003908201526204e41560ec1b604082015260600190565b60208082526014908201527313585e0818d85c1858da5d1e481c995858da195960621b604082015260600190565b6020808252601a908201527f46756c6c4d6174683a3a6d756c4469763a206f766572666c6f77000000000000604082015260600190565b6020808252600e908201526d109bdb99081d1bdbc81cdb585b1b60921b604082015260600190565b602080825260029082015261494160f01b604082015260600190565b6020808252818101527f4f776e61626c653a2063616c6c6572206973206e6f7420746865206f776e6572604082015260600190565b60208082526023908201527f536c697070616765206c696d69743a206d6f7265207468616e206d617820707260408201526269636560e81b606082015260800190565b60208082526024908201527f56657374696e67206d757374206265206c6f6e676572207468616e20333620686040820152636f75727360e01b606082015260800190565b6020808252601e908201527f4669786564506f696e743a3a6672616374696f6e3a206f766572666c6f770000604082015260600190565b6020808252600390820152625a4e4160e81b604082015260600190565b6020808252818101527f4f776e61626c653a2063616c6c657220213d2070656e64696e67206f776e6572604082015260600190565b60208082526013908201527210d85b881b1bd8dac818591a9d5cdd1b595b9d606a1b604082015260600190565b6020808252818101527f426f6e6473206d75737420626520696e697469616c697a65642066726f6d2030604082015260600190565b60208082526003908201526213905560ea1b604082015260600190565b6020808252600290820152614e4160f01b604082015260600190565b6020808252601d908201527f416464726573733a2063616c6c20746f206e6f6e2d636f6e7472616374000000604082015260600190565b6020808252600490820152634c464e4160e01b604082015260600190565b6020808252602a908201527f5361666545524332303a204552433230206f7065726174696f6e20646964206e6040820152691bdd081cdd58d8d9595960b21b606082015260800190565b815460ff161515815260018201546020808301919091526002830154604083015260039092015463ffffffff8082166060840152921c909116608082015260a00190565b815481526001820154602082015260028201546040820152600382015460608201526004820154608082015260059091015463ffffffff1660a082015260c00190565b90815260200190565b9182526001600160a01b0316602082015260400190565b9384526001600160a01b039290921660208401526040830152606082015260800190565b918252602082015260400190565b938452602084019290925260408301521515606082015260800190565b958652602086019490945260408501929092526060840152608083015263ffffffff1660a082015260c00190565b938452602084019290925263ffffffff908116604084015216606082015260800190565b63ffffffff91909116815260200190565b60005b83811015613a155781810151838201526020016139fd565b83811115612b8f5750506000910152565b6001600160a01b0381168114612cc257600080fd5b8015158114612cc257600080fdfea264697066735822122070b76ce463f247834a038c952740b27e090c1731116fa0e9e2f2996e551bd29564736f6c63430007050033",
  "linkReferences": {},
  "deployedLinkReferences": {}
}