{
  "_format": "hh-sol-artifact-1",
  "contractName": "SabBondDepository",
  "sourceName": "contracts/BondDepository_AVAX.sol",
  "abi": [
    {
      "inputs": [
        {
          "internalType": "address",
          "name": "_Sab",
          "type": "address"
        },
        {
          "internalType": "address",
          "name": "_principle",
          "type": "address"
        },
        {
          "internalType": "address",
          "name": "_treasury",
          "type": "address"
        },
        {
          "internalType": "address",
          "name": "_DAO",
          "type": "address"
        },
        {
          "internalType": "address",
          "name": "_feed",
          "type": "address"
        }
      ],
      "stateMutability": "nonpayable",
      "type": "constructor"
    },
    {
      "anonymous": false,
      "inputs": [
        {
          "indexed": false,
          "internalType": "uint256",
          "name": "deposit",
          "type": "uint256"
        },
        {
          "indexed": true,
          "internalType": "uint256",
          "name": "payout",
          "type": "uint256"
        },
        {
          "indexed": true,
          "internalType": "uint256",
          "name": "expires",
          "type": "uint256"
        },
        {
          "indexed": true,
          "internalType": "uint256",
          "name": "priceInUSD",
          "type": "uint256"
        }
      ],
      "name": "BondCreated",
      "type": "event"
    },
    {
      "anonymous": false,
      "inputs": [
        {
          "indexed": true,
          "internalType": "uint256",
          "name": "priceInUSD",
          "type": "uint256"
        },
        {
          "indexed": true,
          "internalType": "uint256",
          "name": "internalPrice",
          "type": "uint256"
        },
        {
          "indexed": true,
          "internalType": "uint256",
          "name": "debtRatio",
          "type": "uint256"
        }
      ],
      "name": "BondPriceChanged",
      "type": "event"
    },
    {
      "anonymous": false,
      "inputs": [
        {
          "indexed": true,
          "internalType": "address",
          "name": "recipient",
          "type": "address"
        },
        {
          "indexed": false,
          "internalType": "uint256",
          "name": "payout",
          "type": "uint256"
        },
        {
          "indexed": false,
          "internalType": "uint256",
          "name": "remaining",
          "type": "uint256"
        }
      ],
      "name": "BondRedeemed",
      "type": "event"
    },
    {
      "anonymous": false,
      "inputs": [
        {
          "indexed": false,
          "internalType": "uint256",
          "name": "initialBCV",
          "type": "uint256"
        },
        {
          "indexed": false,
          "internalType": "uint256",
          "name": "newBCV",
          "type": "uint256"
        },
        {
          "indexed": false,
          "internalType": "uint256",
          "name": "adjustment",
          "type": "uint256"
        },
        {
          "indexed": false,
          "internalType": "bool",
          "name": "addition",
          "type": "bool"
        }
      ],
      "name": "ControlVariableAdjustment",
      "type": "event"
    },
    {
      "anonymous": false,
      "inputs": [
        {
          "components": [
            {
              "internalType": "uint256",
              "name": "controlVariable",
              "type": "uint256"
            },
            {
              "internalType": "uint256",
              "name": "minimumPrice",
              "type": "uint256"
            },
            {
              "internalType": "uint256",
              "name": "maxPayout",
              "type": "uint256"
            },
            {
              "internalType": "uint256",
              "name": "maxDebt",
              "type": "uint256"
            },
            {
              "internalType": "uint32",
              "name": "vestingTerm",
              "type": "uint32"
            }
          ],
          "indexed": false,
          "internalType": "struct SabBondDepository.Terms",
          "name": "terms",
          "type": "tuple"
        }
      ],
      "name": "InitTerms",
      "type": "event"
    },
    {
      "anonymous": false,
      "inputs": [
        {
          "indexed": true,
          "internalType": "address",
          "name": "tokenToRecover",
          "type": "address"
        },
        {
          "indexed": false,
          "internalType": "uint256",
          "name": "amount",
          "type": "uint256"
        }
      ],
      "name": "LogRecoverLostToken",
      "type": "event"
    },
    {
      "anonymous": false,
      "inputs": [
        {
          "components": [
            {
              "internalType": "bool",
              "name": "add",
              "type": "bool"
            },
            {
              "internalType": "uint256",
              "name": "rate",
              "type": "uint256"
            },
            {
              "internalType": "uint256",
              "name": "target",
              "type": "uint256"
            },
            {
              "internalType": "uint32",
              "name": "buffer",
              "type": "uint32"
            },
            {
              "internalType": "uint32",
              "name": "lastTime",
              "type": "uint32"
            }
          ],
          "indexed": false,
          "internalType": "struct SabBondDepository.Adjust",
          "name": "adjust",
          "type": "tuple"
        }
      ],
      "name": "LogSetAdjustment",
      "type": "event"
    },
    {
      "anonymous": false,
      "inputs": [
        {
          "indexed": true,
          "internalType": "address",
          "name": "stakingContract",
          "type": "address"
        },
        {
          "indexed": false,
          "internalType": "bool",
          "name": "isHelper",
          "type": "bool"
        }
      ],
      "name": "LogSetStaking",
      "type": "event"
    },
    {
      "anonymous": false,
      "inputs": [
        {
          "indexed": false,
          "internalType": "enum SabBondDepository.PARAMETER",
          "name": "param",
          "type": "uint8"
        },
        {
          "indexed": false,
          "internalType": "uint256",
          "name": "value",
          "type": "uint256"
        }
      ],
      "name": "LogSetTerms",
      "type": "event"
    },
    {
      "anonymous": false,
      "inputs": [
        {
          "indexed": true,
          "internalType": "address",
          "name": "previousOwner",
          "type": "address"
        },
        {
          "indexed": true,
          "internalType": "address",
          "name": "newOwner",
          "type": "address"
        }
      ],
      "name": "OwnershipPulled",
      "type": "event"
    },
    {
      "anonymous": false,
      "inputs": [
        {
          "indexed": true,
          "internalType": "address",
          "name": "previousOwner",
          "type": "address"
        },
        {
          "indexed": true,
          "internalType": "address",
          "name": "newOwner",
          "type": "address"
        }
      ],
      "name": "OwnershipPushed",
      "type": "event"
    },
    {
      "anonymous": false,
      "inputs": [
        {
          "indexed": true,
          "internalType": "address",
          "name": "recipient",
          "type": "address"
        },
        {
          "indexed": false,
          "internalType": "uint256",
          "name": "returnAmount",
          "type": "uint256"
        }
      ],
      "name": "ReserveWithdrawl",
      "type": "event"
    },
    {
      "inputs": [],
      "name": "DAO",
      "outputs": [
        {
          "internalType": "address",
          "name": "",
          "type": "address"
        }
      ],
      "stateMutability": "view",
      "type": "function"
    },
    {
      "inputs": [],
      "name": "Sab",
      "outputs": [
        {
          "internalType": "contract IERC20",
          "name": "",
          "type": "address"
        }
      ],
      "stateMutability": "view",
      "type": "function"
    },
    {
      "inputs": [],
      "name": "adjustment",
      "outputs": [
        {
          "internalType": "bool",
          "name": "add",
          "type": "bool"
        },
        {
          "internalType": "uint256",
          "name": "rate",
          "type": "uint256"
        },
        {
          "internalType": "uint256",
          "name": "target",
          "type": "uint256"
        },
        {
          "internalType": "uint32",
          "name": "buffer",
          "type": "uint32"
        },
        {
          "internalType": "uint32",
          "name": "lastTime",
          "type": "uint32"
        }
      ],
      "stateMutability": "view",
      "type": "function"
    },
    {
      "inputs": [
        {
          "internalType": "address",
          "name": "zapper",
          "type": "address"
        }
      ],
      "name": "allowZapper",
      "outputs": [],
      "stateMutability": "nonpayable",
      "type": "function"
    },
    {
      "inputs": [
        {
          "internalType": "address",
          "name": "",
          "type": "address"
        }
      ],
      "name": "allowedZappers",
      "outputs": [
        {
          "internalType": "bool",
          "name": "",
          "type": "bool"
        }
      ],
      "stateMutability": "view",
      "type": "function"
    },
    {
      "inputs": [],
      "name": "assetPrice",
      "outputs": [
        {
          "internalType": "uint256",
          "name": "",
          "type": "uint256"
        }
      ],
      "stateMutability": "view",
      "type": "function"
    },
    {
      "inputs": [
        {
          "internalType": "address",
          "name": "",
          "type": "address"
        }
      ],
      "name": "bondInfo",
      "outputs": [
        {
          "internalType": "uint256",
          "name": "payout",
          "type": "uint256"
        },
        {
          "internalType": "uint256",
          "name": "pricePaid",
          "type": "uint256"
        },
        {
          "internalType": "uint32",
          "name": "vesting",
          "type": "uint32"
        },
        {
          "internalType": "uint32",
          "name": "lastTime",
          "type": "uint32"
        }
      ],
      "stateMutability": "view",
      "type": "function"
    },
    {
      "inputs": [],
      "name": "bondPrice",
      "outputs": [
        {
          "internalType": "uint256",
          "name": "price_",
          "type": "uint256"
        }
      ],
      "stateMutability": "view",
      "type": "function"
    },
    {
      "inputs": [],
      "name": "bondPriceInUSD",
      "outputs": [
        {
          "internalType": "uint256",
          "name": "price_",
          "type": "uint256"
        }
      ],
      "stateMutability": "view",
      "type": "function"
    },
    {
      "inputs": [],
      "name": "currentDebt",
      "outputs": [
        {
          "internalType": "uint256",
          "name": "",
          "type": "uint256"
        }
      ],
      "stateMutability": "view",
      "type": "function"
    },
    {
      "inputs": [],
      "name": "debtDecay",
      "outputs": [
        {
          "internalType": "uint256",
          "name": "decay_",
          "type": "uint256"
        }
      ],
      "stateMutability": "view",
      "type": "function"
    },
    {
      "inputs": [],
      "name": "debtRatio",
      "outputs": [
        {
          "internalType": "uint256",
          "name": "debtRatio_",
          "type": "uint256"
        }
      ],
      "stateMutability": "view",
      "type": "function"
    },
    {
      "inputs": [
        {
          "internalType": "uint256",
          "name": "_amount",
          "type": "uint256"
        },
        {
          "internalType": "uint256",
          "name": "_maxPrice",
          "type": "uint256"
        },
        {
          "internalType": "address",
          "name": "_depositor",
          "type": "address"
        }
      ],
      "name": "deposit",
      "outputs": [
        {
          "internalType": "uint256",
          "name": "",
          "type": "uint256"
        }
      ],
      "stateMutability": "payable",
      "type": "function"
    },
    {
      "inputs": [],
      "name": "discountRate",
      "outputs": [
        {
          "internalType": "uint32",
          "name": "",
          "type": "uint32"
        }
      ],
      "stateMutability": "view",
      "type": "function"
    },
    {
      "inputs": [
        {
          "internalType": "uint256",
          "name": "_controlVariable",
          "type": "uint256"
        },
        {
          "internalType": "uint256",
          "name": "_minimumPrice",
          "type": "uint256"
        },
        {
          "internalType": "uint256",
          "name": "_maxPayout",
          "type": "uint256"
        },
        {
          "internalType": "uint256",
          "name": "_maxDebt",
          "type": "uint256"
        },
        {
          "internalType": "uint32",
          "name": "_vestingTerm",
          "type": "uint32"
        }
      ],
      "name": "initializeBondTerms",
      "outputs": [],
      "stateMutability": "nonpayable",
      "type": "function"
    },
    {
      "inputs": [],
      "name": "lastDecay",
      "outputs": [
        {
          "internalType": "uint32",
          "name": "",
          "type": "uint32"
        }
      ],
      "stateMutability": "view",
      "type": "function"
    },
    {
      "inputs": [],
      "name": "maxPayout",
      "outputs": [
        {
          "internalType": "uint256",
          "name": "",
          "type": "uint256"
        }
      ],
      "stateMutability": "view",
      "type": "function"
    },
    {
      "inputs": [
        {
          "internalType": "uint256",
          "name": "_value",
          "type": "uint256"
        }
      ],
      "name": "payoutFor",
      "outputs": [
        {
          "internalType": "uint256",
          "name": "",
          "type": "uint256"
        }
      ],
      "stateMutability": "view",
      "type": "function"
    },
    {
      "inputs": [
        {
          "internalType": "address",
          "name": "_depositor",
          "type": "address"
        }
      ],
      "name": "pendingPayoutFor",
      "outputs": [
        {
          "internalType": "uint256",
          "name": "pendingPayout_",
          "type": "uint256"
        }
      ],
      "stateMutability": "view",
      "type": "function"
    },
    {
      "inputs": [
        {
          "internalType": "address",
          "name": "_depositor",
          "type": "address"
        }
      ],
      "name": "percentVestedFor",
      "outputs": [
        {
          "internalType": "uint256",
          "name": "percentVested_",
          "type": "uint256"
        }
      ],
      "stateMutability": "view",
      "type": "function"
    },
    {
      "inputs": [],
      "name": "policy",
      "outputs": [
        {
          "internalType": "address",
          "name": "",
          "type": "address"
        }
      ],
      "stateMutability": "view",
      "type": "function"
    },
    {
      "inputs": [],
      "name": "priceFeed",
      "outputs": [
        {
          "internalType": "contract AggregatorV3Interface",
          "name": "",
          "type": "address"
        }
      ],
      "stateMutability": "view",
      "type": "function"
    },
    {
      "inputs": [],
      "name": "principle",
      "outputs": [
        {
          "internalType": "contract IWAVAX9",
          "name": "",
          "type": "address"
        }
      ],
      "stateMutability": "view",
      "type": "function"
    },
    {
      "inputs": [],
      "name": "pullManagement",
      "outputs": [],
      "stateMutability": "nonpayable",
      "type": "function"
    },
    {
      "inputs": [
        {
          "internalType": "address",
          "name": "newOwner_",
          "type": "address"
        }
      ],
      "name": "pushManagement",
      "outputs": [],
      "stateMutability": "nonpayable",
      "type": "function"
    },
    {
      "inputs": [
        {
          "internalType": "contract IERC20",
          "name": "_token",
          "type": "address"
        }
      ],
      "name": "recoverLostToken",
      "outputs": [
        {
          "internalType": "bool",
          "name": "",
          "type": "bool"
        }
      ],
      "stateMutability": "nonpayable",
      "type": "function"
    },
    {
      "inputs": [
        {
          "internalType": "address",
          "name": "_recipient",
          "type": "address"
        },
        {
          "internalType": "bool",
          "name": "_stake",
          "type": "bool"
        }
      ],
      "name": "redeem",
      "outputs": [
        {
          "internalType": "uint256",
          "name": "",
          "type": "uint256"
        }
      ],
      "stateMutability": "nonpayable",
      "type": "function"
    },
    {
      "inputs": [
        {
          "internalType": "address",
          "name": "zapper",
          "type": "address"
        }
      ],
      "name": "removeZapper",
      "outputs": [],
      "stateMutability": "nonpayable",
      "type": "function"
    },
    {
      "inputs": [],
      "name": "renounceManagement",
      "outputs": [],
      "stateMutability": "nonpayable",
      "type": "function"
    },
    {
      "inputs": [
        {
          "internalType": "bool",
          "name": "_addition",
          "type": "bool"
        },
        {
          "internalType": "uint256",
          "name": "_increment",
          "type": "uint256"
        },
        {
          "internalType": "uint256",
          "name": "_target",
          "type": "uint256"
        },
        {
          "internalType": "uint32",
          "name": "_buffer",
          "type": "uint32"
        }
      ],
      "name": "setAdjustment",
      "outputs": [],
      "stateMutability": "nonpayable",
      "type": "function"
    },
    {
      "inputs": [
        {
          "internalType": "enum SabBondDepository.PARAMETER",
          "name": "_parameter",
          "type": "uint8"
        },
        {
          "internalType": "uint256",
          "name": "_input",
          "type": "uint256"
        }
      ],
      "name": "setBondTerms",
      "outputs": [],
      "stateMutability": "nonpayable",
      "type": "function"
    },
    {
      "inputs": [
        {
          "internalType": "uint32",
          "name": "_discountrate",
          "type": "uint32"
        }
      ],
      "name": "setDiscountRate",
      "outputs": [],
      "stateMutability": "nonpayable",
      "type": "function"
    },
    {
      "inputs": [
        {
          "internalType": "address",
          "name": "_staking",
          "type": "address"
        },
        {
          "internalType": "bool",
          "name": "_helper",
          "type": "bool"
        }
      ],
      "name": "setStaking",
      "outputs": [],
      "stateMutability": "nonpayable",
      "type": "function"
    },
    {
      "inputs": [
        {
          "internalType": "uint32",
          "name": "_withdrawfee",
          "type": "uint32"
        }
      ],
      "name": "setWithdrawFee",
      "outputs": [],
      "stateMutability": "nonpayable",
      "type": "function"
    },
    {
      "inputs": [],
      "name": "staking",
      "outputs": [
        {
          "internalType": "contract IStaking",
          "name": "",
          "type": "address"
        }
      ],
      "stateMutability": "view",
      "type": "function"
    },
    {
      "inputs": [],
      "name": "stakingHelper",
      "outputs": [
        {
          "internalType": "contract IStakingHelper",
          "name": "",
          "type": "address"
        }
      ],
      "stateMutability": "view",
      "type": "function"
    },
    {
      "inputs": [],
      "name": "standardizedDebtRatio",
      "outputs": [
        {
          "internalType": "uint256",
          "name": "",
          "type": "uint256"
        }
      ],
      "stateMutability": "view",
      "type": "function"
    },
    {
      "inputs": [],
      "name": "terms",
      "outputs": [
        {
          "internalType": "uint256",
          "name": "controlVariable",
          "type": "uint256"
        },
        {
          "internalType": "uint256",
          "name": "minimumPrice",
          "type": "uint256"
        },
        {
          "internalType": "uint256",
          "name": "maxPayout",
          "type": "uint256"
        },
        {
          "internalType": "uint256",
          "name": "maxDebt",
          "type": "uint256"
        },
        {
          "internalType": "uint32",
          "name": "vestingTerm",
          "type": "uint32"
        }
      ],
      "stateMutability": "view",
      "type": "function"
    },
    {
      "inputs": [],
      "name": "totalDebt",
      "outputs": [
        {
          "internalType": "uint256",
          "name": "",
          "type": "uint256"
        }
      ],
      "stateMutability": "view",
      "type": "function"
    },
    {
      "inputs": [],
      "name": "treasury",
      "outputs": [
        {
          "internalType": "contract ITreasury",
          "name": "",
          "type": "address"
        }
      ],
      "stateMutability": "view",
      "type": "function"
    },
    {
      "inputs": [],
      "name": "useHelper",
      "outputs": [
        {
          "internalType": "bool",
          "name": "",
          "type": "bool"
        }
      ],
      "stateMutability": "view",
      "type": "function"
    },
    {
      "inputs": [
        {
          "internalType": "address",
          "name": "_recipient",
          "type": "address"
        },
        {
          "internalType": "uint256",
          "name": "_amount",
          "type": "uint256"
        }
      ],
      "name": "withdraw",
      "outputs": [
        {
          "internalType": "uint256",
          "name": "",
          "type": "uint256"
        }
      ],
      "stateMutability": "nonpayable",
      "type": "function"
    },
    {
      "inputs": [],
      "name": "withdrawFee",
      "outputs": [
        {
          "internalType": "uint32",
          "name": "",
          "type": "uint32"
        }
      ],
      "stateMutability": "view",
      "type": "function"
    },
    {
      "inputs": [],
      "name": "withdrawRate",
      "outputs": [
        {
          "internalType": "uint32",
          "name": "",
          "type": "uint32"
        }
      ],
      "stateMutability": "view",
      "type": "function"
    },
    {
      "inputs": [
        {
          "internalType": "uint256",
          "name": "",
          "type": "uint256"
        }
      ],
      "name": "withdrawTerm",
      "outputs": [
        {
          "internalType": "uint32",
          "name": "",
          "type": "uint32"
        }
      ],
      "stateMutability": "view",
      "type": "function"
    }
  ],
  "bytecode": "0x6012805463ffffffff1916600a1790556101606040526301e133806101009081526276a7006101205262ed4e006101405262000040906013906003620001b5565b50601480546103e863ffffffff199091161763ffffffff60201b1916644b000000001790553480156200007257600080fd5b5060405162003f7838038062003f7883398101604081905262000095916200029f565b600080546001600160a01b03191633178082556040516001600160a01b039190911691907fea8258f2d9ddb679928cf34b78cf645b7feda9acc828e4dd82d014eaae270eba908290a36001600160a01b038516620000f257600080fd5b6001600160601b0319606086901b166080526001600160a01b0384166200011857600080fd5b6001600160601b0319606085901b1660a0526001600160a01b0383166200013e57600080fd5b6001600160601b0319606084901b1660c0526001600160a01b0382166200016457600080fd5b6001600160601b0319606083901b1660e0526001600160a01b0381166200018a57600080fd5b600280546001600160a01b0319166001600160a01b0392909216919091179055506200030e92505050565b82805482825590600052602060002090600701600890048101928215620002595791602002820160005b838211156200022557835183826101000a81548163ffffffff021916908363ffffffff1602179055509260200192600401602081600301049283019260010302620001df565b8015620002575782816101000a81549063ffffffff021916905560040160208160030104928301926001030262000225565b505b50620002679291506200026b565b5090565b5b808211156200026757600081556001016200026c565b80516001600160a01b03811681146200029a57600080fd5b919050565b600080600080600060a08688031215620002b7578081fd5b620002c28662000282565b9450620002d26020870162000282565b9350620002e26040870162000282565b9250620002f26060870162000282565b9150620003026080870162000282565b90509295509295909350565b60805160601c60a05160601c60c05160601c60e05160601c613bb0620003c8600039806119495280611b4c5250806110aa5280611398528061163152806116c5528061261352508061075f52806111e252806113c5528061154152806115c5528061160452806116f45280611af75280612519528061264152806126b0525080611aa55280611cde5280611f2b5280611fd1528061211f52806123d4528061246652806127dc528061289852806129a45250613bb06000f3fe6080604052600436106102725760003560e01c8063844b5c7c1161014f578063d4d863ce116100c1578063e392a2621161007a578063e392a262146106d4578063e6c0e6d5146106e9578063e941fa78146106fe578063f3fef3a314610713578063f5c2ab5b14610733578063fc7b9c181461074857610272565b8063d4d863ce1461062f578063d4e294681461064f578063d502562514610664578063d7ccfb0b1461068a578063dc6549fb1461069f578063e0176de8146106bf57610272565b8063b4abccba11610113578063b4abccba14610575578063c637f04214610595578063ca237ea5146105b5578063cd1234b3146105d5578063cea55f5714610605578063d24378eb1461061a57610272565b8063844b5c7c146105035780638dbdbe6d14610518578063904b3ece1461052b57806398fabd3a14610540578063ae9832cf1461055557610272565b8063466a944e116101e857806361d027b3116101ac57806361d027b31461046f57806363b3256b14610484578063741bef1a146104a4578063759076e5146104b957806377b81895146104ce5780637927ebf8146104e357610272565b8063466a944e146103e557806346f68ee9146104055780634cf088d914610425578063507930ec1461043a5780635a96ac0a1461045a57610272565b80630dcf14171161023a5780630dcf14171461031b5780631e321a0f1461033d5780631ed2d71a1461035d5780631feed31f1461037d5780632f3f470a1461039d578063451ee4a1146103bf57610272565b8063016a42841461027757806301b88ee8146102a25780630505c8c9146102cf578063089208d8146102e45780630ab69367146102fb575b600080fd5b34801561028357600080fd5b5061028c61075d565b604051610299919061333e565b60405180910390f35b3480156102ae57600080fd5b506102c26102bd3660046130eb565b610781565b6040516102999190613a5e565b3480156102db57600080fd5b5061028c6107d9565b3480156102f057600080fd5b506102f96107e9565b005b34801561030757600080fd5b506102f961031636600461325c565b610866565b34801561032757600080fd5b506103306109c1565b6040516102999190613b1a565b34801561034957600080fd5b506102f96103583660046131d4565b6109cd565b34801561036957600080fd5b506102f96103783660046130eb565b610afd565b34801561038957600080fd5b506102c261039836600461310e565b610b48565b3480156103a957600080fd5b506103b2610e03565b604051610299919061338f565b3480156103cb57600080fd5b506103d4610e13565b60405161029995949392919061339a565b3480156103f157600080fd5b506102f96104003660046132a4565b610e39565b34801561041157600080fd5b506102f96104203660046130eb565b610eb1565b34801561043157600080fd5b5061028c610f5c565b34801561044657600080fd5b506102c26104553660046130eb565b610f6b565b34801561046657600080fd5b506102f961101d565b34801561047b57600080fd5b5061028c6110a8565b34801561049057600080fd5b506102f961049f3660046130eb565b6110cc565b3480156104b057600080fd5b5061028c611140565b3480156104c557600080fd5b506102c261114f565b3480156104da57600080fd5b5061028c61116a565b3480156104ef57600080fd5b506102c26104fe3660046131f4565b611179565b34801561050f57600080fd5b506102c26111d8565b6102c2610526366004613224565b6112b0565b34801561053757600080fd5b506102c26118aa565b34801561054c57600080fd5b5061028c611947565b34801561056157600080fd5b506102f961057036600461318d565b61196b565b34801561058157600080fd5b506103b26105903660046130eb565b611aa1565b3480156105a157600080fd5b506102f96105b03660046132a4565b611c00565b3480156105c157600080fd5b506103306105d03660046131f4565b611c6d565b3480156105e157600080fd5b506105f56105f03660046130eb565b611ca7565b6040516102999493929190613af6565b34801561061157600080fd5b506102c2611cd9565b34801561062657600080fd5b506102c2611da2565b34801561063b57600080fd5b506102f961064a36600461310e565b611e36565b34801561065b57600080fd5b5061028c611f29565b34801561067057600080fd5b50610679611f4d565b604051610299959493929190613acd565b34801561069657600080fd5b506102c2611f65565b3480156106ab57600080fd5b506103b26106ba3660046130eb565b611fab565b3480156106cb57600080fd5b506102c2611fc0565b3480156106e057600080fd5b506102c2612060565b3480156106f557600080fd5b506103306120bc565b34801561070a57600080fd5b506103306120cf565b34801561071f57600080fd5b506102c261072e366004613146565b6120db565b34801561073f57600080fd5b50610330612788565b34801561075457600080fd5b506102c2612794565b7f000000000000000000000000000000000000000000000000000000000000000081565b60008061078d83610f6b565b6001600160a01b0384166000908152600e602052604090205490915061271082106107ba578092506107d2565b6127106107c7828461279a565b816107ce57fe5b0492505b5050919050565b6000546001600160a01b03165b90565b6000546001600160a01b0316331461081c5760405162461bcd60e51b81526004016108139061377b565b60405180910390fd5b600080546040516001600160a01b03909116907fea8258f2d9ddb679928cf34b78cf645b7feda9acc828e4dd82d014eaae270eba908390a3600080546001600160a01b0319169055565b6000546001600160a01b031633146108905760405162461bcd60e51b81526004016108139061377b565b600554156108b05760405162461bcd60e51b8152600401610813906138b8565b60288510156108d15760405162461bcd60e51b81526004016108139061388b565b6103e88311156108f35760405162461bcd60e51b8152600401610813906134f0565b6201fa408163ffffffff16101561091c5760405162461bcd60e51b8152600401610813906137f3565b6040805160a081018252868152602081018690528082018590526060810184905263ffffffff838116608090920182905260058881556006889055600787905560088690556009805463ffffffff19908116909417905560108054909316429092169190911790915590517f4fb499597f8acc79e010fe84ba77cd012e00c7c82c71934d1413a499da5bd364916109b291613a25565b60405180910390a15050505050565b60145463ffffffff1681565b6000546001600160a01b031633146109f75760405162461bcd60e51b81526004016108139061377b565b6000826003811115610a0557fe5b1415610a48576201fa40811015610a2e5760405162461bcd60e51b8152600401610813906137f3565b6009805463ffffffff191663ffffffff8316179055610ac0565b6001826003811115610a5657fe5b1415610a88576103e8811115610a7e5760405162461bcd60e51b8152600401610813906134f0565b6007819055610ac0565b6002826003811115610a9657fe5b1415610aa6576008819055610ac0565b6003826003811115610ab457fe5b1415610ac05760068190555b7f4e3705d256225a38255bfb7114e7fa4b6b2939ab1f71639f57e06928858646c58282604051610af19291906133c8565b60405180910390a15050565b6000546001600160a01b03163314610b275760405162461bcd60e51b81526004016108139061377b565b6001600160a01b03166000908152601160205260409020805460ff19169055565b6000336001600160a01b03841614610b725760405162461bcd60e51b815260040161081390613926565b610b7a613077565b506001600160a01b0383166000908152600e602090815260408083208151608081018352815481526001820154938101939093526002015463ffffffff80821692840192909252600160201b900416606082015290610bd885610f6b565b90506127108110610cb857604080516080810182526000808252602080830182815283850183815263ffffffff428116606087019081526001600160a01b038d16808752600e9095528786209651875592516001870155905160029095018054925163ffffffff199093169582169590951767ffffffff000000001916600160201b9290911691909102179092558451925191927f51c99f515c87b0d95ba97f616edd182e8f161c4932eac17c6fefe9dab58b77b192610c989290613aa2565b60405180910390a2610caf858584600001516127be565b92505050610dfd565b815160009061271090610ccb908461279a565b81610cd257fe5b0490506040518060800160405280610cf7838660000151612abf90919063ffffffff16565b815260200184602001518152602001610d3f610d2686606001514263ffffffff16612acf90919063ffffffff16565b866040015163ffffffff16612acf90919063ffffffff16565b63ffffffff90811682524281166020928301526001600160a01b0389166000818152600e8452604090819020855180825594860151600182015585820151600290910180546060909701518516600160201b0267ffffffff00000000199290951663ffffffff19909716969096171692909217909355517f51c99f515c87b0d95ba97f616edd182e8f161c4932eac17c6fefe9dab58b77b191610de491859190613aa2565b60405180910390a2610df78686836127be565b93505050505b92915050565b600454600160a01b900460ff1681565b600a54600b54600c54600d5460ff9093169263ffffffff80821691600160201b90041685565b6000546001600160a01b03163314610e635760405162461bcd60e51b81526004016108139061377b565b60648163ffffffff161115610e8a5760405162461bcd60e51b815260040161081390613525565b6014805463ffffffff909216600160201b0267ffffffff0000000019909216919091179055565b6000546001600160a01b03163314610edb5760405162461bcd60e51b81526004016108139061377b565b6001600160a01b038116610f015760405162461bcd60e51b8152600401610813906134aa565b600080546040516001600160a01b03808516939216917fea8258f2d9ddb679928cf34b78cf645b7feda9acc828e4dd82d014eaae270eba91a3600180546001600160a01b0319166001600160a01b0392909216919091179055565b6003546001600160a01b031681565b6000610f75613077565b506001600160a01b0382166000908152600e602090815260408083208151608081018352815481526001820154938101939093526002015463ffffffff80821692840192909252600160201b9004811660608301819052919291610fde914281169190612acf16565b604083015163ffffffff918216925016801561101057806110018361271061279a565b8161100857fe5b049350611015565b600093505b505050919050565b6001546001600160a01b031633146110475760405162461bcd60e51b8152600401610813906135cb565b600154600080546040516001600160a01b0393841693909116917faa151555690c956fc3ea32f106bb9f119b5237a061eaa8557cff3e51e3792c8d91a3600154600080546001600160a01b0319166001600160a01b03909216919091179055565b7f000000000000000000000000000000000000000000000000000000000000000081565b6000546001600160a01b031633146110f65760405162461bcd60e51b81526004016108139061377b565b6001600160a01b03811661111c5760405162461bcd60e51b81526004016108139061386e565b6001600160a01b03166000908152601160205260409020805460ff19166001179055565b6002546001600160a01b031681565b600061116561115c612060565b600f5490612abf565b905090565b6004546001600160a01b031681565b6000662386f26fc100006111c86111c38460646111b6601460049054906101000a900463ffffffff1663ffffffff166111b0611f65565b9061279a565b816111bd57fe5b04612ae8565b612bd6565b816111cf57fe5b0490505b919050565b600060648061129b7f00000000000000000000000000000000000000000000000000000000000000006001600160a01b031663313ce5676040518163ffffffff1660e01b815260040160206040518083038186803b15801561123957600080fd5b505afa15801561124d573d6000803e3d6000fd5b505050506040513d601f19601f820116820180604052508101906112719190613301565b60ff16600a0a6111b0601460049054906101000a900463ffffffff1663ffffffff166111b0611f65565b816112a257fe5b04816112aa57fe5b04905090565b60006001600160a01b0382166112d85760405162461bcd60e51b81526004016108139061344a565b336001600160a01b03831614806112fe57503360009081526011602052604090205460ff165b61131a5760405162461bcd60e51b815260040161081390613979565b611322612bf2565b600854600f5411156113465760405162461bcd60e51b8152600401610813906136d2565b60006113506111d8565b9050600061135c612c17565b90508085101561137e5760405162461bcd60e51b8152600401610813906137b0565b604051630f762d4d60e11b81526000906001600160a01b037f00000000000000000000000000000000000000000000000000000000000000001690631eec5a9a906113ef907f0000000000000000000000000000000000000000000000000000000000000000908b90600401613376565b60206040518083038186803b15801561140757600080fd5b505afa15801561141b573d6000803e3d6000fd5b505050506040513d601f19601f8201168201806040525081019061143f919061320c565b9050600260009054906101000a90046001600160a01b03166001600160a01b031663313ce5676040518163ffffffff1660e01b815260040160206040518083038186803b15801561148f57600080fd5b505afa1580156114a3573d6000803e3d6000fd5b505050506040513d601f19601f820116820180604052508101906114c79190613301565b60ff16600a0a6114df6114d8611da2565b839061279a565b816114e657fe5b04905060006114f482611179565b9050629896808110156115195760405162461bcd60e51b815260040161081390613737565b8747106115b85787341461153f5760405162461bcd60e51b8152600401610813906138ed565b7f00000000000000000000000000000000000000000000000000000000000000006001600160a01b031663d0e30db0896040518263ffffffff1660e01b81526004016000604051808303818588803b15801561159a57600080fd5b505af11580156115ae573d6000803e3d6000fd5b50505050506115ed565b6115ed6001600160a01b037f00000000000000000000000000000000000000000000000000000000000000001633308b612c60565b60405163095ea7b360e01b81526001600160a01b037f0000000000000000000000000000000000000000000000000000000000000000169063095ea7b39061165b907f0000000000000000000000000000000000000000000000000000000000000000908c90600401613376565b602060405180830381600087803b15801561167557600080fd5b505af1158015611689573d6000803e3d6000fd5b505050506040513d601f19601f820116820180604052508101906116ad9190613171565b50604051636f0372af60e01b81526001600160a01b037f00000000000000000000000000000000000000000000000000000000000000001690636f0372af90611720908b907f00000000000000000000000000000000000000000000000000000000000000009087908790600401613a7e565b600060405180830381600087803b15801561173a57600080fd5b505af115801561174e573d6000803e3d6000fd5b5050604080516080810182526001600160a01b038a166000908152600e60205291909120549092508291506117839084612cbe565b815260208082018790526009805463ffffffff908116604080860191909152428083166060968701526001600160a01b038d166000908152600e865282902087518155948701516001860155908601516002909401805496909501518216600160201b0267ffffffff000000001994831663ffffffff199097169690961793909316949094179092559054869261181e9291811690612cbe16565b827f1fec6dc81f140574bf43f6b1e420ae1dd47928b9d57db8cbd7b8611063b85ae58b60405161184e9190613a5e565b60405180910390a461185e611cd9565b611866612c17565b61186e6111d8565b6040517f375b221f40939bfd8f49723a17cf7bc6d576ebf72efe2cc3e991826f5b3f390a90600090a461189f612cce565b979650505050505050565b6002546040805163313ce56760e01b815290516000926001600160a01b03169163313ce567916004808301926020929190829003018186803b1580156118ef57600080fd5b505afa158015611903573d6000803e3d6000fd5b505050506040513d601f19601f820116820180604052508101906119279190613301565b60ff16600a0a611940611938611da2565b6111b0611cd9565b816112aa57fe5b7f000000000000000000000000000000000000000000000000000000000000000081565b6000546001600160a01b031633146119955760405162461bcd60e51b81526004016108139061377b565b6005546103e8906119a790601961279a565b816119ae57fe5b048311156119ce5760405162461bcd60e51b815260040161081390613688565b60288210156119ef5760405162461bcd60e51b815260040161081390613413565b6040805160a0810182528515158082526020820186905281830185905263ffffffff84811660608401819052429091166080909301839052600a805460ff19169092178255600b879055600c869055600d805463ffffffff191690911767ffffffff000000001916600160201b9093029290921790915590517f12e0d895835c5636a844b2d6d6e82e6b0e5e7df951b7beb2dcb89eb46ddb875e91611a93916139e1565b60405180910390a150505050565b60007f00000000000000000000000000000000000000000000000000000000000000006001600160a01b0316826001600160a01b03161415611af55760405162461bcd60e51b815260040161081390613909565b7f00000000000000000000000000000000000000000000000000000000000000006001600160a01b0316826001600160a01b03161415611b475760405162461bcd60e51b8152600401610813906136b5565b611bf87f0000000000000000000000000000000000000000000000000000000000000000836001600160a01b03166370a08231306040518263ffffffff1660e01b8152600401611b97919061333e565b60206040518083038186803b158015611baf57600080fd5b505afa158015611bc3573d6000803e3d6000fd5b505050506040513d601f19601f82011682018060405250810190611be7919061320c565b6001600160a01b0385169190612dcd565b506001919050565b6000546001600160a01b03163314611c2a5760405162461bcd60e51b81526004016108139061377b565b60648163ffffffff161115611c515760405162461bcd60e51b815260040161081390613473565b6012805463ffffffff191663ffffffff92909216919091179055565b60138181548110611c7d57600080fd5b9060005260206000209060089182820401919006600402915054906101000a900463ffffffff1681565b600e6020526000908152604090208054600182015460029092015490919063ffffffff80821691600160201b90041684565b6000807f00000000000000000000000000000000000000000000000000000000000000006001600160a01b03166318160ddd6040518163ffffffff1660e01b815260040160206040518083038186803b158015611d3557600080fd5b505afa158015611d49573d6000803e3d6000fd5b505050506040513d601f19601f82011682018060405250810190611d6d919061320c565b9050670de0b6b3a7640000611d946111c3611d8e633b9aca006111b061114f565b84612ae8565b81611d9b57fe5b0491505090565b600080600260009054906101000a90046001600160a01b03166001600160a01b031663feaf968c6040518163ffffffff1660e01b815260040160a06040518083038186803b158015611df357600080fd5b505afa158015611e07573d6000803e3d6000fd5b505050506040513d601f19601f82011682018060405250810190611e2b91906132be565b509194505050505090565b6000546001600160a01b03163314611e605760405162461bcd60e51b81526004016108139061377b565b6001600160a01b038216611e865760405162461bcd60e51b81526004016108139061375f565b8015611ebb5760048054600160a01b60ff60a01b19909116176001600160a01b0319166001600160a01b038416179055611ee4565b6004805460ff60a01b19169055600380546001600160a01b0319166001600160a01b0384161790555b816001600160a01b03167f9618307401872b2d1dc9c414b9568d81ab7cdf31913dbbcbcc296036b4a6a35782604051611f1d919061338f565b60405180910390a25050565b7f000000000000000000000000000000000000000000000000000000000000000081565b60055460065460075460085460095463ffffffff1685565b600062989680611f8d633b9aca00611f87611f7e611cd9565b6005549061279a565b90612cbe565b81611f9457fe5b0490506005600101548110156107e6575060065490565b60116020526000908152604090205460ff1681565b6000620186a06119406005600201547f00000000000000000000000000000000000000000000000000000000000000006001600160a01b03166318160ddd6040518163ffffffff1660e01b815260040160206040518083038186803b15801561202857600080fd5b505afa15801561203c573d6000803e3d6000fd5b505050506040513d601f19601f820116820180604052508101906111b0919061320c565b601054600090819061207e9063ffffffff42811691811690612acf16565b600954600f5491925063ffffffff9081169161209e918085169061279a16565b816120a557fe5b049150600f548211156120b857600f5491505b5090565b601454600160201b900463ffffffff1681565b60125463ffffffff1681565b6000336001600160a01b038416146121055760405162461bcd60e51b815260040161081390613926565b6040516370a0823160e01b81526000906001600160a01b037f000000000000000000000000000000000000000000000000000000000000000016906370a082319061215490879060040161333e565b60206040518083038186803b15801561216c57600080fd5b505afa158015612180573d6000803e3d6000fd5b505050506040513d601f19601f820116820180604052508101906121a4919061320c565b601454909150612710906121c390839063ffffffff9081169061279a16565b816121ca57fe5b048311156121ea5760405162461bcd60e51b81526004016108139061359d565b6121f2613077565b506001600160a01b0384166000908152600e602090815260408083208151608081018352815481526001820154938101939093526002015463ffffffff80821692840192909252600160201b900416606082015260138054919261228a9261225657fe5b60009182526020909120600882040154606084015163ffffffff908116926007166004026101000a909104811690612df116565b63ffffffff164263ffffffff1611156122b55760405162461bcd60e51b81526004016108139061360d565b6122c6601360018154811061225657fe5b63ffffffff164263ffffffff161015801561234c575061233c6201518061232860136001815481106122f457fe5b60009182526020909120600882040154606086015163ffffffff908116926007166004026101000a909104811690612df116565b63ffffffff16612df190919063ffffffff16565b63ffffffff164263ffffffff1611155b806123a15750612363601360028154811061225657fe5b63ffffffff164263ffffffff16101580156123a157506123916201518061232860136002815481106122f457fe5b63ffffffff164263ffffffff1611155b6123bd5760405162461bcd60e51b815260040161081390613566565b6040516323b872dd60e01b81526001600160a01b037f000000000000000000000000000000000000000000000000000000000000000016906323b872dd9061240d90339030908990600401613352565b602060405180830381600087803b15801561242757600080fd5b505af115801561243b573d6000803e3d6000fd5b505050506040513d601f19601f8201168201806040525081019061245f9190613171565b50600060647f00000000000000000000000000000000000000000000000000000000000000006001600160a01b031663313ce5676040518163ffffffff1660e01b815260040160206040518083038186803b1580156124bd57600080fd5b505afa1580156124d1573d6000803e3d6000fd5b505050506040513d601f19601f820116820180604052508101906124f59190613301565b60ff166125b2601460049054906101000a900463ffffffff1663ffffffff166111b07f00000000000000000000000000000000000000000000000000000000000000006001600160a01b031663313ce5676040518163ffffffff1660e01b815260040160206040518083038186803b15801561257057600080fd5b505afa158015612584573d6000803e3d6000fd5b505050506040513d601f19601f820116820180604052508101906125a89190613301565b8a9060ff1661279a565b816125b957fe5b04816125c157fe5b60145491900491506000906064906125e490849063ffffffff9081169061279a16565b816125eb57fe5b04905060006125fa8383612abf565b604051627b8a6760e11b81529091506001600160a01b037f0000000000000000000000000000000000000000000000000000000000000000169062f714ce906126699084907f000000000000000000000000000000000000000000000000000000000000000090600401613a67565b600060405180830381600087803b15801561268357600080fd5b505af1158015612697573d6000803e3d6000fd5b505060405163a9059cbb60e01b81526001600160a01b037f000000000000000000000000000000000000000000000000000000000000000016925063a9059cbb91506126e99033908590600401613376565b602060405180830381600087803b15801561270357600080fd5b505af1158015612717573d6000803e3d6000fd5b505050506040513d601f19601f8201168201806040525081019061273b9190613171565b50876001600160a01b03167f29da31bbe163a1f92dbb529f8257139939e95923d11bb6f0eadf9c90d4a10c21826040516127759190613a5e565b60405180910390a2979650505050505050565b60105463ffffffff1681565b600f5481565b60008215806127b5575050818102818382816127b257fe5b04145b610dfd57600080fd5b60008261286b5760405163a9059cbb60e01b81526001600160a01b037f0000000000000000000000000000000000000000000000000000000000000000169063a9059cbb906128139087908690600401613376565b602060405180830381600087803b15801561282d57600080fd5b505af1158015612841573d6000803e3d6000fd5b505050506040513d601f19601f820116820180604052508101906128659190613171565b50612ab8565b600454600160a01b900460ff161561298a576004805460405163095ea7b360e01b81526001600160a01b037f000000000000000000000000000000000000000000000000000000000000000081169363095ea7b3936128cf93921691879101613376565b602060405180830381600087803b1580156128e957600080fd5b505af11580156128fd573d6000803e3d6000fd5b505050506040513d601f19601f820116820180604052508101906129219190613171565b5060048054604051637acb775760e01b81526001600160a01b0390911691637acb775791612953918691899101613a67565b600060405180830381600087803b15801561296d57600080fd5b505af1158015612981573d6000803e3d6000fd5b50505050612ab8565b60035460405163095ea7b360e01b81526001600160a01b037f000000000000000000000000000000000000000000000000000000000000000081169263095ea7b3926129df9291909116908690600401613376565b602060405180830381600087803b1580156129f957600080fd5b505af1158015612a0d573d6000803e3d6000fd5b505050506040513d601f19601f82011682018060405250810190612a319190613171565b50600354604051637acb775760e01b81526001600160a01b0390911690637acb775790612a649085908890600401613a67565b602060405180830381600087803b158015612a7e57600080fd5b505af1158015612a92573d6000803e3d6000fd5b505050506040513d601f19601f82011682018060405250810190612ab69190613171565b505b5092915050565b80820382811115610dfd57600080fd5b80820363ffffffff8084169082161115610dfd57600080fd5b612af06130ab565b60008211612b105760405162461bcd60e51b815260040161081390613642565b82612b2a5750604080516020810190915260008152610dfd565b71ffffffffffffffffffffffffffffffffffff8311612b9c57600082607085901b81612b5257fe5b0490506001600160e01b03811115612b7c5760405162461bcd60e51b815260040161081390613837565b6040518060200160405280826001600160e01b0316815250915050610dfd565b6000612bad84600160701b85612e0a565b90506001600160e01b03811115612b7c5760405162461bcd60e51b815260040161081390613837565b80516000906612725dd1d243ab906001600160e01b03166111cf565b612bfd61115c612060565b600f556010805463ffffffff19164263ffffffff16179055565b600062989680612c30633b9aca00611f87611f7e611cd9565b81612c3757fe5b049050600560010154811015612c5057506006546107e6565b600654156107e657600060065590565b612cb8846323b872dd60e01b858585604051602401612c8193929190613352565b60408051601f198184030181529190526020810180516001600160e01b03166001600160e01b031990931692909217909152612e6a565b50505050565b80820182811015610dfd57600080fd5b600d54600090612cf09063ffffffff600160201b8204811691811690612df116565b63ffffffff169050600a60010154600014158015612d0e5750804210155b15612dca57600554600a5460ff1615612d4857600b54600554612d3091612cbe565b6005819055600c5411612d43576000600b555b612d6a565b600b54600554612d5791612abf565b6005819055600c5410612d6a576000600b555b600d805467ffffffff000000001916600160201b4263ffffffff1602179055600554600b54600a546040517fb923e581a0f83128e9e1d8297aa52b18d6744310476e0b54509c054cd7a93b2a93610af19386939192909160ff1690613ab0565b50565b612dec8363a9059cbb60e01b8484604051602401612c81929190613376565b505050565b80820163ffffffff8084169082161015610dfd57600080fd5b6000806000612e198686612ef9565b9150915060008480612e2757fe5b868809905082811115612e3b576001820391505b8083039250848210612e5f5760405162461bcd60e51b815260040161081390613700565b61189f838387612f26565b6060612ebf826040518060400160405280602081526020017f5361666545524332303a206c6f772d6c6576656c2063616c6c206661696c6564815250856001600160a01b0316612f969092919063ffffffff16565b805190915015612dec5780806020019051810190612edd9190613171565b612dec5760405162461bcd60e51b815260040161081390613997565b6000808060001984860990508385029250828103915082811015612f1e576001820391505b509250929050565b60008181038216808381612f3657fe5b049250808581612f4257fe5b049450808160000381612f5157fe5b60028581038087028203028087028203028087028203028087028203028087028203028087028203029586029003909402930460010193909302939093010292915050565b6060612fa58484600085612fad565b949350505050565b6060612fb885613071565b612fd45760405162461bcd60e51b815260040161081390613942565b60006060866001600160a01b03168587604051612ff19190613322565b60006040518083038185875af1925050503d806000811461302e576040519150601f19603f3d011682016040523d82523d6000602084013e613033565b606091505b50915091508115613047579150612fa59050565b8051156130575780518082602001fd5b8360405162461bcd60e51b815260040161081391906133e0565b3b151590565b60405180608001604052806000815260200160008152602001600063ffffffff168152602001600063ffffffff1681525090565b60408051602081019091526000815290565b803563ffffffff811681146111d357600080fd5b805169ffffffffffffffffffff811681146111d357600080fd5b6000602082840312156130fc578081fd5b813561310781613b57565b9392505050565b60008060408385031215613120578081fd5b823561312b81613b57565b9150602083013561313b81613b6c565b809150509250929050565b60008060408385031215613158578182fd5b823561316381613b57565b946020939093013593505050565b600060208284031215613182578081fd5b815161310781613b6c565b600080600080608085870312156131a2578182fd5b84356131ad81613b6c565b935060208501359250604085013591506131c9606086016130bd565b905092959194509250565b600080604083850312156131e6578182fd5b823560048110613163578283fd5b600060208284031215613205578081fd5b5035919050565b60006020828403121561321d578081fd5b5051919050565b600080600060608486031215613238578283fd5b8335925060208401359150604084013561325181613b57565b809150509250925092565b600080600080600060a08688031215613273578081fd5b85359450602086013593506040860135925060608601359150613298608087016130bd565b90509295509295909350565b6000602082840312156132b5578081fd5b613107826130bd565b600080600080600060a086880312156132d5578081fd5b6132de866130d1565b9450602086015193506040860151925060608601519150613298608087016130d1565b600060208284031215613312578081fd5b815160ff81168114613107578182fd5b60008251613334818460208701613b2b565b9190910192915050565b6001600160a01b0391909116815260200190565b6001600160a01b039384168152919092166020820152604081019190915260600190565b6001600160a01b03929092168252602082015260400190565b901515815260200190565b94151585526020850193909352604084019190915263ffffffff908116606084015216608082015260a00190565b60408101600484106133d657fe5b9281526020015290565b60006020825282518060208401526133ff816040850160208701613b2b565b601f01601f19169190910160400192915050565b6020808252601f908201527f4e6578742041646a7573746d656e7420636f756c64206265206c6f636b656400604082015260600190565b6020808252600f908201526e496e76616c6964206164647265737360881b604082015260600190565b6020808252601f908201527f5769746864726177466565206d757374206c657373207468616e203130302500604082015260600190565b60208082526026908201527f4f776e61626c653a206e6577206f776e657220697320746865207a65726f206160408201526564647265737360d01b606082015260800190565b6020808252818101527f5061796f75742063616e6e6f742062652061626f766520312070657263656e74604082015260600190565b60208082526021908201527f446973636f756e742052617465206d757374206c657373207468616e203130306040820152602560f81b606082015260800190565b60208082526019908201527f556e617661696c61626c65207769746864726177207465726d00000000000000604082015260600190565b602080825260149082015273496e73756666696369656e742062616c616e636560601b604082015260600190565b60208082526022908201527f4f776e61626c653a206d757374206265206e6577206f776e657220746f2070756040820152611b1b60f21b606082015260800190565b6020808252818101527f44697361626c6520746f20776974686472617720616674657220312079656172604082015260600190565b60208082526026908201527f4669786564506f696e743a3a6672616374696f6e3a206469766973696f6e206260408201526579207a65726f60d01b606082015260800190565b602080825260139082015272496e6372656d656e7420746f6f206c6172676560681b604082015260600190565b60208082526003908201526204e41560ec1b604082015260600190565b60208082526014908201527313585e0818d85c1858da5d1e481c995858da195960621b604082015260600190565b6020808252601a908201527f46756c6c4d6174683a3a6d756c4469763a206f766572666c6f77000000000000604082015260600190565b6020808252600e908201526d109bdb99081d1bdbc81cdb585b1b60921b604082015260600190565b602080825260029082015261494160f01b604082015260600190565b6020808252818101527f4f776e61626c653a2063616c6c6572206973206e6f7420746865206f776e6572604082015260600190565b60208082526023908201527f536c697070616765206c696d69743a206d6f7265207468616e206d617820707260408201526269636560e81b606082015260800190565b60208082526024908201527f56657374696e67206d757374206265206c6f6e676572207468616e20333620686040820152636f75727360e01b606082015260800190565b6020808252601e908201527f4669786564506f696e743a3a6672616374696f6e3a206f766572666c6f770000604082015260600190565b6020808252600390820152625a4e4160e81b604082015260600190565b60208082526013908201527210d85b881b1bd8dac818591a9d5cdd1b595b9d606a1b604082015260600190565b6020808252818101527f426f6e6473206d75737420626520696e697469616c697a65642066726f6d2030604082015260600190565b602080825260029082015261554160f01b604082015260600190565b60208082526003908201526213905560ea1b604082015260600190565b6020808252600290820152614e4160f01b604082015260600190565b6020808252601d908201527f416464726573733a2063616c6c20746f206e6f6e2d636f6e7472616374000000604082015260600190565b6020808252600490820152634c464e4160e01b604082015260600190565b6020808252602a908201527f5361666545524332303a204552433230206f7065726174696f6e20646964206e6040820152691bdd081cdd58d8d9595960b21b606082015260800190565b815460ff161515815260018201546020808301919091526002830154604083015260039092015463ffffffff8082166060840152921c909116608082015260a00190565b8154815260018201546020820152600282015460408201526003820154606082015260049091015463ffffffff16608082015260a00190565b90815260200190565b9182526001600160a01b0316602082015260400190565b9384526001600160a01b039290921660208401526040830152606082015260800190565b918252602082015260400190565b938452602084019290925260408301521515606082015260800190565b94855260208501939093526040840191909152606083015263ffffffff16608082015260a00190565b938452602084019290925263ffffffff908116604084015216606082015260800190565b63ffffffff91909116815260200190565b60005b83811015613b46578181015183820152602001613b2e565b83811115612cb85750506000910152565b6001600160a01b0381168114612dca57600080fd5b8015158114612dca57600080fdfea26469706673582212205375ea097db4575a2b6a85298244996a1f028620388b8a02d85ef7e31f28949764736f6c63430007050033",
  "linkReferences": {},
  "deployedLinkReferences": {}
}